:100000000C94CF000C94F7000C94F7000C94F700BC
:100010000C94F7000C94F7000C94F7000C94010872
:100020000C94F7000C94F7000C94F7000C94F70074
:100030000C94F7000C94F7000C94F7000C94F70064
:100040000C94DB080C94F7000C94A9080C9483081A
:100050000C94F7000C94F7000C94F7000C94F70044
:100060000C9425090C94F70030003000300030006B
:100070003000300000000000240027002A000000AB
:1000800000002300260029000000000800020100F3
:1000900000030407000000000000000050726F6AB7
:1000A00065637420696E666F3A2068747470733A81
:1000B0002F2F6D617274696E69757339362E676999
:1000C000746875622E696F2F416972736F66742D43
:1000D000444F4D494E41544F522D524649442F658D
:1000E0006E2F627574746F6E2D646F6D696E6174BE
:1000F0006F722E68746D6C00417574686F723A206F
:100100004D617274696E2043686C65626F766563D9
:1001100020286D617274696E697573393640676D38
:1001200061696C2E636F6D2900427574746F6E2067
:10013000446F6D696E6174696F6E2054696D65728C
:10014000202873686172657761726529202D2052BD
:1001500065766973696F6E20377468204F63746FBA
:1001600062657220323032320001020408102040F1
:100170008001020408102001020408102000000081
:1001800000250028002B00040404040404040402D5
:10019000020202020203030303030302440A1124BE
:1001A0001FBECFEFD8E0DEBFCDBF11E0A0E0B1E0D1
:1001B000E6E3FDE102C005900D92A038B107D9F742
:1001C00023E0A0E8B1E001C01D92A531B207E1F73C
:1001D00010E0CFECD0E004C02197FE010E946E0D2C
:1001E000CE3CD107C9F70E947D0A0C94990E0C945D
:1001F000000008950895EF92FF920F931F93CF93FD
:10020000DF938C017B01D0E0C0E0F701EC0FFD1F14
:100210006491662361F0D801ED91FC910190F08129
:10022000E02DC8010995892B11F02196EECFCE0162
:10023000DF91CF911F910F91FF90EF900895AF92B2
:10024000BF92CF92DF92EF92FF920F931F93CF93C3
:10025000DF936C017B018B01040F151FEB015E0125
:10026000AE18BF08C017D10759F06991D601ED91BA
:10027000FC910190F081E02DC6010995892B79F759
:10028000C501DF91CF911F910F91FF90EF90DF900B
:10029000CF90BF90AF900895FC01538D448D252FD2
:1002A00030E0842F90E0821B930B541710F0CF9610
:1002B000089501970895FC01918D828D981761F042
:1002C000A28DAE0FBF2FB11D5D968C91928D9F5F59
:1002D0009F73928F90E008958FEF9FEF0895FC0138
:1002E000918D828D981731F0828DE80FF11D858DEB
:1002F00090E008958FEF9FEF0895FC01918D228D7E
:10030000892F90E0805C9F4F821B91098F73992702
:10031000089588E692E00E947D0121E0892B09F48E
:1003200020E0822F089580E090E0892B29F00E9440
:10033000890181110C9400000895FC01A48DA80F7F
:10034000B92FB11DA35ABF4F2C91848D90E0019617
:100350008F739927848FA689B7892C93A089B18937
:100360008C91837080648C93938D848D981306C0D8
:100370000288F389E02D80818F7D80830895EF923C
:10038000FF920F931F93CF93DF93EC0181E0888F4F
:100390009B8D8C8D98131AC0E889F989808185FF1F
:1003A00015C09FB7F894EE89FF896083E889F989C1
:1003B00080818370806480839FBF81E090E0DF91C3
:1003C000CF911F910F91FF90EF900895F62E0B8D16
:1003D00010E00F5F1F4F0F731127E02E8C8D8E11D1
:1003E0000CC00FB607FCFACFE889F989808185FF38
:1003F000F5CFCE010E949D01F1CFEB8DEC0FFD2FCB
:10040000F11DE35AFF4FF0829FB7F8940B8FEA89F2
:10041000FB8980818062CFCFCF93DF93EC01888D01
:100420008823B9F0AA89BB89E889F9898C9185FD6F
:1004300003C0808186FD0DC00FB607FCF7CF8C91FD
:1004400085FFF2CF808185FFEDCFCE010E949D0117
:10045000E9CFDF91CF910895833081F028F4813086
:1004600099F08230A9F008958730A9F08830C9F05A
:100470008430B1F4809180008F7D03C08091800032
:100480008F7780938000089584B58F7784BD089519
:1004900084B58F7DFBCF8091B0008F778093B000C3
:1004A00008958091B0008F7DF9CFCF93DF93282FEF
:1004B00030E0F901E857FF4F8491F901E759FE4F09
:1004C000D491F901E957FE4FC491CC23A1F08111D9
:1004D0000E942C02EC2FF0E0EE0FFF1FE258FF4FBE
:1004E000A591B491EC91ED2381E090E009F480E0D6
:1004F000DF91CF91089580E090E0FACF1F93CF93E2
:10050000DF93282F30E0F901E857FF4F8491F9017C
:10051000E759FE4FD491F901E957FE4FC491CC231E
:10052000A9F0162F81110E942C02EC2FF0E0EE0FA3
:10053000FF1FE358FE4FA591B4918FB7F894EC914B
:10054000111108C0D095DE23DC938FBFDF91CF91CE
:100550001F910895DE2BF8CFCF93DF9390E0FC013D
:10056000E759FE4F249189579E4FFC0184918823BF
:10057000D1F090E0880F991FFC01EC58FF4FA59136
:10058000B491FC01E358FE4FC591D491623071F4EF
:100590009FB7F8943C91822F809583238C93E881B8
:1005A0002E2B28839FBFDF91CF9108958FB7F894AA
:1005B000EC912E2B2C938FBFF6CFCF93809100011F
:1005C000853021F08F3F61F1CF910895EBE9F1E0A3
:1005D000C491C7FDF9CF61E085E00E94AC02CC2355
:1005E00009F48CC0C23009F0A1C08091B100887FAD
:1005F00083608093B1008CE78093B30088EC90E037
:10060000A0E0B0E080930C0290930D02A0930E0244
:10061000B0930F0280917000826080937000D4CFFD
:1006200085E080930001EBE9F1E0C491CF3F61F2F6
:10063000C13021F150F0C23009F43EC0C7FDC4CF33
:1006400061E085E00E94AC02CDCF14BC15BC84B53E
:10065000826084BD85B5816085BDECE8F1E0E49100
:10066000F0E0EE0FFF1FE358FE4F85919491EEE608
:10067000F1E0E491E0930B02C0E0ADCF1092800076
:100680001092810080918100886080938100809128
:100690008100816080938100ECE8F1E0E491F0E07A
:1006A000EE0FFF1FE358FE4F85919491EEE6F1E0C7
:1006B000E491E0930A028FCF1092B0001092B10043
:1006C0008091B00082608093B0008091B100816021
:1006D0008093B100ECE8F1E0E491F0E0EE0FFF1F51
:1006E000E358FE4F859194919093090280930802FC
:1006F000EEE6F1E0E491E09307026DCF85B5887FE7
:10070000836085BD8DE387BD88EC90E0A0E0B0E01C
:100710008093140290931502A0931602B0931702CF
:1007200080916E00826080936E004ECFC130F1F4F4
:1007300080918100887F8160809381008FE99FE0B4
:10074000909389008093880088EC90E0A0E0B0E06E
:100750008093100290931102A0931202B09313029F
:1007600080916F00826080936F002ECFC23021F0A5
:10077000C1112ACF8FE9C7CF8FE93ECF3FB7F89499
:100780008091E5019091E601A091E701B091E80127
:1007900026B5A89B05C02F3F19F00196A11DB11DDC
:1007A0003FBFBA2FA92F982F8827BC01CD01620F18
:1007B000711D811D911D42E0660F771F881F991FD3
:1007C0004A95D1F708958F929F92AF92BF92CF92A0
:1007D000DF92EF92FF924B015C010E94BE036B011E
:1007E0007C010E94BE036C197D098E099F09683E39
:1007F000734081059105A8F321E0821A9108A108B0
:10080000B10888EEC80E83E0D81EE11CF11C8114EB
:100810009104A104B10429F7FF90EF90DF90CF90ED
:10082000BF90AF909F908F9008952091C101260FA7
:100830003327331F21323105ECF420913E02FC01B5
:1008400090E080E0243069F082E00895A091C10139
:100850002191AC014F555E4FA40FB52FB11D2C93C4
:100860000196861798F38091C101680F6093C101CA
:1008700080E0089581E0089510923E0281E0809327
:100880003D021092180261E082E10E947E0261E066
:1008900083E10E947E02E9EBF0E080818E7F80831D
:1008A00080818D7F808388E48093B80085E4809385
:1008B000BC000895CF93DF9391E09093A00188232B
:1008C000B9F0C091B800D091BA008091BC008A7B89
:1008D0008093BC0060E082E10E947E0260E083E1E0
:1008E0000E947E020E943C04D093BA00C093B800DC
:1008F000DF91CF910895CF92DF92EF92FF920F9305
:100900001F93CF93DF93D091670281E0D13208F03B
:100910009CC0C09166020E94BE036B017C01809165
:100920003E0281116CC082E080933E0281E08093A0
:100930003D028FEF80933C0210923B02D0933A022B
:10094000A6E4B2E0EAE1F2E080E0D8138DC01092B4
:10095000190280911902CC0FC82BC0931902809103
:100960001802813009F084C0109218020E94BE0360
:100970006B017C01809119028093BB008091400241
:1009800090914102A0914202B0914302892B8A2B9F
:100990008B2BA1F00E94BE030091400210914102F6
:1009A00020914202309143026C197D098E099F0902
:1009B000061717072807390708F442C08091BC00C2
:1009C00083FDD8CF85EC8093BC000E94BE036B01F1
:1009D0007C0180913E02823009F44CC080913C023F
:1009E0008F3F09F469C080913C02803209F466C0EF
:1009F00080913C02803309F463C084E026C080917A
:100A0000400290914102A0914202B0914302892B91
:100A10008A2B8B2B09F483CF0E94BE0300914002E6
:100A20001091410220914202309143026C197D09DC
:100A30008E099F09061717072807390708F06FCF97
:100A400080913F020E945A0485E010924502109264
:100A5000670210924402DF91CF911F910F91FF9096
:100A6000EF90DF90CF9008959D9191938F5F6DCF20
:100A700085EEA9CF8091400290914102A09142025F
:100A8000B0914302892B8A2B8B2B09F4A2CF0E94B1
:100A9000BE03009140021091410220914202309128
:100AA00043026C197D098E099F090617170728074D
:100AB000390708F08ECFC4CF80E0C7CF82E0C5CF22
:100AC00083E0C3CF0895E091EE018091ED01E81736
:100AD00030F4F0E0E058FE4F808190E008958FEF11
:100AE0009FEF08959091EE018091ED012FEF3FEF80
:100AF000981748F4E92FF0E0E058FE4F208130E0ED
:100B00009F5F9093EE01C90108958091ED0190914E
:100B1000EE01891B990B0895CF92DF92EF92FF921D
:100B20000F931F93CF93DF937C01CB018A01209118
:100B30004402222389F0EB016B01C40ED51ECC15B3
:100B4000DD0569F06991D701ED91FC910190F0818B
:100B5000E02DC7010995F3CF642F0E941504C80149
:100B6000DF91CF911F910F91FF90EF90DF90CF9089
:100B70000895CF93DF931F92CDB7DEB7698320919D
:100B800044022223F9F020916702203258F021E03C
:100B900030E0FC013383228390E080E00F90DF910E
:100BA000CF91089580914502E82FF0E0EA5BFD4F78
:100BB000998190838F5F809345028093670281E0E3
:100BC00090E0ECCF61E0CE0101960E941504F7CFD2
:100BD000FC01248131E0309344022093660210929C
:100BE0004502109267028385682B85E093E00E949E
:100BF000B9050C947B04089590E080E008950F936C
:100C00001F93CF938C01C62F0E94E8056C2F646060
:100C1000C8010E94E8056C2F6B7FC8010E94E8059F
:100C200083EC90E00197F1F7CF911F910F91089518
:100C30000F931F93CF93DF938C01D62FC42F607F28
:100C4000642B0E94FF0580E1D89FB00111246C2B1A
:100C5000C801DF91CF911F910F910C94FF0541E0E6
:100C60000E94180681E090E00895CF93DF93CDB7FE
:100C7000DEB728970FB6F894DEBF0FBECDBF28E0D1
:100C8000E7E0F1E0DE01119601900D922A95E1F77F
:100C9000FC012185241708F44FEF50E0440F551F45
:100CA00021E030E02C0F3D1F420F531FFA0120813D
:100CB000620F606840E028960FB6F894DEBF0FBE62
:100CC000CDBFDF91CF910C941806FB01019000205D
:100CD000E9F73197AF01461B570BDC01ED91FC9111
:100CE0000280F381E02D0994CF93DF93BC0188E665
:100CF00092E00E94FB00EC016FE371E088E692E075
:100D00000E9465068C0F9D1FDF91CF9108958F92F1
:100D10009F92AF92BF92EF92FF920F931F93CF9348
:100D2000DF93CDB7DEB7A1970FB6F894DEBF0FBE45
:100D3000CDBF7C01FA01CB0119A2223008F42AE0D0
:100D40008E010F5D1F4F822E912CB12CA12CBF0163
:100D5000A50194010E944C0DF901CA016A300CF5FD
:100D6000605DD8016E938D01232B242B252B79F701
:100D700090E080E0109721F0BD01C7010E94650658
:100D8000A1960FB6F894DEBF0FBECDBFDF91CF9115
:100D90001F910F91FF90EF90BF90AF909F908F9019
:100DA0000895695CDECFCF92DF92EF92FF920F93AE
:100DB0001F93CF93DF936B01770FEE08FF08F7FEC9
:100DC0001FC0EC01E881F9810190F081E02D6DE216
:100DD00009958C0144275527BA014C195D096E0904
:100DE0007F092AE0CE010E948706800F911FDF91C4
:100DF000CF911F910F91FF90EF90DF90CF900895CA
:100E00002AE0B701A601DF91CF911F910F91FF90CA
:100E1000EF90DF90CF900C948706CF93DF93C09133
:100E2000EF01D091F00141E064E0CE010E9435066F
:100E30008091F9019091FA010A972CF462E770E031
:100E4000CE010E94FB006091F9017091FA0180913E
:100E5000EF019091F0010E94D306C091EF01D09173
:100E6000F00141E067E0CE010E9435068091FB0170
:100E70009091FC010A972CF460E770E0CE010E948B
:100E8000FB006091FB017091FC018091EF0190915A
:100E9000F0010E94D306C091EF01D091F00141E032
:100EA0006AE0CE010E9435068091FD019091FE011D
:100EB0000A972CF46EE670E0CE010E94FB00609170
:100EC000FD017091FE018091EF019091F001DF91A1
:100ED000CF910C94D306CF93DF93C091EF01D091C3
:100EE000F00140E064E0CE010E9435068091FF01F0
:100EF000909100020A972CF46CE670E0CE010E94FB
:100F0000FB006091FF01709100028091EF019091D0
:100F1000F0010E94D306C091EF01D091F00140E0B2
:100F200067E0CE010E943506809101029091020295
:100F30000A972CF46AE670E0CE010E94FB006091F3
:100F40000102709102028091EF019091F0010E94E4
:100F5000D306C091EF01D091F00140E06AE0CE01EC
:100F60000E94350680910302909104020A972CF4A6
:100F700068E670E0CE010E94FB0060910302709170
:100F800004028091EF019091F001DF91CF910C94D8
:100F9000D30685ED8093BC00809140029091410280
:100FA000A0914202B09143020796A11DB11D23E01A
:100FB000B695A795979587952A95D1F72091BC006E
:100FC00024FD03C010923E020895409140025091CA
:100FD00041026091420270914302452B462B472B00
:100FE00069F30097A105B10541F02AE22A95F1F7CE
:100FF00000C00197A109B109E1CF80913F020C9493
:101000005A041F920F920FB60F9211242F933F9301
:101010004F935F936F937F938F939F93AF93BF9300
:10102000EF93FF9380910C0290910D02A0910E021C
:10103000B0910F02892B8A2B8B2BD1F19091070253
:10104000E0910802F09109028081892780838091D4
:101050000C0290910D02A0910E02B0910F02181691
:1010600019061A061B069CF480910C0290910D0241
:10107000A0910E02B0910F020197A109B1098093CE
:101080000C0290930D02A0930E02B0930F02FF91F9
:10109000EF91BF91AF919F918F917F916F915F91F0
:1010A0004F913F912F910F900FBE0F901F90189569
:1010B00080910001EBE9F1E0E4919FEF9093000152
:1010C000E13051F030F0E23069F060E00E947E02E1
:1010D000DECF10926E00F9CF90916F009D7F9093BC
:1010E0006F00F3CF909170009D7F9093700091E01E
:1010F0009093B0009091B100987F94609093B1006C
:101100001092B300E2CF1F920F920FB60F921124EC
:101110002F933F934F935F936F937F938F939F93FF
:10112000AF93BF93EF93FF9388E692E00E949D01F7
:10113000FF91EF91BF91AF919F918F917F916F91AF
:101140005F914F913F912F910F900FBE0F901F9085
:1011500018951F920F920FB60F9211242F938F9311
:101160009F93EF93FF93E0917802F0917902808151
:10117000E0917E02F0917F0282FD1BC09081809100
:1011800081028F5F8F7320918202821741F0E0917C
:101190008102F0E0E859FD4F958F80938102FF9125
:1011A000EF919F918F912F910F900FBE0F901F90F5
:1011B00018958081F4CF1F920F920FB60F921124D1
:1011C0002F933F938F939F93AF93BF938091F101A0
:1011D0009091F201A091F301B091F4013091E401FA
:1011E00023E0230F2D3758F50196A11DB11D209343
:1011F000E4018093F1019093F201A093F301B09385
:10120000F4018091E5019091E601A091E701B09190
:10121000E8010196A11DB11D8093E5019093E601BF
:10122000A093E701B093E801BF91AF919F918F9197
:101230003F912F910F900FBE0F901F90189526E8A9
:10124000230F0296A11DB11DD2CF1F920F920FB690
:101250000F9211242F933F934F935F936F937F933C
:101260008F939F93AF93BF93EF93FF938091B900B8
:10127000887F803609F44AC0F0F5883209F4A7C0A7
:1012800018F5803109F49BC0B8F4882309F4F9C03B
:10129000883009F494C0FF91EF91BF91AF919F9175
:1012A0008F917F916F915F914F913F912F910F900F
:1012B0000FBE0F901F901895883109F488C08032B6
:1012C00051F780933C0214C0803409F49DC040F46F
:1012D0008033B9F38833F9F680933C0285ECB0C0D3
:1012E000803509F485C0883509F496C0883499F6AC
:1012F0000E94C907D0CF883909F48CC038F58837E7
:1013000029F050F4883611F0803729F683E0809375
:101310003E021092E30157C0883809F47BC080393F
:1013200019F0803809F0B7CF8091E301803208F0DE
:1013300071C0E091E30181E08E0F8093E301809121
:10134000BB00F0E0ED53FE4F80833DC0803B39F0A1
:10135000E0F4803A09F479C0883A09F09CCF84E03F
:1013600080933E021092C2011092C101E091E90106
:10137000F091EA0109958091C10181110FC081E0CE
:101380008093C1011092A10109C0803C09F4A6CF4D
:10139000883C09F4A3CF883B09F07DCFE091C201DE
:1013A00081E08E0F8093C201F0E0EF55FE4F808107
:1013B0008093BB009091C2018091C10129C08091AE
:1013C00019028093BB0085EC8093BC0064CF9091A0
:1013D0003B0280913A02981758F5E0913B0281E078
:1013E0008E0F80933B02F0E0E65EFD4F8081E9CFF7
:1013F000E0913B0281E08E0F80933B028091BB0025
:10140000F0E0E65EFD4F808390913B0280913A02CE
:101410009817C8F285E8D8CFE0913B0281E08E0FA3
:1014200080933B028091BB00F0E0E65EFD4F80833D
:1014300080913D0281115CCF81E08093180284EAA3
:101440008093BC0010923E0226CF85EC8093BC00B6
:1014500010923E028091E301803230F4E091E3018A
:10146000F0E0ED53FE4F10826091E30170E0E091F7
:10147000EB01F091EC0183EC91E009951092E3010E
:101480000ACF10923C0234CFE8E6F2E013821282D7
:1014900088EE93E0A0E0B0E084839583A683B783D1
:1014A0002FE131E03183208325EC30E0358724873C
:1014B00024EC30E03787268720EC30E0318B208B1E
:1014C00021EC30E0338B228B22EC30E0358B248B07
:1014D00026EC30E0378B268B118E128E138E148EF5
:1014E000E5E0F3E01382128284839583A683B783B9
:1014F00081E391E0918380830895789484B582603C
:1015000084BD84B5816084BD85B5826085BD85B5A7
:10151000816085BD80916E00816080936E00109225
:1015200081008091810082608093810080918100A0
:101530008160809381008091800081608093800031
:101540008091B10084608093B1008091B00081608F
:101550008093B00080917A00846080937A008091BB
:101560007A00826080937A0080917A008160809313
:101570007A0080917A00806880937A001092C1008E
:10158000E0917802F091790282E08083E091740228
:10159000F09175021082E0917602F09177028FEC63
:1015A000808310928002E0917C02F0917D0286E0BF
:1015B0008083E0917A02F0917B0280818061808358
:1015C000E0917A02F0917B02808188608083E091D3
:1015D0007A02F0917B02808180688083E0917A02B8
:1015E000F0917B0280818F7D808389E291E00E946F
:1015F000740688EF90E00E9474068CE990E00E94E7
:10160000740661E084E00E94AC0261E083E00E9425
:10161000AC0261E085E00E94AC0262E089E00E94D9
:10162000AC0262E088E00E94AC0262E087E00E94C7
:10163000AC0262E086E00E94AC021092EE011092D1
:10164000ED010E943C0489EF90E09093EA018093C1
:10165000E9018AEF90E09093EC018093EB0111E0B7
:10166000C1E0C093440210936602109245021092AA
:1016700067020E947B048111FEC162E471E088E68A
:1016800092E00E946506103130F460E771E088E670
:1016900092E00E946506412F50E070E060E020E19A
:1016A00088E692E00E94870661E671E088E692E0B3
:1016B0000E9465066FE371E088E692E00E9465068D
:1016C0008CE090E00E94740DEC011B821A8283E191
:1016D00091E0998388831C8380E1888782E08987F1
:1016E0001A8618E01B87D093F001C093EF01109287
:1016F000EE011092ED0110924502109267020E94D5
:101700003C0489EF90E09093EA018093E9018AEF2D
:1017100090E09093EC018093EB011D8289858230EB
:1017200008F01D839A85992329F0813019F48D8161
:1017300084608D8362E370E080E090E00E94E303C8
:101740006B85CE010E94E80568EE73E080E090E0D2
:101750000E94E30360E3CE010E94FF050BE416E460
:10176000C8010197F1F760E3CE010E94FF05C801AF
:101770000197F1F760E3CE010E94FF0583E592E057
:101780000197F1F760E2CE010E94FF056D81606272
:1017900040E0CE010E94180684E08E8340E06CE0B9
:1017A000CE010E94180640E061E0CE010E941806BA
:1017B0000BE31FE1C8010197F1F782E08F8340E05E
:1017C00066E0CE010E94180640E062E0CE010E9471
:1017D0001806C8010197F1F788E08B8760E0CE0119
:1017E0000E94E80540E060E0CE010E94350665E613
:1017F00071E0CE010E946506C091EF01D091F00129
:1018000041E060E0CE010E94350662E771E0CE0162
:101810000E946506C0E0D0E086E00E945502892B58
:10182000B9F460E084E00E947E0261E083E00E94FF
:101830007E0280910602811104C08091050281110F
:1018400002C00E94DD021092060281E08093050230
:1018500089E00E945502892BB9F461E084E00E947E
:101860007E0260E083E00E947E0280910502811189
:1018700004C080910602811102C00E94DD0281E055
:10188000809306021092050288E00E945502892B7F
:10189000A9F460E084E00E947E0260E083E00E94A0
:1018A0007E0280910502811103C0809106028111A0
:1018B0000E94DD02109206021092050287E00E944B
:1018C0005502892B51F560E084E00E947E0260E0C1
:1018D00083E00E947E021092040210920302109292
:1018E000020210920102109200021092FF01109267
:1018F000FE011092FD011092FC011092FB0110926A
:10190000FA011092F9010E946B070E940D070E94D4
:10191000DD0210920602109205022FB7F894809112
:10192000F1019091F201A091F301B091F4012FBF68
:101930004091F5015091F6016091F7017091F80125
:10194000841B950BA60BB70B883E9340A105B105F0
:1019500028F4452B462B472B09F082C02FB7F8946B
:101960008091F1019091F201A091F301B091F40105
:101970002FBF8093F5019093F601A093F701B093E8
:10198000F8018091030290910402409724F0109294
:1019900006020E946B0780910602882351F10E9483
:1019A0006B0780910302909104028B33910509F03B
:1019B00067C010920402109203028091010290917C
:1019C000020201969093020280930102809101022B
:1019D00090910202CC9769F41092020210920102D7
:1019E0008091FF01909100020196909300028093F4
:1019F000FF018091FD019091FE01409724F010922B
:101A000005020E940D0780910502882349F10E947A
:101A10000D078091FD019091FE018B339105B1F589
:101A20001092FE011092FD018091FB019091FC014A
:101A300001969093FC018093FB018091FB019091B2
:101A4000FC01CC9769F41092FC011092FB0180918B
:101A5000F9019091FA0101969093FA018093F901AE
:101A6000209709F4D9CE0E948901882309F4D4CEA5
:101A70000E940000D1CE1F5F1F3709F0F2CD20CEAB
:101A800001969093040280930302A0CF0196909355
:101A9000FE018093FD01D1CFA1E21A2EAA1BBB1B30
:101AA000FD010DC0AA1FBB1FEE1FFF1FA217B3072A
:101AB000E407F50720F0A21BB30BE40BF50B661F40
:101AC000771F881F991F1A9469F760957095809504
:101AD00090959B01AC01BD01CF010895EE0FFF1F52
:101AE0000590F491E02D09940F931F93CF93DF930A
:101AF0008230910510F482E090E0E0911303F091C0
:101B0000140330E020E0B0E0A0E0309799F4211514
:101B1000310509F44AC0281B390B24303105D8F5AA
:101B20008A819B816115710589F1FB019383828311
:101B3000FE0111C04081518102811381481759076C
:101B4000E0F04817590799F4109761F012960C933A
:101B5000129713961C933296CF01DF91CF911F916C
:101B60000F9108950093130310931403F4CF2115DC
:101B7000310551F04217530738F0A901DB019A01F2
:101B8000BD01DF01F801C1CFEF01F9CF909314033C
:101B900080931303CDCFFE01E20FF31F8193919346
:101BA0002250310939832883D7CF209111033091F6
:101BB0001203232B41F4209103013091040130934F
:101BC000120320931103209101013091020121158C
:101BD000310541F42DB73EB7409105015091060102
:101BE000241B350BE0911103F0911203E217F30768
:101BF000A0F42E1B3F0B2817390778F0AC014E5F7D
:101C00005F4F2417350748F04E0F5F1F50931203A4
:101C100040931103819391939FCFF0E0E0E09CCF3C
:101C2000CF93DF930097E9F0FC0132971382128281
:101C3000A0911303B0911403ED0130E020E0109760
:101C4000A1F420813181820F931F209111033091E3
:101C500012032817390709F061C0F0931203E093CB
:101C60001103DF91CF910895EA01CE17DF07E8F560
:101C70004A815B819E0141155105B1F7E901FB8362
:101C8000EA8349915991C40FD51FEC17FD0761F400
:101C9000808191810296840F951FE9019983888341
:101CA000828193819B838A83F0E0E0E012968D919C
:101CB0009C9113970097B9F52D913C911197CD0107
:101CC0000296820F931F209111033091120328175F
:101CD000390739F6309751F5109214031092130317
:101CE000B0931203A0931103BCCFD383C28340816E
:101CF0005181840F951FC817D90761F44E5F5F4F5C
:101D000088819981480F591F518340838A819B8123
:101D1000938382832115310509F0B0CFF09314032A
:101D2000E09313039ECFFD01DC01C0CF138212822A
:061D3000D7CFF894FFCFAD
:101D3600FF0000150380000000400014005400005E
:101D46000000002F061F01FC05FB0500000000BF78
:101D5600011F014C010C027D015B016F01000000B7
:101D660000B9058C05FC0562058505720563050D40
:101D76000A004932432064657669636520666F759B
:101D86006E642061742061646472657373203078B8
:101D960000202021005245442030303A30303A307D
:101DA60030004752452030303A30303A303000006B
:00000001FF
