:100000000C9442010C946A010C946A010C946A01EC
:100010000C946A010C946A010C946A010C946A01B4
:100020000C946A010C946A010C946A010C946A01A4
:100030000C946A010C946A010C946A010C946A0194
:100040000C94C8070C946A010C9496070C947007E2
:100050000C946A010C946A010C946A010C946A0174
:100060000C9412080C946A0130003A0030003A00F7
:10007000300030003A0030003A003000000000004C
:10008000240027002A0000000000250028002B0083
:1000900000000000230026002900040404040404D6
:1000A0000404020202020202030303030303010227
:1000B00004081020408001020408102001020408F6
:1000C00010200000000800020100000304070000E7
:1000D00000000000000044454D4F202D2053686172
:1000E0007265776172650053746172742068727909
:1000F0000044454D4F202D20536861726577617231
:1001000065005374617274206872790044454D4FE4
:10011000202D205368617265776172650044454DFA
:100120004F202D204E45554C4F5A454E45004445D5
:100130004D4F202D205368617265776172650053C1
:1001400074617274206872790044454D4F202D20EF
:1001500053686172657761726500207300556B6C3E
:100160006164616D3A200020202020202020202082
:100170000042657A206F626D65647A656E69610020
:1001800043617320687279207620686F643A20009A
:10019000202020202020202020004B6F6C6B6F201F
:1001A00073656B756E643A20004752452030303AD3
:1001B00030303A3030005245442030303A30303A16
:1001C00030300044454D4F202D20536861726577D3
:1001D0006172650043617320687279202868290084
:1001E00044454D4F202D20536861726577617265DB
:1001F00000436173206F62736164656E69612028DA
:1002000073290044454D4F202D2053686172657756
:1002100061726500537461727420687279002020E5
:10022000202020202020202020200042657A206FDE
:10023000626D65647A656E6961002020202020204F
:1002400020202000526F746174696F6E20746F20DB
:100250006C656674203C3D0020202020202020205A
:10026000200020202020202020202000526F7461B8
:1002700074696F6E20746F207269676874203D3EE8
:100280000000310911241FBECFEFD8E0DEBFCDBF83
:1002900011E0A0E0B1E0ECE1FFE102C005900D92B9
:1002A000A036B107D9F723E0A0E6B1E001C01D9266
:1002B000A430B207E1F711E0C2E4D1E004C0219715
:1002C000FE010E94860FC134D107C9F70E947B0945
:1002D0000C948C0F0C94000008950895EF92FF92F7
:1002E0000F931F93CF93DF938C017B01D0E0C0E08D
:1002F000F701EC0FFD1F6491662361F0D801ED91C9
:10030000FC910190F081E02DC8010995892B11F035
:100310002196EECFCE01DF91CF911F910F91FF90EB
:10032000EF900895AF92BF92CF92DF92EF92FF923B
:100330000F931F93CF93DF936C017B018B01040F0D
:10034000151FEB015E01AE18BF08C017D10759F0A9
:100350006991D601ED91FC910190F081E02DC601EB
:100360000995892B79F7C501DF91CF911F910F91E5
:10037000FF90EF90DF90CF90BF90AF900895FC0179
:10038000538D448D252F30E0842F90E0821B930BFA
:10039000541710F0CF96089501970895FC01918DA0
:1003A000828D981761F0A28DAE0FBF2FB11D5D96A3
:1003B0008C91928D9F5F9F73928F90E008958FEF45
:1003C0009FEF0895FC01918D828D981731F0828DF9
:1003D000E80FF11D858D90E008958FEF9FEF089550
:1003E000FC01918D228D892F90E0805C9F4F821BB4
:1003F00091098F73992708958FE492E00E94F0018C
:1004000021E0892B09F420E0822F089580E090E01C
:10041000892B29F00E94FC0181110C9400000895A1
:10042000FC01A48DA80FB92FB11DA35ABF4F2C9169
:10043000848D90E001968F739927848FA689B78960
:100440002C93A089B1898C91837080648C93938D57
:10045000848D981306C00288F389E02D80818F7DFA
:1004600080830895EF92FF920F931F93CF93DF93B2
:10047000EC0181E0888F9B8D8C8D98131AC0E889E0
:10048000F989808185FF15C09FB7F894EE89FF89AF
:100490006083E889F98980818370806480839FBF4D
:1004A00081E090E0DF91CF911F910F91FF90EF904D
:1004B0000895F62E0B8D10E00F5F1F4F0F7311275D
:1004C000E02E8C8D8E110CC00FB607FCFACFE88998
:1004D000F989808185FFF5CFCE010E941002F1CF0E
:1004E000EB8DEC0FFD2FF11DE35AFF4FF0829FB70C
:1004F000F8940B8FEA89FB8980818062CFCFCF93FC
:10050000DF93EC01888D8823B9F0AA89BB89E8893B
:10051000F9898C9185FD03C0808186FD0DC00FB6E1
:1005200007FCF7CF8C9185FFF2CF808185FFEDCF5F
:10053000CE010E941002E9CFDF91CF910895833060
:1005400081F028F4813099F08230A9F00895873045
:10055000A9F08830C9F08430B1F4809180008F7D9B
:1005600003C0809180008F7780938000089584B5C8
:100570008F7784BD089584B58F7DFBCF8091B000C7
:100580008F778093B00008958091B0008F7DF9CF70
:10059000CF93DF93282F30E0F901EE53FF4F849182
:1005A000F901E255FF4FD491F901E656FF4FC4918E
:1005B000CC23A1F081110E949F02EC2FF0E0EE0FFE
:1005C000FF1FE057FF4FA591B491EC91ED2381E01F
:1005D00090E009F480E0DF91CF91089580E090E011
:1005E000FACF1F93CF93DF93282F30E0F901EE531A
:1005F000FF4F8491F901E255FF4FD491F901E6567E
:10060000FF4FC491CC23A9F0162F81110E949F02A5
:10061000EC2FF0E0EE0FFF1FEA57FF4FA591B491CA
:100620008FB7F894EC91111108C0D095DE23DC93BC
:100630008FBFDF91CF911F910895DE2BF8CFCF931D
:10064000DF9390E0FC01E255FF4F249186569F4FC7
:10065000FC0184918823C9F090E0880F991FFC0168
:10066000E458FF4FA591B491FC01EA57FF4FC591A3
:10067000D49161110DC09FB7F8948C91209582237D
:100680008C938881282328839FBFDF91CF91089581
:10069000623051F49FB7F8943C91822F8095832368
:1006A0008C93E8812E2BEFCF8FB7F894EC912E2B03
:1006B0002C938FBFEACF3FB7F8948091220290919C
:1006C0002302A0912402B091250226B5A89B05C063
:1006D0002F3F19F00196A11DB11D3FBFBA2FA92FC1
:1006E000982F8827BC01CD01620F711D811D911DBE
:1006F00042E0660F771F881F991F4A95D1F708952A
:100700008F929F92AF92BF92CF92DF92EF92FF9221
:100710004B015C010E945B036B017C010E945B0347
:100720006C197D098E099F09683E7340810591050A
:10073000A8F321E0821A9108A108B10888EEC80E3A
:1007400083E0D81EE11CF11C81149104A104B104C2
:1007500029F7FF90EF90DF90CF90BF90AF909F90E0
:100760008F9008952FB7F89460911E0270911F0228
:1007700080912002909121022FBF089585ED8093F2
:10078000BC008091BC0084FDFCCF10922C02089527
:100790002091D601260F3327331F21323105ECF487
:1007A00020912C02FC0190E080E0243069F082E08E
:1007B0000895A091D6012191AC014A545E4FA40F37
:1007C000B52FB11D2C930196861798F38091D60111
:1007D000680F6093D60180E0089581E00895089540
:1007E000E091300280912F02E81730F4F0E0EA56F1
:1007F000FE4F808190E008958FEF9FEF08959091D4
:10080000300280912F022FEF3FEF981748F4E92F25
:10081000F0E0EA56FE4F208130E09F5F9093300277
:10082000C901089580912F0290913002891B990B84
:100830000895CF92DF92EF92FF920F931F93CF9381
:10084000DF937C01CB018A0120919501222389F05D
:10085000EB016B01C40ED51ECC15DD0569F0699165
:10086000D701ED91FC910190F081E02DC701099530
:10087000F3CF642F0E94C803C801DF91CF911F916D
:100880000F91FF90EF90DF90CF900895CF93DF937B
:100890001F92CDB7DEB76983209195012223F9F02D
:1008A00020912D02203258F021E030E0FC0133830A
:1008B000228390E080E00F90DF91CF9108958091A6
:1008C0002E02E82FF0E0EB58FE4F998190838F5F66
:1008D00080932E0280932D0281E090E0ECCF61E0C6
:1008E000CE0101960E94C803F7CFCF93FC01C481CB
:1008F00021E020939501C093740110922E02109272
:100900002D028385682B8CEE92E00E944604909124
:100910002D02913208F03FC080912C028111FCCF52
:1009200082E080932C0281E080932B028FEF8093F2
:10093000F90110921B0290931A02A5E7B1E0EAEFC9
:10094000F1E080E098132FC010921C0280911C02ED
:10095000CC0FC82BC0931C0280912A02813039F53C
:1009600010922A0280911C028093BB008091BC00EF
:1009700083FDF8CF85EC8093BC0080912C028230FF
:10098000E1F38091F9018F3F31F08091F9018032DC
:1009900011F08091F90110922E0210922D02109206
:1009A0009501CF9108952D9121938F5FCBCF85EE47
:1009B000E2CF089590E080E008951F93CF93DF93F6
:1009C000EC0118818AE090E00E94E80E181729F0E7
:1009D000612F8AE090E00E94F00E19818BE090E098
:1009E0000E94E80E181729F0612F8BE090E00E941A
:1009F000F00ECE01DF91CF911F9108950F931F93B9
:100A0000CF93DF9300D0CDB7DEB7082F880F110B3F
:100A1000C8010E94E80E8983C80101960E94E80E71
:100A20008A8389819A810F900F90DF91CF911F91D6
:100A30000F9108950F931F93CF938C01C62F0E949F
:100A400075046C2F6460C8010E9475046C2F6B7F65
:100A5000C8010E94750483EC90E00197F1F7CF91F3
:100A60001F910F9108950F931F93CF93DF938C01E4
:100A7000D62FC42F607F642B0E941A0580E1D89F77
:100A8000B00111246C2BC801DF91CF911F910F9100
:100A90000C941A05CF93DF93CDB7DEB728970FB626
:100AA000F894DEBF0FBECDBF98E0E4E0F1E0DE01D8
:100AB000119601900D929A95E1F790910103961786
:100AC00008F46FEF262F30E0220F331F41E050E093
:100AD0004C0F5D1F240F351FF9016081680F60689E
:100AE00040E088EF92E028960FB6F894DEBF0FBE84
:100AF000CDBFDF91CF910C94330540E061E088EFEA
:100B000092E00E9433058BE39FE10197F1F708958E
:100B100041E00E94330581E090E00895FB010190DF
:100B20000020E9F73197AF01461B570BDC01ED912F
:100B3000FC910280F381E02D09948F929F92AF92F5
:100B4000BF92CF92DF92EF92FF92CF93DF93CDB718
:100B5000DEB7A1970FB6F894DEBF0FBECDBF6C0114
:100B6000990FEE08FF08F7FE40C041E06DE288EF04
:100B700092E00E94330522273327A9012C193D0951
:100B80004E095F0919A2CE0181967C019AE0892E57
:100B9000912CA12CB12CCA01B901A50194010E948C
:100BA000640F605DF70162937F01211531054105F6
:100BB000510589F790E080E0309729F0BF0188EF78
:100BC00092E00E948E050196A1960FB6F894DEBFC2
:100BD0000FBECDBFDF91CF91FF90EF90DF90CF9010
:100BE000BF90AF909F908F900895A701960119A292
:100BF000CE0181967C018AE0882E912CA12CB12C0B
:100C0000CA01B901A50194010E94640F605DF7015A
:100C100062937F01211531054105510589F790E067
:100C200080E0309789F2BF0188EF92E00E948E0544
:100C3000CBCF61E084E00E944A05809172019091DF
:100C400073010A9734F46AE770E088EF92E00E943B
:100C50006E0180917201909173010E949D0568E779
:100C600070E088EF92E00E946E0180917001909197
:100C700071010A9734F466E770E088EF92E00E9411
:100C80006E0180917001909171010E949D0564E751
:100C900070E088EF92E00E946E0180916E01909169
:100CA0006F010A9734F462E770E088EF92E00E94E7
:100CB0006E0180916E0190916F010C949D0560E032
:100CC00084E00E944A0580916C0190916D010A9721
:100CD00034F460E770E088EF92E00E946E0180914A
:100CE0006C0190916D010E949D056EE670E088EFA9
:100CF00092E00E946E0180916A0190916B010A97C7
:100D000034F46CE670E088EF92E00E946E0180910E
:100D10006A0190916B010E949D056AE670E088EF80
:100D200092E00E946E0180916801909169010A979A
:100D300034F468E670E088EF92E00E946E018091E2
:100D40006801909169010C949D050F931F930E9477
:100D5000B203009164011091650120916601309108
:100D60006701601B710B820B930B64367105810563
:100D7000910528F4012B022B032B09F096C08091DA
:100D80006A0190916B01181619063CF08091700170
:100D900090917101181619064CF4109242021092AB
:100DA00041020E945F060E941906FFCF8091420215
:100DB0008823B9F10E945F068091600190916101E2
:100DC0008930910509F07AC010926101109260019A
:100DD000809168019091690120916A0130916B01C5
:100DE0008B33910509F064C010926901109268017B
:100DF0002F5F3F4F30936B0120936A0180916A010E
:100E000090916B01CC9769F410926B0110926A017A
:100E100080916C0190916D01019690936D0180938A
:100E20006C01809141028823B1F10E9419068091E2
:100E30006201909163018930910509F04BC01092D5
:100E400063011092620180916E0190916F01209177
:100E50007001309171018B339105B1F510926F01E2
:100E600010926E012F5F3F4F3093710120937001FC
:100E70008091700190917101CC9769F41092710189
:100E8000109270018091720190917301019690937C
:100E90007301809372010E94B203609364017093A6
:100EA000650180936601909367011F910F910895EA
:100EB00001969093690180936801A0CF0196909369
:100EC000610180936001ADCF019690936F01809393
:100ED0006E01CECF01969093630180936201DBCFC8
:100EE0001F920F920FB60F9211242F933F934F939F
:100EF0005F936F937F938F939F93AF93BF93EF9382
:100F0000FF938FE492E00E941002FF91EF91BF9156
:100F1000AF919F918F917F916F915F914F913F9191
:100F20002F910F900FBE0F901F9018951F920F9248
:100F30000FB60F9211242F938F939F93EF93FF93EC
:100F4000E0915F02F09160028081E0916502F09192
:100F5000660282FD1BC09081809168028F5F8F7353
:100F600020916902821741F0E0916802F0E0E15BB4
:100F7000FD4F958F80936802FF91EF919F918F9124
:100F80002F910F900FBE0F901F9018958081F4CF76
:100F90001F920F920FB60F9211242F933F938F93AE
:100FA0009F93AF93BF9380911E0290911F02A091D7
:100FB0002002B091210230911D0223E0230F2D3732
:100FC00058F50196A11DB11D20931D0280931E02AC
:100FD00090931F02A0932002B093210280912202DD
:100FE00090912302A0912402B09125020196A11DA7
:100FF000B11D8093220290932302A0932402B09308
:101000002502BF91AF919F918F913F912F910F90AA
:101010000FBE0F901F90189526E8230F0296A11D72
:10102000B11DD2CF1F920F920FB60F9211242F93A2
:101030003F934F935F936F937F938F939F93AF9360
:10104000BF93EF93FF938091B900887F803609F4B6
:101050004AC0F0F5883209F4A7C018F5803109F4C8
:101060009BC0B8F4882309F4F9C0883009F494C00F
:10107000FF91EF91BF91AF919F918F917F916F9170
:101080005F914F913F912F910F900FBE0F901F9046
:101090001895883109F488C0803251F78093F9019E
:1010A00014C0803409F49DC040F48033B9F3883310
:1010B000F9F68093F90185ECB0C0803509F485C05C
:1010C000883509F496C0883499F60E94BE03D0CFC3
:1010D000883909F48CC038F5883729F050F48836FF
:1010E00011F0803729F683E080932C021092F801EA
:1010F00057C0883809F47BC0803919F0803809F06E
:10110000B7CF8091F801803208F071C0E091F8010A
:1011100081E08E0F8093F8018091BB00F0E0E852EF
:10112000FE4F80833DC0803B39F0E0F4803A09F403
:1011300079C0883A09F09CCF84E080932C02109209
:10114000D7011092D601E0912802F0912902099569
:101150008091D60181110FC081E08093D601109259
:10116000B60109C0803C09F4A6CF883C09F4A3CF9E
:10117000883B09F07DCFE091D70181E08E0F80930D
:10118000D701F0E0EA54FE4F80818093BB0090913C
:10119000D7018091D60129C080911C028093BB00A9
:1011A00085EC8093BC0064CF90911B0280911A0261
:1011B000981758F5E0911B0281E08E0F80931B0277
:1011C000F0E0E650FE4F8081E9CFE0911B0281E024
:1011D0008E0F80931B028091BB00F0E0E650FE4F23
:1011E000808390911B0280911A029817C8F285E8BB
:1011F000D8CFE0911B0281E08E0F80931B0280917B
:10120000BB00F0E0E650FE4F808380912B028111FD
:101210005CCF81E080932A0284EA8093BC00109224
:101220002C0226CF85EC8093BC0010922C0280917A
:10123000F801803230F4E091F801F0E0E852FE4F1E
:1012400010826091F80170E0E0912602F09127028F
:1012500088ED91E009951092F8010ACF1092F901FA
:1012600034CFEFE4F2E01382128288EE93E0A0E044
:10127000B0E084839583A683B78320E131E0318396
:10128000208325EC30E03587248724EC30E0378755
:10129000268720EC30E0318B208B21EC30E0338B43
:1012A000228B22EC30E0358B248B26EC30E0378B20
:1012B000268B118E128E138E148EECEEF2E01382BA
:1012C000128284839583A683B78382E291E091831F
:1012D0008083E8EFF2E01382128284E391E091834D
:1012E000808387E2848380E1808782E08187128621
:1012F00088E083870895CF93DF9300D000D0CDB7E7
:10130000DEB7789484B5826084BD84B5816084BD85
:1013100085B5826085BD85B5816085BD80916E0093
:10132000816080936E0010928100809181008260C4
:101330008093810080918100816080938100809101
:1013400080008160809380008091B10084608093F0
:10135000B1008091B00081608093B00080917A00EC
:10136000846080937A0080917A00826080937A0012
:1013700080917A00816080937A0080917A00806801
:1013800080937A001092C1001092300210922F02C6
:1013900010922E0210922D0210922C0281E0809366
:1013A0002B0210922A0261E082E10E94F10261E0C8
:1013B00083E10E94F1028091B9008E7F8093B90091
:1013C0008091B9008D7F8093B90088E48093B80044
:1013D00085E48093BC008CE691E090932902809391
:1013E00028028DE691E090932702809326021092C6
:1013F000FD0280910103823018F098E09093FD0285
:1014000090910203992339F0813029F48091FD02F3
:1014100084608093FD0262E370E080E090E00E94CF
:1014200080036091030388EF92E00E94750468EEE8
:1014300073E080E090E00E94800360E388EF92E038
:101440000E941A050BE416E4C8010197F1F760E366
:1014500088EF92E00E941A05C8010197F1F760E356
:1014600088EF92E00E941A0583E592E00197F1F778
:1014700060E288EF92E00E941A056091FD026062CE
:1014800040E088EF92E00E94330584E08093FE0202
:1014900040E06CE088EF92E00E9433050E947D05F9
:1014A00082E08093FF0240E066E088EF92E00E94D5
:1014B000330540E062E088EF92E00E9433058BE361
:1014C0009FE10197F1F788E08093030360E088EFE4
:1014D00092E00E9475040E947D0560E080E00E9419
:1014E0004A056CE371E088EF92E00E948E050EE100
:1014F00010E061E080E00E944A050A30110534F4F2
:101500006DE471E088EF92E00E948E05C8010E94B0
:101510009D056FE471E088EF92E00E948E0568EE11
:1015200073E080E090E00E9480030150110909F708
:101530000E947D0560E080E00E944A0567EE70E051
:1015400088EF92E00E946E0161E080E00E944A050F
:1015500066ED70E088EF92E00E946E0162E085E047
:101560000E941F0361E086E00E941F0361E087E0A4
:101570000E941F0362E088E00E941F0362E089E08E
:101580000E941F03E0915F02F091600282E080837D
:10159000E0915B02F0915C021082E0915D02F091BB
:1015A0005E0280E1808310926702E0916302F09115
:1015B000640286E08083E0916102F09162028081A2
:1015C00080618083E0916102F09162028081886095
:1015D0008083E0916102F091620280818068808363
:1015E000E0916102F091620280818F7D808360E0F2
:1015F00083E00E941F0360E084E00E941F0362E01A
:1016000085E00E941F0383E00E94C80290933A0283
:10161000809339028AE00E94FE04BC01990F880B76
:10162000990B0E94000F9B01AC010E943B0F882385
:1016300041F085E090E09C838B83CE0103960E946D
:10164000DD0484E60E94FE04909336028093350206
:101650008AE00E94FE04909344028093430288EE45
:10166000E82E83E0F82E90E0C92E90E0D92E23E0FA
:10167000A22EB12C32E0832E912C80914D029091BC
:101680004E02039709F037C10E94A50688E00E9428
:10169000C8028C0190934C0280934B0289E00E9417
:1016A000C80290934A0280934902012B09F060C05E
:1016B000019709F05DC00E94B203609345027093E8
:1016C000460280934702909348028091490290918C
:1016D0004A0220914B0230914C02232B09F048C062
:1016E000019709F045C088E00E94C80290934C021F
:1016F00080934B0289E00E94C80290934A02809333
:1017000049020E94A5060E94B20300914502109171
:1017100046022091470230914802AB01BC01401BB8
:10172000510B620B730B20914302309144022E9DAA
:10173000C0012F9D900D3E9D900D1124092E000C8F
:10174000AA0BBB0B481759076A077B0708F4BDCFE4
:101750000E94A50660E086E00E94F10261E087E059
:101760000E94F10281E08093420210924102ADCFCB
:101770008091490290914A02892B09F064C08091BE
:101780004B0290914C02019709F05DC00E94B20398
:1017900060933D0270933E0280933F02909340021B
:1017A00080914B0290914C022091490230914A0263
:1017B000232B09F048C0019709F045C088E00E943A
:1017C000C80290934C0280934B0289E00E94C802A9
:1017D00090934A02809349020E94A5060E94B20398
:1017E00000913D0210913E0220913F023091400253
:1017F000AB01BC01401B510B620B730B20914302E8
:10180000309144022E9DC0012F9D900D3E9D900D64
:101810001124092E000CAA0BBB0B481759076A07A5
:101820007B0708F4BDCF0E94A50661E086E00E9418
:10183000F10260E087E00E94F1021092420281E032
:1018400080934102ADCF80914B0290914C02892B45
:1018500009F027C18091490290914A02892B09F031
:1018600020C10E94B20360934502709346028093A8
:1018700047029093480280914B0290914C02892B31
:1018800009F00FC18091490290914A02892B09F019
:1018900008C188E00E94C80290934C0280934B02DA
:1018A00089E00E94C80290934A02809349020E94F4
:1018B000A5060E94B20300914502109146022091B4
:1018C000470230914802601B710B820B930B62330D
:1018D00071058105910578F20E94A50660E086E019
:1018E0000E94F10260E087E00E94F1021092420241
:1018F00010924102C0CF83E00E94C8028C019093F5
:101900003C0280933B028091390290913A02081781
:10191000190709F455C084E00E94C8020817190786
:1019200009F4FDC06CE672E08FE492E00E946E0163
:101930006CE571E08FE492E00E948E0580914D028B
:1019400090914E02009709F0B8C0809137029091B3
:1019500038020196833091054CF5909338028093BC
:10196000370280913702909138028130910509F455
:1019700039C18230910509F448C1892B09F50E94CB
:101980007D0560E080E00E944A0564E172E088EF36
:1019900092E00E946E0161E080E00E944A0563E0EF
:1019A00072E088EF92E00E946E010AC090923802C5
:1019B0008092370280914D0290914E02892B89F2DC
:1019C00080913B0290913C0290933A0280933902BD
:1019D00085E00E94C8028C01809102019091030170
:1019E0000817190751F00E94B203609331027093F7
:1019F000320280933302909334020E94B2034090EB
:101A000031025090320260903302709034026419B7
:101A10007509860997096333710581059105E8F118
:101A2000809100019091010108171907B1F11093FD
:101A30000101009300010130110579F580914D02FB
:101A400090914E02009709F032C180913702909137
:101A500038028130910509F4EBC08230910509F418
:101A600004C1892BD1F4B0924E02A0924D020E9483
:101A70007D0560E080E00E944A0566EB71E088EF3A
:101A800092E00E946E0161E080E00E944A0569EAEE
:101A900071E088EF92E00E946E01109303010093C1
:101AA0000201C114D10409F4E8CD0E94FC0188238D
:101AB00009F4E3CD0E940000E0CD81309105C1F42E
:101AC00000914302109144020F5F1F4F1093440294
:101AD0000093430261E080E00E944A05C8010E9431
:101AE0009D0562E672E088EF92E00E946E0162CF8F
:101AF000029709F065CF00913502109136020F5F11
:101B00001F4F109336020093350261E080E00E947F
:101B10004A05C8010E949D0568E572E0E4CF64E4CF
:101B200072E08FE492E00E946E016CE571E08FE458
:101B300092E00E948E0580914D0290914E02009796
:101B400061F48091370290913802019797FF05CF99
:101B500010923802109237022DCF81309105E9F4AE
:101B60008091430290914402019797FD11C0909398
:101B700044028093430261E080E00E944A05809124
:101B80004302909144020E949D056AE372E0ABCF4C
:101B90001092440210924302EECF029709F010CF48
:101BA0008091350290913602019797FD16C090936F
:101BB00036028093350261E080E00E944A05809100
:101BC0003502909136026BE272E0009709F48BCFF8
:101BD0000E949D056EE172E086CF1092360210924F
:101BE0003502E9CF0E947D0560E080E00E944A0551
:101BF00061EF71E088EF92E00E946E0161E080E0A9
:101C00000E944A0560EE71E0CCCE0E947D0560E046
:101C100080E00E944A0564ED71E088EF92E00E9446
:101C20006E0161E080E00E944A0563EC71E0B9CE8C
:101C300010934E0200934D020E947D0560E080E00B
:101C40000E944A056AE971E088EF92E00E946E0105
:101C500061E080E00E944A05809143029091440235
:101C60000E949D0560E971E014CF90934E0280932D
:101C70004D020E947D0560E080E00E944A0560E818
:101C800071E088EF92E00E946E0161E080E00E94C6
:101C90004A05809135029091360261E771E0009724
:101CA00009F4F7CE0E949D0567E671E0F2CE81301F
:101CB000910509F053C08AE00E94FE04209143027E
:101CC000309144028217930731F03A832983CE0181
:101CD00001960E94DD040E947D0560E080E00E9484
:101CE0004A056DE571E088EF92E00E946E018091F7
:101CF0004302909144020E949D056AE571E088EFDD
:101D000092E00E946E0161E080E00E944A0569E471
:101D100071E088EF92E00E946E0168EE73E080E06F
:101D200090E00E94800310923802109237021092C5
:101D30004E0210924D020E947D0560E080E00E94FC
:101D40004A056FE371E088EF92E00E946E0161E066
:101D500080E00E944A056EE271E09BCE029709F096
:101D60009CCE0E947D0560E080E00E944A056DE106
:101D700071E088EF92E00E946E0161E080E00E94D5
:101D80004A056CE071E088EF92E00E946E0168EE17
:101D900073E080E090E00E9480031092380210927D
:101DA000370210924E0210924D020E947D0560E0B3
:101DB00080E00E944A0562E071E088EF92E00E94B4
:101DC0006E0161E080E00E944A0561EF70E061CE43
:101DD000F999FECF92BD81BDF89A992780B50895F3
:101DE000262FF999FECF1FBA92BD81BD20BD0FB637
:101DF000F894FA9AF99A0FBE01960895E89409C0EA
:101E000097FB3EF490958095709561957F4F8F4F2D
:101E10009F4F9923A9F0F92F96E9BB279395F69543
:101E2000879577956795B795F111F8CFFAF4BB0FC1
:101E300011F460FF1BC06F5F7F4F8F4F9F4F16C025
:101E4000882311F096E911C0772321F09EE8872FAF
:101E5000762F05C0662371F096E8862F70E060E06B
:101E60002AF09A95660F771F881FDAF7880F9695E4
:101E7000879597F908950E94400F880B990B089554
:101E8000990F0008550FAA0BE0E8FEEF161617068B
:101E9000E807F907C0F012161306E407F50798F0F3
:101EA000621B730B840B950B39F40A2661F0232B0C
:101EB000242B252B21F408950A2609F4A140A69588
:101EC0008FEF811D811D0895A1E21A2EAA1BBB1B55
:101ED000FD010DC0AA1FBB1FEE1FFF1FA217B307F6
:101EE000E407F50720F0A21BB30BE40BF50B661F0C
:101EF000771F881F991F1A9469F7609570958095D0
:101F000090959B01AC01BD01CF010895EE0FFF1F1D
:0C1F10000590F491E02D0994F894FFCFA7
:101F1C00010001000000400014005400000000000B
:101F2C0032029201BF017F02F001CE01E2010000FA
:101F3C00000046041904DA04EF031204FF03F00353
:101F4C000000000088059201DA04D9044D41525476
:101F5C00494E2043484C45424F56454300300020E3
:101F6C005348415245574152452020000D0A00006C
:00000001FF
