:020000040000FA
:100000000C9442010C946A010C946A010C946A01EC
:100010000C946A010C946A010C946A010C946A01B4
:100020000C946A010C946A010C946A010C946A01A4
:100030000C946A010C946A010C946A010C946A0194
:100040000C9408090C946A010C94D6080C94B0081E
:100050000C946A010C946A010C946A010C946A0174
:100060000C9452090C946A0130003A0030003A00B6
:10007000300030003A0030003A003000000000004C
:10008000240027002A0000000000250028002B0083
:1000900000000000230026002900040404040404D6
:1000A0000404020202020202030303030303010227
:1000B00004081020408001020408102001020408F6
:1000C00010200000000800020100000304070000E7
:1000D00000000000000044454D4F202D2053686172
:1000E0007265776172650053746172742068727909
:1000F0000044454D4F202D20536861726577617231
:1001000065005374617274206872790044454D4FE4
:10011000202D205368617265776172650044454DFA
:100120004F202D204E45554C4F5A454E45004445D5
:100130004D4F202D205368617265776172650053C1
:1001400074617274206872790044454D4F202D20EF
:1001500053686172657761726500207300556B6C3E
:100160006164616D3A200020202020202020202082
:100170000042657A206F626D65647A656E69610020
:1001800043617320687279207620686F643A20009A
:10019000202020202020202020004B6F6C6B6F201F
:1001A00073656B756E643A20004752452030303AD3
:1001B00030303A3030005245442030303A30303A16
:1001C00030300044454D4F202D20536861726577D3
:1001D0006172650043617320687279202868290084
:1001E00044454D4F202D20536861726577617265DB
:1001F00000436173206F62736164656E69612028DA
:1002000073290044454D4F202D2053686172657756
:1002100061726500537461727420687279002020E5
:10022000202020202020202020200042657A206FDE
:10023000626D65647A656E6961002020202020204F
:1002400020202000526F746174696F6E20746F20DB
:100250006C656674203C3D0020202020202020205A
:10026000200020202020202020202000526F7461B8
:1002700074696F6E20746F207269676874203D3EE8
:100280000000710A11241FBECFEFD8E0DEBFCDBF42
:1002900011E0A0E0B1E0EAE7F5E202C005900D92BE
:1002A000A838B107D9F723E0A8E8B1E001C01D9252
:1002B000AC32B207E1F711E0C2E4D1E004C021970B
:1002C000FE010E949011C134D107C9F70E94AA0A09
:1002D0000C94BB120C94000008950895EF92FF92C5
:1002E0000F931F93CF93DF938C017B01D0E0C0E08D
:1002F000F701EC0FFD1F6491662361F0D801ED91C9
:10030000FC910190F081E02DC8010995892B11F035
:100310002196EECFCE01DF91CF911F910F91FF90EB
:10032000EF900895AF92BF92CF92DF92EF92FF923B
:100330000F931F93CF93DF936C017B018B01040F0D
:10034000151FEB015E01AE18BF08C017D10759F0A9
:100350006991D601ED91FC910190F081E02DC601EB
:100360000995892B79F7C501DF91CF911F910F91E5
:10037000FF90EF90DF90CF90BF90AF900895FC0179
:10038000538D448D252F30E0842F90E0821B930BFA
:10039000541710F0CF96089501970895FC01918DA0
:1003A000828D981761F0A28DAE0FBF2FB11D5D96A3
:1003B0008C91928D9F5F9F73928F90E008958FEF45
:1003C0009FEF0895FC01918D828D981731F0828DF9
:1003D000E80FF11D858D90E008958FEF9FEF089550
:1003E000FC01918D228D892F90E0805C9F4F821BB4
:1003F00091098F73992708958FE792E00E94F00189
:1004000021E0892B09F420E0822F089580E090E01C
:10041000892B29F00E94FC0181110C9400000895A1
:10042000FC01A48DA80FB92FB11DA35ABF4F2C9169
:10043000848D90E001968F739927848FA689B78960
:100440002C93A089B1898C91837080648C93938D57
:10045000848D981306C00288F389E02D80818F7DFA
:1004600080830895EF92FF920F931F93CF93DF93B2
:10047000EC0181E0888F9B8D8C8D98131AC0E889E0
:10048000F989808185FF15C09FB7F894EE89FF89AF
:100490006083E889F98980818370806480839FBF4D
:1004A00081E090E0DF91CF911F910F91FF90EF904D
:1004B0000895F62E0B8D10E00F5F1F4F0F7311275D
:1004C000E02E8C8D8E110CC00FB607FCFACFE88998
:1004D000F989808185FFF5CFCE010E941002F1CF0E
:1004E000EB8DEC0FFD2FF11DE35AFF4FF0829FB70C
:1004F000F8940B8FEA89FB8980818062CFCFCF93FC
:10050000DF93EC01888D8823B9F0AA89BB89E8893B
:10051000F9898C9185FD03C0808186FD0DC00FB6E1
:1005200007FCF7CF8C9185FFF2CF808185FFEDCF5F
:10053000CE010E941002E9CFDF91CF910895833060
:1005400081F028F4813099F08230A9F00895873045
:10055000A9F08830C9F08430B1F4809180008F7D9B
:1005600003C0809180008F7780938000089584B5C8
:100570008F7784BD089584B58F7DFBCF8091B000C7
:100580008F778093B00008958091B0008F7DF9CF70
:10059000CF93DF93282F30E0F901EE53FF4F849182
:1005A000F901E255FF4FD491F901E656FF4FC4918E
:1005B000CC23A1F081110E949F02EC2FF0E0EE0FFE
:1005C000FF1FE057FF4FA591B491EC91ED2381E01F
:1005D00090E009F480E0DF91CF91089580E090E011
:1005E000FACF1F93CF93DF93282F30E0F901EE531A
:1005F000FF4F8491F901E255FF4FD491F901E6567E
:10060000FF4FC491CC23A9F0162F81110E949F02A5
:10061000EC2FF0E0EE0FFF1FEA57FF4FA591B491CA
:100620008FB7F894EC91111108C0D095DE23DC93BC
:100630008FBFDF91CF911F910895DE2BF8CFCF931D
:10064000DF9390E0FC01E255FF4F249186569F4FC7
:10065000FC0184918823C9F090E0880F991FFC0168
:10066000E458FF4FA591B491FC01EA57FF4FC591A3
:10067000D49161110DC09FB7F8948C91209582237D
:100680008C938881282328839FBFDF91CF91089581
:10069000623051F49FB7F8943C91822F8095832368
:1006A0008C93E8812E2BEFCF8FB7F894EC912E2B03
:1006B0002C938FBFEACF3FB7F894809105029091B9
:1006C0000602A0910702B091080226B5A89B05C0BA
:1006D0002F3F19F00196A11DB11D3FBFBA2FA92FC1
:1006E000982F8827BC01CD01620F711D811D911DBE
:1006F00042E0660F771F881F991F4A95D1F708952A
:100700008F929F92AF92BF92CF92DF92EF92FF9221
:100710004B015C010E945B036B017C010E945B0347
:100720006C197D098E099F09683E7340810591050A
:10073000A8F321E0821A9108A108B10888EEC80E3A
:1007400083E0D81EE11CF11C81149104A104B104C2
:1007500029F7FF90EF90DF90CF90BF90AF909F90E0
:100760008F9008952FB7F894609101027091020262
:1007700080910302909104022FBF08952091DD0122
:10078000260F3327331F21323105ECF42091550217
:10079000FC0190E080E0243069F082E00895A091AF
:1007A000DD012191AC0143545E4FA40FB52FB11D63
:1007B0002C930196861798F38091DD01680F609362
:1007C000DD0180E0089581E008951092550281E0F6
:1007D0008093540210922F0261E082E10E94F102A4
:1007E00061E083E10E94F102E9EBF0E080818E7F1D
:1007F000808380818D7F808388E48093B80085E446
:100800008093BC000895CF93DF9391E09093BC0157
:100810008823B9F0C091B800D091BA008091BC0093
:100820008A7B8093BC0060E082E10E94F10260E07C
:1008300083E10E94F1020E94E503D093BA00C093C5
:10084000B800DF91CF910895CF92DF92EF92FF929F
:100850000F931F93CF93DF93D0917E0281E0D1322B
:1008600008F09CC0C0917D020E945B036B017C017B
:100870008091550281116CC082E08093550281E025
:10088000809354028FEF8093530210925202D093C0
:100890005102ADE5B2E0E1E3F2E080E0D8138DC0B3
:1008A0001092300280913002CC0FC82BC0933002DE
:1008B00080912F02813009F084C010922F020E9493
:1008C0005B036B017C01809130028093BB008091BF
:1008D000570290915802A0915902B0915A02892B67
:1008E0008A2B8B2BA1F00E945B0300915702109181
:1008F00058022091590230915A026C197D098E09D3
:100900009F09061717072807390708F442C0809186
:10091000BC0083FDD8CF85EC8093BC000E945B03B4
:100920006B017C0180915502823009F44CC08091AA
:1009300053028F3F09F469C080915302803209F459
:1009400066C080915302803309F463C084E026C0FE
:100950008091570290915802A0915902B0915A0289
:10096000892B8A2B8B2B09F483CF0E945B03009188
:100970005702109158022091590230915A026C1975
:100980007D098E099F09061717072807390708F000
:100990006FCF809156020E94030485E010925C02A2
:1009A00010927E0210925B02DF91CF911F910F9106
:1009B000FF90EF90DF90CF9008959D9191938F5F7E
:1009C0006DCF85EEA9CF8091570290915802A091EA
:1009D0005902B0915A02892B8A2B8B2B09F4A2CF92
:1009E0000E945B0300915702109158022091590216
:1009F00030915A026C197D098E099F090617170755
:100A00002807390708F08ECFC4CF80E0C7CF82E037
:100A1000C5CF83E0C3CF0895E0910E0280910D020F
:100A2000E81730F4F0E0E456FE4F808190E008953E
:100A30008FEF9FEF089590910E0280910D022FEF9E
:100A40003FEF981748F4E92FF0E0E456FE4F20817D
:100A500030E09F5F90930E02C901089580910D02CE
:100A600090910E02891B990B0895CF92DF92EF921D
:100A7000FF920F931F93CF93DF937C01CB018A01E9
:100A800020915B02222389F0EB016B01C40ED51E7D
:100A9000CC15DD0569F06991D701ED91FC910190CC
:100AA000F081E02DC7010995F3CF642F0E94BE03AA
:100AB000C801DF91CF911F910F91FF90EF90DF90D0
:100AC000CF900895CF93DF931F92CDB7DEB76983A0
:100AD00020915B022223F9F020917E02203258F00F
:100AE00021E030E0FC013383228390E080E00F902E
:100AF000DF91CF91089580915C02E82FF0E0E35AF6
:100B0000FD4F998190838F5F80935C0280937E027A
:100B100081E090E0ECCF61E0CE0101960E94BE033F
:100B2000F7CFFC01248131E030935B0220937D02FA
:100B300010925C0210927E028385682B8CE193E018
:100B40000E9462050C942404089590E080E00895CA
:100B50001F93CF93DF93EC0118818AE090E00E940D
:100B6000F210181729F0612F8AE090E00E94FA1025
:100B700019818BE090E00E94F210181729F0612F84
:100B80008BE090E00E94FA10CE01DF91CF911F918F
:100B900008950F931F93CF93DF9300D0CDB7DEB7A7
:100BA000082F880F110BC8010E94F2108983C80119
:100BB00001960E94F2108A8389819A810F900F908A
:100BC000DF91CF911F910F9108950F931F93CF93B2
:100BD0008C01C62F0E9491056C2F6460C8010E9491
:100BE00091056C2F6B7FC8010E94910583EC90E00A
:100BF0000197F1F7CF911F910F9108950F931F93D4
:100C0000CF93DF938C01D62FC42F607F642B0E947B
:100C1000E50580E1D89FB00111246C2BC801DF915C
:100C2000CF911F910F910C94E50541E00E94FE05C4
:100C300081E090E00895CF93DF93CDB7DEB728979A
:100C40000FB6F894DEBF0FBECDBF28E0EAE0F1E0BA
:100C5000DE01119601900D922A95E1F7FC012185A4
:100C6000241708F44FEF50E0440F551F21E030E007
:100C70002C0F3D1F420F531FFA012081620F606845
:100C800040E028960FB6F894DEBF0FBECDBFDF91CF
:100C9000CF910C94FE0540E061E00E94FE058BE3DD
:100CA0009FE10197F1F70895FB0101900020E9F71A
:100CB0003197AF01461B570BDC01ED91FC9102808F
:100CC000F381E02D09948F929F92AF92BF92EF92A1
:100CD000FF920F931F93CF93DF93CDB7DEB7A1970A
:100CE0000FB6F894DEBF0FBECDBF7C01FA01CB0179
:100CF00019A2223008F42AE08E010F5D1F4F822EC8
:100D0000912CB12CA12CBF01A50194010E946E1160
:100D1000F901CA016A300CF5605DD8016E938D014E
:100D2000232B242B252B79F790E080E0109721F0DE
:100D3000BD01C7010E945406A1960FB6F894DEBF0C
:100D40000FBECDBFDF91CF911F910F91FF90EF901C
:100D5000BF90AF909F908F900895695CDECFCF9247
:100D6000DF92EF92FF920F931F93CF93DF936B016C
:100D7000770FEE08FF08F7FE1FC0EC01E881F9814C
:100D80000190F081E02D6DE209958C0144275527F3
:100D9000BA014C195D096E097F092AE0CE010E9453
:100DA0006306800F911FDF91CF911F910F91FF90EC
:100DB000EF90DF90CF9008952AE0B701A601DF9170
:100DC000CF911F910F91FF90EF90DF90CF900C94F7
:100DD0006306CF93DF93C0911502D091160241E0D4
:100DE00064E0CE010E941B0680919A0190919B01C4
:100DF0000A972CF46AE770E0CE010E946E016091C0
:100E00009A0170919B0180911502909116020E94A7
:100E1000AF0668E770E080911502909116020E947B
:100E20006E0180919801909199010A9744F466E7C8
:100E300070E080911502909116020E946E016091FF
:100E400098017091990180911502909116020E946B
:100E5000AF0664E770E080911502909116020E943F
:100E60006E0180919601909197010A9744F462E790
:100E700070E080911502909116020E946E016091BF
:100E80009601709197018091150290911602DF9161
:100E9000CF910C94AF06CF93DF93C0911502D09100
:100EA000160240E064E0CE010E941B06809194018E
:100EB000909195010A972CF460E770E0CE010E94B2
:100EC0006E0160919401709195018091150290914D
:100ED00016020E94AF066EE670E0809115029091B6
:100EE00016020E946E0180919201909193010A97DF
:100EF00044F46CE670E080911502909116020E9415
:100F00006E01609192017091930180911502909110
:100F100016020E94AF066AE670E080911502909179
:100F200016020E946E0180919001909191010A97A2
:100F300044F468E670E080911502909116020E94D8
:100F40006E016091900170919101809115029091D4
:100F50001602DF91CF910C94AF060F931F930E945E
:100F6000B20300918C0110918D0120918E0130917E
:100F70008F01601B710B820B930B64367105810529
:100F8000910528F4012B022B032B09F096C08091C8
:100F9000920190919301181619063CF080919801E6
:100FA00090919901181619064CF410922202109291
:100FB00021020E944B070E94E906FFCF8091220286
:100FC0008823B9F10E944B07809188019091890193
:100FD0008930910509F07AC0109289011092880138
:100FE0008091900190919101209192013091930113
:100FF0008B33910509F064C0109291011092900119
:101000002F5F3F4F30939301209392018091920183
:1010100090919301CC9769F41092930110929201F0
:101020008091940190919501019690939501809300
:101030009401809121028823B1F10E94E9068091F8
:101040008A0190918B018930910509F04BC0109273
:101050008B0110928A0180919601909197012091C5
:101060009801309199018B339105B1F51092970158
:10107000109296012F5F3F4F309399012093980172
:101080008091980190919901CC9769F410929901FF
:101090001092980180919A0190919B0101969093F2
:1010A0009B0180939A010E94B20360938C0170931C
:1010B0008D0180938E0190938F011F910F91089560
:1010C00001969093910180939001A0CF0196909307
:1010D000890180938801ADCF019690939701809309
:1010E0009601CECF019690938B0180938A01DBCF3E
:1010F00085ED8093BC008091570290915802A09199
:101100005902B0915A020796A11DB11D23E0B69570
:10111000A795979587952A95D1F72091BC0024FD36
:1011200003C0109255020895409157025091580201
:101130006091590270915A02452B462B472B69F357
:101140000097A105B10541F02AE22A95F1F700C008
:101150000197A109B109E1CF809156020C940304D3
:101160001F920F920FB60F9211242F933F934F931C
:101170005F936F937F938F939F93AF93BF93EF93FF
:10118000FF938FE792E00E941002FF91EF91BF91D1
:10119000AF919F918F917F916F915F914F913F910F
:1011A0002F910F900FBE0F901F9018951F920F92C6
:1011B0000FB60F9211242F938F939F93EF93FF936A
:1011C000E0918F02F09190028081E0919502F09180
:1011D000960282FD1BC09081809198028F5F8F7371
:1011E00020919902821741F0E0919802F0E0E158D5
:1011F000FD4F958F80939802FF91EF919F918F9172
:101200002F910F900FBE0F901F9018958081F4CFF3
:101210001F920F920FB60F9211242F933F938F932B
:101220009F93AF93BF938091010290910202A0918E
:101230000302B09104023091000223E0230F2D3706
:1012400058F50196A11DB11D209300028093010263
:1012500090930202A0930302B093040280910502CE
:1012600090910602A0910702B09108020196A11D7B
:10127000B11D8093050290930602A0930702B093DC
:101280000802BF91AF919F918F913F912F910F9045
:101290000FBE0F901F90189526E8230F0296A11DF0
:1012A000B11DD2CF1F920F920FB60F9211242F9320
:1012B0003F934F935F936F937F938F939F93AF93DE
:1012C000BF93EF93FF938091B900887F803609F434
:1012D0004AC0F0F5883209F4A7C018F5803109F446
:1012E0009BC0B8F4882309F4F9C0883009F494C08D
:1012F000FF91EF91BF91AF919F918F917F916F91EE
:101300005F914F913F912F910F900FBE0F901F90C3
:101310001895883109F488C0803251F780935302C0
:1013200014C0803409F49DC040F48033B9F388338D
:10133000F9F68093530285ECB0C0803509F485C07E
:10134000883509F496C0883499F60E947808D0CF81
:10135000883909F48CC038F5883729F050F488367C
:1013600011F0803729F683E0809355021092FF0137
:1013700057C0883809F47BC0803919F0803809F0EB
:10138000B7CF8091FF01803208F071C0E091FF017A
:1013900081E08E0F8093FF018091BB00F0E0E1526D
:1013A000FE4F80833DC0803B39F0E0F4803A09F481
:1013B00079C0883A09F09CCF84E08093550210925E
:1013C000DE011092DD01E0910902F0910A02099517
:1013D0008091DD0181110FC081E08093DD011092C9
:1013E000BD0109C0803C09F4A6CF883C09F4A3CF15
:1013F000883B09F07DCFE091DE0181E08E0F809384
:10140000DE01F0E0E354FE4F80818093BB009091B9
:10141000DE018091DD0129C0809130028093BB0004
:1014200085EC8093BC0064CF909152028091510270
:10143000981758F5E091520281E08E0F8093520286
:10144000F0E0EF5CFD4F8081E9CFE091520281E056
:101450008E0F809352028091BB00F0E0EF5CFD4F55
:10146000808390915202809151029817C8F285E8CA
:10147000D8CFE091520281E08E0F8093520280918A
:10148000BB00F0E0EF5CFD4F80838091540281113E
:101490005CCF81E080932F0284EA8093BC0010929D
:1014A000550226CF85EC8093BC00109255028091A6
:1014B000FF01803230F4E091FF01F0E0E152FE4F95
:1014C00010826091FF0170E0E0910B02F0910C023C
:1014D0008FED91E009951092FF010ACF109253020F
:1014E00034CFEFE7F2E01382128288EE93E0A0E0BF
:1014F000B0E084839583A683B78322E231E0318311
:10150000208325EC30E03587248724EC30E03787D2
:10151000268720EC30E0318B208B21EC30E0338BC0
:10152000228B22EC30E0358B248B26EC30E0378B9D
:10153000268B118E128E138E148EECE1F3E0138243
:10154000128284839583A683B78384E391E0918399
:1015500080830895CF93DF9300D000D0CDB7DEB75E
:10156000789484B5826084BD84B5816084BD85B57E
:10157000826085BD85B5816085BD80916E0081608A
:1015800080936E0010928100809181008260809330
:101590008100809181008160809381008091800032
:1015A0008160809380008091B10084608093B1005D
:1015B0008091B00081608093B00080917A00846057
:1015C00080937A0080917A00826080937A00809183
:1015D0007A00816080937A0080917A00806880939D
:1015E0007A001092C100E0918F02F091900282E0A7
:1015F0008083E0918B02F0918C021082E0918D0249
:10160000F0918E028FEC808310929702E09193020A
:10161000F091940286E08083E0919102F091920231
:10162000808180618083E0919102F09192028081BB
:1016300088608083E0919102F091920280818068BD
:101640008083E0919102F091920280818F7D80836E
:1016500010920E0210920D020E94E5038CE691E0BA
:1016600090930A02809309028DE691E090930C0218
:1016700080930B02FF24F39411E010935B02F0922D
:101680007D0210925C0210927E020E94240481115D
:10169000E7C162E471E08FE792E00E9454068FE0B8
:1016A0008F1530F061E671E08FE792E00E945406FA
:1016B0004F2D50E070E060E020E18FE792E00E9463
:1016C000630663E671E08FE792E00E94540667E6E6
:1016D00071E08FE792E00E9454068CE090E00E9457
:1016E00096118C01FC011382128286E191E09183B4
:1016F0008083F48280E1808782E08187128658E0CF
:10170000F52EF386109316020093150210920E0226
:1017100010920D0210925C0210927E020E94E5036C
:101720008CE691E090930A02809309028DE691E0A5
:1017300090930C0280930B02F80115828185823010
:1017400008F0F582F8019285992329F0813019F487
:1017500085818460858362E370E080E090E00E9490
:101760008003F8016385C8010E94910568EE73E06B
:1017700080E090E00E94800360E3C8010E94E505DC
:101780004BE4E42E46E4F42EC7010197F1F760E341
:10179000C8010E94E505C7010197F1F760E3C801A0
:1017A0000E94E50583E592E00197F1F760E2C80148
:1017B0000E94E505F8016581606240E0C8010E9471
:1017C000FE0584E0F801868340E06CE0C8010E94D9
:1017D000FE05C8010E944B0682E0F801878340E0C5
:1017E00066E0C8010E94FE0540E062E0C8010E9478
:1017F000FE058BE39FE10197F1F788E0F80183870D
:1018000060E0C8010E949105C8010E944B0640E0BB
:1018100060E0C8010E941B066AE671E0C8010E94F0
:1018200054060EE110E0E0901502F090160241E03F
:1018300060E0C7010E941B060A3011052CF461E626
:1018400071E0C7010E945406B80180911502909181
:1018500016020E94AF066BE771E08091150290912D
:1018600016020E94540668EE73E080E090E00E9449
:10187000800301501109B9F600911502109116026A
:10188000C8010E944B0640E060E0C8010E941B06B0
:1018900067EE70E0C8010E946E0100911502109180
:1018A000160241E060E0C8010E941B0666ED70E090
:1018B000C8010E946E0162E085E00E941F0361E0A2
:1018C00086E00E941F0361E087E00E941F0362E040
:1018D00088E00E941F0362E089E00E941F0360E02D
:1018E00083E00E941F0360E084E00E941F0362E027
:1018F00085E00E941F0383E00E94C80290931A02B1
:10190000809319028AE00E94C905BC01990F880BD7
:10191000990B0E940A119B01AC010E94451188237A
:1019200041F085E090E09C838B83CE0103960E947A
:10193000A80584E60E94C9059093140280931302BF
:101940008AE00E94C905909324028093230288EEC6
:10195000E82E83E0F82E90E0692E90E0792E23E0C7
:10196000C22ED12C32E0A32EB12C80912D02909169
:101970002E02039709F03CC10E94AD0788E00E9447
:10198000C8028C0190932C0280932B0289E00E9464
:10199000C80290932A0280932902012B09F065C0A6
:1019A000019709F062C00E94B20360932502709310
:1019B0002602809327029093280280912902909119
:1019C0002A0220912B0230912C02232B09F04DC0CA
:1019D000019709F04AC088E00E94C80290932C0247
:1019E00080932B0289E00E94C80290932A02809380
:1019F00029020E94AD070E94B203009125021091B6
:101A000026022091270230912802AB01BC01401B25
:101A1000510B620B730B20912302309124022E9DF7
:101A2000C0012F9D900D3E9D900D1124092E000C9C
:101A3000AA0BBB0B481759076A077B0708F4BDCFF1
:101A40000E94AD0760E086E00E94F10261E087E05D
:101A50000E94F10281E08093220210922102ADCF18
:101A6000F394EFE7FE1209CE38CE809129029091CF
:101A70002A02892B09F064C080912B0290912C02DC
:101A8000019709F05DC00E94B20360931D0270933C
:101A90001E0280931F029093200280912B0290914E
:101AA0002C022091290230912A02232B09F048C0F0
:101AB000019709F045C088E00E94C80290932C026B
:101AC00080932B0289E00E94C80290932A0280939F
:101AD00029020E94AD070E94B20300911D021091DD
:101AE0001E0220911F0230912002AB01BC01401B5D
:101AF000510B620B730B20912302309124022E9D17
:101B0000C0012F9D900D3E9D900D1124092E000CBB
:101B1000AA0BBB0B481759076A077B0708F4BDCF10
:101B20000E94AD0761E086E00E94F10260E087E07C
:101B30000E94F1021092220281E080932102ADCF37
:101B400080912B0290912C02892B09F054C2809134
:101B5000290290912A02892B09F04DC20E94B203FA
:101B600060932502709326028093270290932802A7
:101B700080912B0290912C02892B09F03CC280911C
:101B8000290290912A02892B09F035C288E00E942F
:101B9000C80290932C0280932B0289E00E94C80215
:101BA00090932A02809329020E94AD070E94B203FB
:101BB00000912502109126022091270230912802DF
:101BC000601B710B820B930B6233710581059105CC
:101BD00078F20E94AD0760E086E00E94F10260E0CA
:101BE00087E00E94F1021092220210922102C0CFDF
:101BF00083E00E94C8028C0190931C0280931B0218
:101C00008091190290911A020817190709F45EC011
:101C100084E00E94C8020817190709F40EC16CE697
:101C200072E08FE792E00E946E0167E671E08FE755
:101C300092E00E94540680912D0290912E0200970E
:101C400009F0BDC08091170290911802019683306F
:101C5000910594F5909318028093170280911702D2
:101C6000909118028130910509F45AC18230910592
:101C700009F473C1892B51F50091150210911602D8
:101C8000C8010E944B0640E060E0C8010E941B06AC
:101C900064E172E0C8010E946E010091150210918A
:101CA000160241E060E0C8010E941B0663E072E09A
:101CB000C8010E946E010AC0B0921802A0921702D9
:101CC00080912D0290912E02892B41F280911B026E
:101CD00090911C0290931A028093190285E00E9451
:101CE000C8028C0180910201909103010817190725
:101CF00051F00E94B20360930F0270931002809320
:101D00001102909312020E94B20320910F023091AF
:101D100010024091110250911202621B730B840B4E
:101D2000950B633371058105910508F460C18091BD
:101D30000001909101010817190709F458C1109387
:101D40000101009300010130110509F050C180919B
:101D50002D0290912E02009709F087C18091170201
:101D6000909118028130910509F414C182309105D7
:101D700009F44DC1892B09F03AC1D0922E02C092CC
:101D80002D028090150290901602C4010E944B060D
:101D900040E060E0C4010E941B0666EB71E0C401F4
:101DA0000E946E01809015029090160241E060E062
:101DB000C4010E941B0669EA71E0C40116C18130AA
:101DC0009105F1F400912302109124020F5F1F4F3F
:101DD0001093240200932302809015029090160223
:101DE00041E060E0C4010E941B06B801C4010E94EA
:101DF000AF0662E672E0809115029091160282C0F1
:101E0000029709F063CF00911302109114020F5F43
:101E10001F4F1093140200931302809015029090AC
:101E2000160241E060E0C4010E941B06B801C40133
:101E30000E94AF0668E572E0DECF64E472E08FE7EF
:101E400092E00E946E0167E671E08FE792E00E94E7
:101E5000540680912D0290912E02009761F480919A
:101E6000170290911802019797FFF4CE1092180272
:101E70001092170225CF8130910519F58091230228
:101E800090912402019797FD17C0909324028093AC
:101E90002302009115021091160241E060E0C80192
:101EA0000E941B066091230270912402C8010E94C7
:101EB000AF066AE372E09FCF1092240210922302D1
:101EC000E8CF029709F002CF80911302909114029B
:101ED000019797FD1AC0909314028093130200910A
:101EE00015021091160241E060E0C8010E941B0635
:101EF00060911302709114026115710559F46BE23F
:101F000072E0C8010E946E01DBCE109214021092A2
:101F10001302E5CFC8010E94AF066EE172E06BCFFD
:101F20000091150210911602C8010E944B0640E074
:101F300060E0C8010E941B0661EF71E0C8010E94C9
:101F40006E01009115021091160241E060E0C80197
:101F50000E941B0660EE71E0ABCE0091150210915D
:101F60001602C8010E944B0640E060E0C8010E94D2
:101F70001B0664ED71E0C8010E946E01009115021C
:101F80001091160241E060E0C8010E941B0663EC5C
:101F900071E08ECE10932E0200932D0280901502D8
:101FA00090901602C4010E944B0640E060E0C4011C
:101FB0000E941B066AE971E0C4010E946E018090D4
:101FC00015029090160241E060E0C4010E941B06D9
:101FD0006091230270912402C4010E94AF0660E95F
:101FE00071E080911502909116020E946E0110938B
:101FF0000301009302016114710409F4B6CC0E943C
:10200000FC01882309F4B1CC0E940000AECC90936F
:102010002E0280932D028090150290901602C4012A
:102020000E944B0640E060E0C4010E941B0660E88D
:1020300071E0C4010E946E0180901502909016021A
:1020400041E060E0C4010E941B06609113027091A0
:1020500014026115710519F461E771E0AECEC40197
:102060000E94AF0667E671E0BCCF8130910509F0B0
:102070006CC08AE00E94C90520912302309124029D
:102080008217930731F03A832983CE0101960E948B
:10209000A8058090150290901602C4010E944B067C
:1020A00040E060E0C4010E941B066DE571E0C401E0
:1020B0000E946E01609123027091240280911502AA
:1020C000909116020E94AF066AE571E080911502B8
:1020D000909116020E946E01809015029090160257
:1020E00041E060E0C4010E941B0669E471E0C401A4
:1020F0000E946E0168EE73E080E090E00E94800331
:10210000109218021092170210922E0210922D02B5
:102110008090150290901602C4010E944B0640E088
:1021200060E0C4010E941B066FE371E0C4010E94DD
:102130006E01809015029090160241E060E0C401AB
:102140000E941B066EE271E038CE029709F04FCF75
:102150008090150290901602C4010E944B0640E048
:1021600060E0C4010E941B066DE171E0C4010E94A1
:102170006E01809015029090160241E060E0C4016B
:102180000E941B066CE071E0C4010E946E0168EEC3
:1021900073E080E090E00E94800310921802109299
:1021A000170210922E0210922D028090150290902C
:1021B0001602C4010E944B0640E060E0C4010E9488
:1021C0001B0662E071E0C4010E946E01809015025E
:1021D0009090160241E060E0C4010E941B0661EF8E
:1021E00070E0EBCDF999FECF92BD81BDF89A9927A9
:1021F00080B50895262FF999FECF1FBA92BD81BDF3
:1022000020BD0FB6F894FA9AF99A0FBE0196089578
:10221000E89409C097FB3EF4909580957095619580
:102220007F4F8F4F9F4F9923A9F0F92F96E9BB2736
:102230009395F695879577956795B795F111F8CFB2
:10224000FAF4BB0F11F460FF1BC06F5F7F4F8F4F1D
:102250009F4F16C0882311F096E911C0772321F013
:102260009EE8872F762F05C0662371F096E8862FAB
:1022700070E060E02AF09A95660F771F881FDAF702
:10228000880F9695879597F908950E944A11880BB3
:10229000990B0895990F0008550FAA0BE0E8FEEF7F
:1022A00016161706E807F907C0F012161306E4071A
:1022B000F50798F0621B730B840B950B39F40A2613
:1022C00061F0232B242B252B21F408950A2609F4F1
:1022D000A140A6958FEF811D811D0895A1E21A2EC0
:1022E000AA1BBB1BFD010DC0AA1FBB1FEE1FFF1FBA
:1022F000A217B307E407F50720F0A21BB30BE40B0A
:10230000F50B661F771F881F991F1A9469F7609550
:102310007095809590959B01AC01BD01CF0108950A
:10232000EE0FFF1F0590F491E02D09940F931F937A
:10233000CF93DF938230910510F482E090E0E0913A
:102340002A03F0912B0330E020E0B0E0A0E03097CA
:1023500099F42115310509F44AC0281B390B2430A2
:102360003105D8F58A819B816115710589F1FB01E1
:1023700093838283FE0111C04081518102811381C8
:1023800048175907E0F04817590799F4109761F07A
:1023900012960C93129713961C933296CF01DF91ED
:1023A000CF911F910F91089500932A0310932B034F
:1023B000F4CF2115310551F04217530738F0A90128
:1023C000DB019A01BD01DF01F801C1CFEF01F9CFB7
:1023D00090932B0380932A03CDCFFE01E20FF31FCE
:1023E000819391932250310939832883D7CF20914B
:1023F000280330912903232B41F4209106013091C9
:102400000701309329032093280320910401309180
:1024100005012115310541F42DB73EB74091080162
:1024200050910901241B350BE0912803F0912903F9
:10243000E217F307A0F42E1B3F0B2817390778F09B
:10244000AC014E5F5F4F2417350748F04E0F5F1FFA
:102450005093290340932803819391939FCFF0E0F9
:10246000E0E09CCFCF93DF930097E9F0FC01329737
:1024700013821282A0912A03B0912B03ED0130E068
:1024800020E01097A1F420813181820F931F2091C9
:102490002803309129032817390709F061C0F09308
:1024A0002903E0932803DF91CF910895EA01CE1725
:1024B000DF07E8F54A815B819E0141155105B1F7BF
:1024C000E901FB83EA8349915991C40FD51FEC17A9
:1024D000FD0761F4808191810296840F951FE901C7
:1024E00099838883828193819B838A83F0E0E0E0F3
:1024F00012968D919C9113970097B9F52D913C916F
:102500001197CD010296820F931F209128033091DD
:1025100029032817390739F6309751F510922B0304
:1025200010922A03B0932903A0932803BCCFD3832E
:10253000C28340815181840F951FC817D90761F468
:102540004E5F5F4F88819981480F591F51834083A7
:102550008A819B81938382832115310509F0B0CF55
:10256000F0932B03E0932A039ECFFD01DC01C0CF43
:1025700013821282D7CFF894FFCF01000100000030
:102580002C038000000040001400540000000000F4
:1025900015069201A505A405000000003202920173
:1025A000BF017F02F001CE01E201000000006205E0
:1025B0003505A5050B052E051B050C0549324320E5
:1025C00064657669636520666F756E64206174204A
:1025D00061646472657373203078003000202021BC
:1025E000000D0A004D415254494E2043484C45428B
:1025F0004F564543002053484152455741524520CC
:022600002000B8
:107E0000112484B714BE81FFF0D085E080938100F7
:107E100082E08093C00088E18093C10086E0809377
:107E2000C20080E18093C4008EE0C9D0259A86E02C
:107E300020E33CEF91E0309385002093840096BBD3
:107E4000B09BFECF1D9AA8958150A9F7CC24DD24C4
:107E500088248394B5E0AB2EA1E19A2EF3E0BF2EE7
:107E6000A2D0813461F49FD0082FAFD0023811F036
:107E7000013811F484E001C083E08DD089C08234E0
:107E800011F484E103C0853419F485E0A6D080C0E4
:107E9000853579F488D0E82EFF2485D0082F10E0AE
:107EA000102F00270E291F29000F111F8ED06801E7
:107EB0006FC0863521F484E090D080E0DECF843638
:107EC00009F040C070D06FD0082F6DD080E0C81688
:107ED00080E7D80618F4F601B7BEE895C0E0D1E017
:107EE00062D089930C17E1F7F0E0CF16F0E7DF06D8
:107EF00018F0F601B7BEE89568D007B600FCFDCFD4
:107F0000A601A0E0B1E02C9130E011968C91119780
:107F100090E0982F8827822B932B1296FA010C0160
:107F200087BEE89511244E5F5F4FF1E0A038BF0790
:107F300051F7F601A7BEE89507B600FCFDCF97BE46
:107F4000E89526C08437B1F42ED02DD0F82E2BD052
:107F50003CD0F601EF2C8F010F5F1F4F84911BD097
:107F6000EA94F801C1F70894C11CD11CFA94CF0C13
:107F7000D11C0EC0853739F428D08EE10CD085E9AC
:107F80000AD08FE07ACF813511F488E018D01DD067
:107F900080E101D065CF982F8091C00085FFFCCF94
:107FA0009093C60008958091C00087FFFCCF809118
:107FB000C00084FD01C0A8958091C6000895E0E648
:107FC000F0E098E1908380830895EDDF803219F02E
:107FD00088E0F5DFFFCF84E1DECF1F93182FE3DFCA
:107FE0001150E9F7F2DF1F91089580E0E8DFEE27F6
:047FF000FF270994CA
:027FFE00040479
:00000001FF
