:100000000C9442010C946A010C946A010C946A01EC
:100010000C946A010C946A010C946A010C946A01B4
:100020000C946A010C946A010C946A010C946A01A4
:100030000C946A010C946A010C946A010C946A0194
:100040000C94E7080C946A010C94B5080C948F0882
:100050000C946A010C946A010C946A010C946A0174
:100060000C9431090C946A0130003A0030003A00D7
:10007000300030003A0030003A003000000000004C
:10008000240027002A0000000000250028002B0083
:1000900000000000230026002900040404040404D6
:1000A0000404020202020202030303030303010227
:1000B00004081020408001020408102001020408F6
:1000C00010200000000800020100000304070000E7
:1000D00000000000000044454D4F202D2053686172
:1000E0007265776172650053746172742068727909
:1000F0000044454D4F202D20536861726577617231
:1001000065005374617274206872790044454D4FE4
:10011000202D205368617265776172650044454DFA
:100120004F202D204E45554C4F5A454E45004445D5
:100130004D4F202D205368617265776172650053C1
:1001400074617274206872790044454D4F202D20EF
:1001500053686172657761726500207300556B6C3E
:100160006164616D3A200020202020202020202082
:100170000042657A206F626D65647A656E69610020
:1001800043617320687279207620686F643A20009A
:10019000202020202020202020004B6F6C6B6F201F
:1001A00073656B756E643A20004752452030303AD3
:1001B00030303A3030005245442030303A30303A16
:1001C00030300044454D4F202D20536861726577D3
:1001D0006172650043617320687279202868290084
:1001E00044454D4F202D20536861726577617265DB
:1001F00000436173206F62736164656E69612028DA
:1002000073290044454D4F202D2053686172657756
:1002100061726500537461727420687279002020E5
:10022000202020202020202020200042657A206FDE
:10023000626D65647A656E6961002020202020204F
:1002400020202000526F746174696F6E20746F20DB
:100250006C656674203C3D0020202020202020205A
:10026000200020202020202020202000526F7461B8
:1002700074696F6E20746F207269676874203D3EE8
:100280000000500A11241FBECFEFD8E0DEBFCDBF63
:1002900011E0A0E0B1E0E4E2F4E202C005900D92CA
:1002A000AA38B107D9F723E0AAE8B1E001C01D924E
:1002B000AC32B207E1F711E0C2E4D1E004C021970B
:1002C000FE010E94E510C134D107C9F70E94890AD6
:1002D0000C9410120C94000008950895EF92FF9270
:1002E0000F931F93CF93DF938C017B01D0E0C0E08D
:1002F000F701EC0FFD1F6491662361F0D801ED91C9
:10030000FC910190F081E02DC8010995892B11F035
:100310002196EECFCE01DF91CF911F910F91FF90EB
:10032000EF900895AF92BF92CF92DF92EF92FF923B
:100330000F931F93CF93DF936C017B018B01040F0D
:10034000151FEB015E01AE18BF08C017D10759F0A9
:100350006991D601ED91FC910190F081E02DC601EB
:100360000995892B79F7C501DF91CF911F910F91E5
:10037000FF90EF90DF90CF90BF90AF900895FC0179
:10038000538D448D252F30E0842F90E0821B930BFA
:10039000541710F0CF96089501970895FC01918DA0
:1003A000828D981761F0A28DAE0FBF2FB11D5D96A3
:1003B0008C91928D9F5F9F73928F90E008958FEF45
:1003C0009FEF0895FC01918D828D981731F0828DF9
:1003D000E80FF11D858D90E008958FEF9FEF089550
:1003E000FC01918D228D892F90E0805C9F4F821BB4
:1003F00091098F73992708958FE792E00E94F00189
:1004000021E0892B09F420E0822F089580E090E01C
:10041000892B29F00E94FC0181110C9400000895A1
:10042000FC01A48DA80FB92FB11DA35ABF4F2C9169
:10043000848D90E001968F739927848FA689B78960
:100440002C93A089B1898C91837080648C93938D57
:10045000848D981306C00288F389E02D80818F7DFA
:1004600080830895EF92FF920F931F93CF93DF93B2
:10047000EC0181E0888F9B8D8C8D98131AC0E889E0
:10048000F989808185FF15C09FB7F894EE89FF89AF
:100490006083E889F98980818370806480839FBF4D
:1004A00081E090E0DF91CF911F910F91FF90EF904D
:1004B0000895F62E0B8D10E00F5F1F4F0F7311275D
:1004C000E02E8C8D8E110CC00FB607FCFACFE88998
:1004D000F989808185FFF5CFCE010E941002F1CF0E
:1004E000EB8DEC0FFD2FF11DE35AFF4FF0829FB70C
:1004F000F8940B8FEA89FB8980818062CFCFCF93FC
:10050000DF93EC01888D8823B9F0AA89BB89E8893B
:10051000F9898C9185FD03C0808186FD0DC00FB6E1
:1005200007FCF7CF8C9185FFF2CF808185FFEDCF5F
:10053000CE010E941002E9CFDF91CF910895833060
:1005400081F028F4813099F08230A9F00895873045
:10055000A9F08830C9F08430B1F4809180008F7D9B
:1005600003C0809180008F7780938000089584B5C8
:100570008F7784BD089584B58F7DFBCF8091B000C7
:100580008F778093B00008958091B0008F7DF9CF70
:10059000CF93DF93282F30E0F901EE53FF4F849182
:1005A000F901E255FF4FD491F901E656FF4FC4918E
:1005B000CC23A1F081110E949F02EC2FF0E0EE0FFE
:1005C000FF1FE057FF4FA591B491EC91ED2381E01F
:1005D00090E009F480E0DF91CF91089580E090E011
:1005E000FACF1F93CF93DF93282F30E0F901EE531A
:1005F000FF4F8491F901E255FF4FD491F901E6567E
:10060000FF4FC491CC23A9F0162F81110E949F02A5
:10061000EC2FF0E0EE0FFF1FEA57FF4FA591B491CA
:100620008FB7F894EC91111108C0D095DE23DC93BC
:100630008FBFDF91CF911F910895DE2BF8CFCF931D
:10064000DF9390E0FC01E255FF4F249186569F4FC7
:10065000FC0184918823C9F090E0880F991FFC0168
:10066000E458FF4FA591B491FC01EA57FF4FC591A3
:10067000D49161110DC09FB7F8948C91209582237D
:100680008C938881282328839FBFDF91CF91089581
:10069000623051F49FB7F8943C91822F8095832368
:1006A0008C93E8812E2BEFCF8FB7F894EC912E2B03
:1006B0002C938FBFEACF3FB7F894809107029091B7
:1006C0000802A0910902B0910A0226B5A89B05C0B4
:1006D0002F3F19F00196A11DB11D3FBFBA2FA92FC1
:1006E000982F8827BC01CD01620F711D811D911DBE
:1006F00042E0660F771F881F991F4A95D1F708952A
:100700008F929F92AF92BF92CF92DF92EF92FF9221
:100710004B015C010E945B036B017C010E945B0347
:100720006C197D098E099F09683E7340810591050A
:10073000A8F321E0821A9108A108B10888EEC80E3A
:1007400083E0D81EE11CF11C81149104A104B104C2
:1007500029F7FF90EF90DF90CF90BF90AF909F90E0
:100760008F9008952FB7F89460910302709104025E
:1007700080910502909106022FBF08952091DF011C
:10078000260F3327331F21323105ECF42091550217
:10079000FC0190E080E0243069F082E00895A091AF
:1007A000DF012191AC0141545E4FA40FB52FB11D63
:1007B0002C930196861798F38091DF01680F609360
:1007C000DF0180E0089581E008951092550281E0F4
:1007D0008093540210922F0261E082E10E94F102A4
:1007E00061E083E10E94F102E9EBF0E080818E7F1D
:1007F000808380818D7F808388E48093B80085E446
:100800008093BC000895CF93DF9391E09093BE0155
:100810008823B9F0C091B800D091BA008091BC0093
:100820008A7B8093BC0060E082E10E94F10260E07C
:1008300083E10E94F1020E94E503D093BA00C093C5
:10084000B800DF91CF910895CF92DF92EF92FF929F
:100850000F931F93CF93DF93D0917E0281E0D1322B
:1008600008F09CC0C0917D020E945B036B017C017B
:100870008091550281116CC082E08093550281E025
:10088000809354028FEF8093530210925202D093C0
:100890005102ADE5B2E0E1E3F2E080E0D8138DC0B3
:1008A0001092300280913002CC0FC82BC0933002DE
:1008B00080912F02813009F084C010922F020E9493
:1008C0005B036B017C01809130028093BB008091BF
:1008D000570290915802A0915902B0915A02892B67
:1008E0008A2B8B2BA1F00E945B0300915702109181
:1008F00058022091590230915A026C197D098E09D3
:100900009F09061717072807390708F442C0809186
:10091000BC0083FDD8CF85EC8093BC000E945B03B4
:100920006B017C0180915502823009F44CC08091AA
:1009300053028F3F09F469C080915302803209F459
:1009400066C080915302803309F463C084E026C0FE
:100950008091570290915802A0915902B0915A0289
:10096000892B8A2B8B2B09F483CF0E945B03009188
:100970005702109158022091590230915A026C1975
:100980007D098E099F09061717072807390708F000
:100990006FCF809156020E94030485E010925C02A2
:1009A00010927E0210925B02DF91CF911F910F9106
:1009B000FF90EF90DF90CF9008959D9191938F5F7E
:1009C0006DCF85EEA9CF8091570290915802A091EA
:1009D0005902B0915A02892B8A2B8B2B09F4A2CF92
:1009E0000E945B0300915702109158022091590216
:1009F00030915A026C197D098E099F090617170755
:100A00002807390708F08ECFC4CF80E0C7CF82E037
:100A1000C5CF83E0C3CF0895E091100280910F020B
:100A2000E81730F4F0E0E256FE4F808190E0089540
:100A30008FEF9FEF08959091100280910F022FEF9A
:100A40003FEF981748F4E92FF0E0E256FE4F20817F
:100A500030E09F5F90931002C901089580910F02CA
:100A600090911002891B990B0895CF92DF92EF921B
:100A7000FF920F931F93CF93DF937C01CB018A01E9
:100A800020915B02222389F0EB016B01C40ED51E7D
:100A9000CC15DD0569F06991D701ED91FC910190CC
:100AA000F081E02DC7010995F3CF642F0E94BE03AA
:100AB000C801DF91CF911F910F91FF90EF90DF90D0
:100AC000CF900895CF93DF931F92CDB7DEB76983A0
:100AD00020915B022223F9F020917E02203258F00F
:100AE00021E030E0FC013383228390E080E00F902E
:100AF000DF91CF91089580915C02E82FF0E0E35AF6
:100B0000FD4F998190838F5F80935C0280937E027A
:100B100081E090E0ECCF61E0CE0101960E94BE033F
:100B2000F7CFFC01248131E030935B0220937D02FA
:100B300010925C0210927E028385682B8CE193E018
:100B40000E9462050C942404089590E080E00895CA
:100B50000F931F93CF938C01C62F0E9491056C2F8A
:100B60006460C8010E9491056C2F6B7FC8010E94D0
:100B7000910583EC90E00197F1F7CF911F910F91D0
:100B800008950F931F93CF93DF938C01D62FC42F1B
:100B9000607F642B0E94A80580E1D89FB0011124DA
:100BA0006C2BC801DF91CF911F910F910C94A80578
:100BB00041E00E94C10581E090E00895CF93DF936A
:100BC000CDB7DEB728970FB6F894DEBF0FBECDBF06
:100BD00028E0ECE0F1E0DE01119601900D922A95FB
:100BE000E1F7FC012185241708F44FEF50E0440F92
:100BF000551F21E030E02C0F3D1F420F531FFA011B
:100C00002081620F606840E028960FB6F894DEBF3E
:100C10000FBECDBFDF91CF910C94C10540E061E0E4
:100C20000E94C1058BE39FE10197F1F708950F93AF
:100C30001F93CF93DF9300D0CDB7DEB7082F880F77
:100C4000110BC8010E94AD108983C80101960E9452
:100C5000AD108A8389819A810F900F90DF91CF9197
:100C60001F910F910895FB0101900020E9F7319742
:100C7000AF01461B570BDC01ED91FC910280F38123
:100C8000E02D09948F929F92AF92BF92EF92FF92C4
:100C90000F931F93CF93DF93CDB7DEB7A1970FB616
:100CA000F894DEBF0FBECDBF7C01FA01CB0119A2C3
:100CB000223008F42AE08E010F5D1F4F822E912C06
:100CC000B12CA12CBF01A50194010E94C310F90110
:100CD000CA016A300CF5605DD8016E938D01232B3B
:100CE000242B252B79F790E080E0109721F0BD01AF
:100CF000C7010E943306A1960FB6F894DEBF0FBE5F
:100D0000CDBFDF91CF911F910F91FF90EF90BF90DA
:100D1000AF909F908F900895695CDECFCF92DF9265
:100D2000EF92FF920F931F93CF93DF936B01770F97
:100D3000EE08FF08F7FE1FC0EC01E881F981019081
:100D4000F081E02D6DE209958C0144275527BA0109
:100D50004C195D096E097F092AE0CE010E94420606
:100D6000800F911FDF91CF911F910F91FF90EF9016
:100D7000DF90CF9008952AE0B701A601DF91CF91CF
:100D80001F910F91FF90EF90DF90CF900C9442064F
:100D9000CF93DF93C0911702D091180241E064E035
:100DA000CE010E94DE0580919C0190919D010A97E1
:100DB0002CF46AE770E0CE010E946E0160919C0104
:100DC00070919D0180911702909118020E948E06E9
:100DD00068E770E080911702909118020E946E01FE
:100DE00080919A0190919B010A9744F466E770E024
:100DF00080911702909118020E946E0160919A01F1
:100E000070919B0180911702909118020E948E06AA
:100E100064E770E080911702909118020E946E01C1
:100E200080919801909199010A9744F462E770E0EB
:100E300080911702909118020E946E0160919801B2
:100E4000709199018091170290911802DF91CF91D2
:100E50000C948E06CF93DF93C0911702D0911802A5
:100E600040E064E0CE010E94DE0580919601909101
:100E700097010A972CF460E770E0CE010E946E01A2
:100E800060919601709197018091170290911802DC
:100E90000E948E066EE670E0809117029091180213
:100EA0000E946E0180919401909195010A9744F4FB
:100EB0006CE670E080911702909118020E946E011A
:100EC00060919401709195018091170290911802A0
:100ED0000E948E066AE670E08091170290911802D7
:100EE0000E946E0180919201909193010A9744F4BF
:100EF00068E670E080911702909118020E946E01DE
:100F00006091920170919301809117029091180263
:100F1000DF91CF910C948E060F931F930E94B20322
:100F200000918E0110918F012091900130919101DB
:100F3000601B710B820B930B643671058105910563
:100F400028F4012B022B032B09F096C08091940109
:100F500090919501181619063CF080919A01909194
:100F60009B01181619064CF41092240210922302C9
:100F70000E942A070E94C806FFCF8091240288237E
:100F8000B9F10E942A0780918A0190918B018930E2
:100F9000910509F07AC010928B0110928A0180911C
:100FA00092019091930120919401309195018B339E
:100FB000910509F064C010929301109292012F5F85
:100FC0003F4F30939501209394018091940190912B
:100FD0009501CC9769F4109295011092940180913B
:100FE00096019091970101969093970180939601B5
:100FF000809123028823B1F10E94C80680918C0160
:1010000090918D018930910509F04BC010928D01AE
:1010100010928C01809198019091990120919A01F0
:1010200030919B018B339105B1F51092990110928B
:1010300098012F5F3F4F30939B0120939A0180913D
:101040009A0190919B01CC9769F410929B011092A8
:101050009A0180919C0190919D01019690939D0130
:1010600080939C010E94B20360938E0170938F0164
:1010700080939001909391011F910F910895019693
:101080009093930180939201A0CF019690938B014E
:1010900080938A01ADCF0196909399018093980136
:1010A000CECF019690938D0180938C01DBCF85ED9F
:1010B0008093BC008091570290915802A0915902F0
:1010C000B0915A020796A11DB11D23E0B695A795D0
:1010D000979587952A95D1F72091BC0024FD03C0F0
:1010E0001092550208954091570250915802609114
:1010F000590270915A02452B462B472B69F30097F2
:10110000A105B10541F02AE22A95F1F700C0019747
:10111000A109B109E1CF809156020C9403041F92FA
:101120000F920FB60F9211242F933F934F935F931B
:101130006F937F938F939F93AF93BF93EF93FF939F
:101140008FE792E00E941002FF91EF91BF91AF9163
:101150009F918F917F916F915F914F913F912F91CF
:101160000F900FBE0F901F9018951F920F920FB601
:101170000F9211242F938F939F93EF93FF93E091FE
:101180008F02F09190028081E0919502F091960299
:1011900082FD1BC09081809198028F5F8F73209198
:1011A0009902821741F0E0919802F0E0E158FD4F7A
:1011B000958F80939802FF91EF919F918F912F913E
:1011C0000F900FBE0F901F9018958081F4CF1F9243
:1011D0000F920FB60F9211242F933F938F939F93EB
:1011E000AF93BF938091030290910402A0910502F6
:1011F000B09106023091020223E0230F2D3758F5FB
:101200000196A11DB11D20930202809303029093C9
:101210000402A0930502B093060280910702909108
:101220000802A0910902B0910A020196A11DB11D08
:101230008093070290930802A0930902B0930A02D8
:10124000BF91AF919F918F913F912F910F900FBEC2
:101250000F901F90189526E8230F0296A11DB11D2F
:10126000D2CF1F920F920FB60F9211242F933F935C
:101270004F935F936F937F938F939F93AF93BF939E
:10128000EF93FF938091B900887F803609F44AC0BC
:10129000F0F5883209F4A7C018F5803109F49BC035
:1012A000B8F4882309F4F9C0883009F494C0FF9198
:1012B000EF91BF91AF919F918F917F916F915F91CE
:1012C0004F913F912F910F900FBE0F901F90189547
:1012D000883109F488C0803251F78093530214C0DA
:1012E000803409F49DC040F48033B9F38833F9F6B3
:1012F0008093530285ECB0C0803509F485C08835F1
:1013000009F496C0883499F60E945708D0CF8839DE
:1013100009F48CC038F5883729F050F4883611F07C
:10132000803729F683E0809355021092010257C05E
:10133000883809F47BC0803919F0803809F0B7CFBC
:1013400080910102803208F071C0E091010281E0D9
:101350008E0F809301028091BB00F0E0EF51FE4FB1
:1013600080833DC0803B39F0E0F4803A09F479C0D5
:10137000883A09F09CCF84E0809355021092E001F6
:101380001092DF01E0910B02F0910C02099580911F
:10139000DF0181110FC081E08093DF011092BF0156
:1013A00009C0803C09F4A6CF883C09F4A3CF883B50
:1013B00009F07DCFE091E00181E08E0F8093E001A4
:1013C000F0E0E154FE4F80818093BB009091E001FA
:1013D0008091DF0129C0809130028093BB0085ECB1
:1013E0008093BC0064CF9091520280915102981773
:1013F00058F5E091520281E08E0F80935202F0E0A6
:10140000EF5CFD4F8081E9CFE091520281E08E0FC9
:10141000809352028091BB00F0E0EF5CFD4F80832F
:1014200090915202809151029817C8F285E8D8CF66
:10143000E091520281E08E0F809352028091BB00B6
:10144000F0E0EF5CFD4F80838091540281115CCF0E
:1014500081E080932F0284EA8093BC0010925502B1
:1014600026CF85EC8093BC0010925502809101023A
:10147000803230F4E0910102F0E0EF51FE4F108233
:101480006091010270E0E0910D02F0910E0281EE98
:1014900091E00995109201020ACF1092530234CFC5
:1014A000EFE7F2E01382128288EE93E0A0E0B0E072
:1014B00084839583A683B78324E231E0318320833C
:1014C00025EC30E03587248724EC30E03787268709
:1014D00020EC30E0318B208B21EC30E0338B228B01
:1014E00022EC30E0358B248B26EC30E0378B268BDA
:1014F000118E128E138E148EECE1F3E013821282A1
:1015000084839583A683B78386E391E09183808368
:101510000895789484B5826084BD84B5816084BD6B
:1015200085B5826085BD85B5816085BD80916E0081
:10153000816080936E0010928100809181008260B2
:1015400080938100809181008160809381008091EF
:1015500080008160809380008091B10084608093DE
:10156000B1008091B00081608093B00080917A00DA
:10157000846080937A0080917A00826080937A0000
:1015800080917A00816080937A0080917A008068EF
:1015900080937A001092C100E0918F02F091900246
:1015A00082E08083E0918B02F0918C021082E091C6
:1015B0008D02F0918E028FEC808310929702E09161
:1015C0009302F091940286E08083E0919102F09181
:1015D0009202808180618083E0919102F091920279
:1015E000808188608083E0919102F09192028081F5
:1015F00080688083E0919102F091920280818F7DDA
:1016000080831092100210920F020E94E5038CE674
:1016100091E090930C0280930B028DE691E0909301
:101620000E0280930D0211E0C1E0C0935B021093A3
:101630007D0210925C0210927E020E9424048111AD
:10164000BCC164E471E08FE792E00E943306103180
:1016500030F463E671E08FE792E00E943306412F99
:1016600050E070E060E020E18FE792E00E944206E7
:1016700065E671E08FE792E00E94330669E671E06B
:101680008FE792E00E9433068CE090E00E94EB101E
:10169000EC011B821A8288E191E0998388831C8384
:1016A00080E1888782E089871A8618E01B87D093BB
:1016B0001802C09317021092100210920F0210929B
:1016C0005C0210927E020E94E5038CE691E090930A
:1016D0000C0280930B028DE691E090930E028093B2
:1016E0000D021D828985823008F01D839A85992319
:1016F00029F0813019F48D8184608D8362E370E07C
:1017000080E090E00E9480036B85CE010E949105ED
:1017100068EE73E080E090E00E94800360E3CE0119
:101720000E94A8050BE416E4C8010197F1F760E3F5
:10173000CE010E94A805C8010197F1F760E3CE0130
:101740000E94A80583E592E00197F1F760E2CE01DF
:101750000E94A8056D81606240E0CE010E94C10533
:1017600084E08E8340E06CE0CE010E94C105CE0192
:101770000E940E0682E08F8340E066E0CE010E9468
:10178000C10540E062E0CE010E94C1058BE39FE10C
:101790000197F1F788E08B8760E0CE010E94910508
:1017A000CE010E940E0640E060E0CE010E94DE0500
:1017B0006CE671E0CE010E943306CEE1D0E00091EC
:1017C00017021091180241E060E0C8010E94DE0596
:1017D000CA30D1052CF463E671E0C8010E943306DB
:1017E000BE0180911702909118020E948E066DE74B
:1017F00071E080911702909118020E94330668EE02
:1018000073E080E090E00E9480032197C1F6C091D0
:101810001702D0911802CE010E940E0640E060E04F
:10182000CE010E94DE0567EE70E0CE010E946E01DF
:10183000C0911702D091180241E060E0CE010E94F1
:10184000DE0566ED70E0CE010E946E0162E085E08B
:101850000E941F0361E086E00E941F0361E087E0B1
:101860000E941F0362E088E00E941F0362E089E09B
:101870000E941F0360E083E00E941F0360E084E099
:101880000E941F0362E085E00E941F0383E00E9424
:10189000C80290931C0280931B0284E60E941706E4
:1018A000909316028093150288EEE82E83E0F82EBE
:1018B00090E0892E90E0992E23E0C22ED12C32E0C8
:1018C000A32EB12C80912D0290912E02039709F046
:1018D0003CC10E948C0788E00E94C802EC019093F2
:1018E0002C0280932B0289E00E94C80290932A0266
:1018F00080932902CD2B09F065C0019709F062C0E1
:101900000E94B203609325027093260280932702FF
:10191000909328028091290290912A0220912B0213
:1019200030912C02232B09F04DC0019709F04AC0D9
:1019300088E00E94C80290932C0280932B0289E0D9
:101940000E94C80290932A02809329020E948C0769
:101950000E94B203009125021091260220912702D5
:1019600030912802AB01BC01401B510B620B730B81
:1019700020910401309105012E9DC0012F9D900DF5
:101980003E9D900D1124092E000CAA0BBB0B48178D
:1019900059076A077B0708F4BDCF0E948C0761E0F6
:1019A00086E00E94F10260E087E00E94F10281E09F
:1019B0008093240210922302ADCF1F5F1F3709F0DE
:1019C00034CE62CE8091290290912A02892B09F0AF
:1019D00064C080912B0290912C02019709F05DC0A8
:1019E0000E94B20360931F02709320028093210231
:1019F0009093220280912B0290912C022091290237
:101A000030912A02232B09F048C0019709F045C004
:101A100088E00E94C80290932C0280932B0289E0F8
:101A20000E94C80290932A02809329020E948C0788
:101A30000E94B20300911F02109120022091210206
:101A400030912202AB01BC01401B510B620B730BA6
:101A500020910401309105012E9DC0012F9D900D14
:101A60003E9D900D1124092E000CAA0BBB0B4817AC
:101A700059076A077B0708F4BDCF0E948C0760E016
:101A800086E00E94F10261E087E00E94F10210927C
:101A9000240281E080932302ADCF80912B029091AC
:101AA0002C02892B09F052C28091290290912A02BE
:101AB000892B09F04BC20E94B203609325027093F8
:101AC0002602809327029093280280912B02909106
:101AD0002C02892B09F03AC28091290290912A02A6
:101AE000892B09F033C288E00E94C80290932C022F
:101AF00080932B0289E00E94C80290932A0280936F
:101B000029020E948C070E94B203009125021091C5
:101B100026022091270230912802601B710B820B54
:101B2000930B623371058105910578F20E948C0751
:101B300060E086E00E94F10260E087E00E94F1022E
:101B40001092240210922302C0CF83E00E94C802A8
:101B5000EC0190931E0280931D0280911B029091D4
:101B60001C02C817D90709F45EC084E00E94C802AD
:101B7000C817D90709F40CC16CE672E08FE792E050
:101B80000E946E0169E671E08FE792E00E943306E1
:101B900080912D0290912E02009709F0BDC0809196
:101BA000190290911A0201968330910594F5909351
:101BB0001A02809319028091190290911A028130C1
:101BC000910509F458C18230910509F471C1892B3E
:101BD00051F5C0911702D0911802CE010E940E0655
:101BE00040E060E0CE010E94DE0564E172E0CE01DB
:101BF0000E946E01C0911702D091180241E060E08E
:101C0000CE010E94DE0563E072E0CE010E946E010B
:101C10000AC0B0921A02A092190280912D029091EE
:101C20002E02892B41F280911D0290911E02909309
:101C30001C0280931B0285E00E94C802EC01809187
:101C4000020190910301C817D90751F00E94B20315
:101C50006093110270931202809313029093140206
:101C60000E94B203009111021091120220911302FE
:101C700030911402601B710B820B930B633371055F
:101C80008105910508F45EC18091000190910101E8
:101C9000C817D90709F456C1D0930101C0930001B8
:101CA000C130D10509F04EC180912D0290912E02D4
:101CB000009709F085C18091190290911A02813034
:101CC000910509F412C18230910509F44BC1892BA9
:101CD00009F038C1D0922E02C0922D020091170255
:101CE00010911802C8010E940E0640E060E0C80191
:101CF0000E94DE0566EB71E0C8010E946E01009152
:101D000017021091180241E060E0C8010E94DE0550
:101D100069EA71E0C80114C181309105E9F4C0910C
:101D20000401D09105012196D0930501C0930401CF
:101D3000009117021091180241E060E0C8010E9472
:101D4000DE05BE01C8010E948E0662E672E0809147
:101D500017029091180281C0029709F064CFC091D8
:101D60001502D09116022196D0931602C093150247
:101D7000009117021091180241E060E0C8010E9432
:101D8000DE05BE01C8010E948E0668E572E0DFCF65
:101D900064E472E08FE792E00E946E0169E671E010
:101DA0008FE792E00E94330680912D0290912E02DF
:101DB000009761F48091190290911A02019797FFA0
:101DC000F6CE10921A021092190227CF8130910597
:101DD00019F58091040190910501019797FD17C0B5
:101DE0009093050180930401C0911702D0911802CD
:101DF00041E060E0CE010E94DE0560910401709137
:101E00000501CE010E948E066AE372E0A0CF109217
:101E1000050110920401E8CF029709F004CF8091E8
:101E2000150290911602019797FD1AC09093160221
:101E300080931502C0911702D091180241E060E032
:101E4000CE010E94DE0560911502709116026115A7
:101E5000710559F46BE272E0CE010E946E01DDCE95
:101E60001092160210921502E5CFCE010E948E0646
:101E70006EE172E06CCFC0911702D0911802CE01D2
:101E80000E940E0640E060E0CE010E94DE0561EF98
:101E900071E0CE010E946E01C0911702D09118022C
:101EA00041E060E0CE010E94DE0560EE71E0ADCE63
:101EB000C0911702D0911802CE010E940E0640E098
:101EC00060E0CE010E94DE0564ED71E0CE010E946B
:101ED0006E01C0911702D091180241E060E0CE017E
:101EE0000E94DE0563EC71E090CED0932E02C09389
:101EF0002D020091170210911802C8010E940E06CF
:101F000040E060E0C8010E94DE056AE971E0C801B6
:101F10000E946E01009117021091180241E060E0EA
:101F2000C8010E94DE056091040170910501C8019D
:101F30000E948E0660E971E080911702909118026C
:101F40000E946E01D0930301C09302018114910499
:101F500009F4B8CC0E94FC01882309F4B3CC0E9498
:101F60000000B0CC90932E0280932D0200911702B6
:101F700010911802C8010E940E0640E060E0C801FE
:101F80000E94DE0560E871E0C8010E946E010091C8
:101F900017021091180241E060E0C8010E94DE05BE
:101FA00060911502709116026115710519F461E7CF
:101FB00071E0B0CEC8010E948E0667E671E0BCCF2A
:101FC0008130910509F07CC08AE00E9417060091DB
:101FD00004011091050180179107B1F08AE090E0AB
:101FE0000E94AD10801729F0602F8AE090E00E94D7
:101FF000B5108BE090E00E94AD10181729F0612F0A
:102000008BE090E00E94B510009117021091180229
:10201000C8010E940E0640E060E0C8010E94DE0593
:102020006DE571E0C8010E946E016091040170913C
:10203000050180911702909118020E948E066AE5B0
:1020400071E080911702909118020E946E01009138
:1020500017021091180241E060E0C8010E94DE05FD
:1020600069E471E0C8010E946E0168EE73E080E0EF
:1020700090E00E94800310921A02109219021092AE
:102080002E0210922D020091170210911802C80121
:102090000E940E0640E060E0C8010E94DE056FE38A
:1020A00071E0C8010E946E010091170210911802A0
:1020B00041E060E0C8010E94DE056EE271E02ACED8
:1020C000029709F03FCF0091170210911802C80142
:1020D0000E940E0640E060E0C8010E94DE056DE14E
:1020E00071E0C8010E946E01009117021091180260
:1020F00041E060E0C8010E94DE056CE071E0C801CB
:102100000E946E0168EE73E080E090E00E94800320
:1021100010921A021092190210922E0210922D02A1
:102120000091170210911802C8010E940E0640E0AB
:1021300060E0C8010E94DE0562E071E0C8010E9413
:102140006E01009117021091180241E060E0C80191
:102150000E94DE0561EF70E0DDCDF999FECF92BD02
:1021600081BDF89A992780B50895262FF999FECF59
:102170001FBA92BD81BD20BD0FB6F894FA9AF99AA4
:102180000FBE01960895A1E21A2EAA1BBB1BFD01EA
:102190000DC0AA1FBB1FEE1FFF1FA217B307E40746
:1021A000F50720F0A21BB30BE40BF50B661F771F9E
:1021B000881F991F1A9469F760957095809590957E
:1021C0009B01AC01BD01CF010895EE0FFF1F0590EB
:1021D000F491E02D09940F931F93CF93DF938230F6
:1021E000910510F482E090E0E0912A03F0912B0336
:1021F00030E020E0B0E0A0E0309799F421153105FF
:1022000009F44AC0281B390B24303105D8F58A81DE
:102210009B816115710589F1FB0193838283FE0126
:1022200011C0408151810281138148175907E0F0A4
:102230004817590799F4109761F012960C9312976A
:1022400013961C933296CF01DF91CF911F910F917E
:10225000089500932A0310932B03F4CF2115310521
:1022600051F04217530738F0A901DB019A01BD0173
:10227000DF01F801C1CFEF01F9CF90932B038093D9
:102280002A03CDCFFE01E20FF31F819391932250D9
:10229000310939832883D7CF20912803309129032E
:1022A000232B41F420910801309109013093290337
:1022B0002093280320910601309107012115310553
:1022C00041F42DB73EB740910A0150910B01241BF8
:1022D000350BE0912803F0912903E217F307A0F4EE
:1022E0002E1B3F0B2817390778F0AC014E5F5F4F6C
:1022F0002417350748F04E0F5F1F50932903409372
:102300002803819391939FCFF0E0E0E09CCFCF939F
:10231000DF930097E9F0FC01329713821282A091BB
:102320002A03B0912B03ED0130E020E01097A1F4D7
:1023300020813181820F931F20912803309129033E
:102340002817390709F061C0F0932903E0932803A7
:10235000DF91CF910895EA01CE17DF07E8F54A81B2
:102360005B819E0141155105B1F7E901FB83EA83C9
:1023700049915991C40FD51FEC17FD0761F4808175
:1023800091810296840F951FE90199838883828148
:1023900093819B838A83F0E0E0E012968D919C917B
:1023A00013970097B9F52D913C911197CD010296A5
:1023B000820F931F20912803309129032817390792
:1023C00039F6309751F510922B0310922A03B093EF
:1023D0002903A0932803BCCFD383C28340815181BA
:1023E000840F951FC817D90761F44E5F5F4F88812E
:1023F0009981480F591F518340838A819B81938320
:1024000082832115310509F0B0CFF0932B03E093BF
:102410002A039ECFFD01DC01C0CF13821282D7CFE9
:04242000F894FFCF5E
:1024240001000100050000002C03800000004000B2
:102434001400540000000000D8059201A505A4056D
:102444000000000032029201BF017F02F001CE01C0
:10245400E2010000000062053505A5050B052E0507
:102464001B050C0549324320646576696365206663
:102474006F756E6420617420616464726573732087
:102484003078003000202021000D0A00444F4D49CF
:102494004E4154494F4E2054494D45520020534813
:0A24A40041524557415245202000E7
:00000001FF
