:100000000C9411010C9439010C9439010C943901B0
:100010000C9439010C9439010C9439010C94390178
:100020000C9439010C9439010C9439010C94390168
:100030000C9439010C9439010C9439010C94390158
:100040000C94DC070C9439010C94AA070C948407D7
:100050000C9439010C9439010C9439010C94390138
:100060000C9439010C94390100000000250028008F
:100070002B0000000000240027002A0000000000E0
:1000800023002600290004040404040404040202DA
:100090000202020203030303030301020408102007
:1000A0004080010204081020010204081020000012
:1000B0000008000201000003040700000000000027
:1000C00000005741524E494E473A20436F6D6D75BF
:1000D0006E69636174696F6E206661696C757265C3
:1000E0002C20697320746865204D465243353232A6
:1000F0002070726F7065726C7920636F6E6E6563CD
:100100007465643F00203D2028756E6B6E6F776EBE
:100110002900203D20636F756E7465726665697491
:10012000206368697000203D2076322E3000203D2B
:100130002076312E3000203D2076302E3000203DBC
:100140002028636C6F6E6529004669726D77617255
:10015000652056657273696F6E3A20307800546579
:100160006D706C6174653A2068747470733A2F2FE7
:10017000646F63732E676F6F676C652E636F6D2F8F
:100180007370726561647368656574732F642F3171
:10019000454870644A6938763834654A2D36457862
:1001A000455054364A75506B7849395466626D38FB
:1001B0007638357A475246764A31512F65646974EC
:1001C0003F7573703D73686172696E670052656157
:1001D00064696E67206F66205246494420636172ED
:1001E000647320666F72205246494420446F6D69E3
:1001F0006E6174696F6E2054696D65720044657438
:100200006563746564205549442028636F646529DB
:10021000206F66205246494420434152443A200010
:10022000260811241FBECFEFD8E0DEBFCDBF11E0FE
:10023000A0E0B1E0E4E5F5E102C005900D92A03246
:10024000B107D9F721E0A0E2B1E001C01D92A73DBE
:10025000B207E1F711E0C1E1D1E004C02197FE014E
:100260000E94A20AC031D107C9F70E945D080C9410
:10027000A80A0C9400008CBD9DBD0895AF92BF925A
:10028000CF92DF92EF92FF920F931F93CF93DF9362
:100290006C017B018B01040F151FEB015E01AE1891
:1002A000BF08C017D10759F06991D601ED91FC91B3
:1002B0000190F081E02DC6010995892B79F7C501E0
:1002C000DF91CF911F910F91FF90EF90DF90CF9032
:1002D000BF90AF900895FC01538D448D252F30E0E1
:1002E000842F90E0821B930B541710F0CF96089543
:1002F00001970895FC01918D828D981761F0A28D70
:10030000AE0FBF2FB11D5D968C91928D9F5F9F7335
:10031000928F90E008958FEF9FEF0895FC01918DEB
:10032000828D981731F0828DE80FF11D858D90E058
:1003300008958FEF9FEF0895FC01918D228D892FF5
:1003400090E0805C9F4F821B91098F7399270895DD
:100350008AE291E00E949C0121E0892B09F420E0CF
:10036000822F089580E090E0892B29F00E94A80157
:1003700081110C9400000895FC01A48DA80FB92FE1
:10038000B11DA35ABF4F2C91848D90E001968F73BD
:100390009927848FA689B7892C93A089B1898C91DC
:1003A000837080648C93938D848D981306C002882B
:1003B000F389E02D80818F7D80830895EF92FF92F5
:1003C0000F931F93CF93DF93EC0181E0888F9B8D78
:1003D0008C8D98131AC0E889F989808185FF15C032
:1003E0009FB7F894EE89FF896083E889F989808155
:1003F0008370806480839FBF81E090E0DF91CF9124
:100400001F910F91FF90EF900895F62E0B8D10E045
:100410000F5F1F4F0F731127E02E8C8D8E110CC0B4
:100420000FB607FCFACFE889F989808185FFF5CFFF
:10043000CE010E94BC01F1CFEB8DEC0FFD2FF11D21
:10044000E35AFF4FF0829FB7F8940B8FEA89FB893C
:1004500080818062CFCF0F931F93CF93DF938C0166
:10046000D0E0C0E0F801EC0FFD1F6491662341F07D
:100470008AE291E00E94DE01892B11F02196F2CFF1
:10048000CE01DF91CF911F910F910895CF93DF930C
:10049000EC01888D8823B9F0AA89BB89E889F9899C
:1004A0008C9185FD03C0808186FD0DC00FB607FCD1
:1004B000F7CF8C9185FFF2CF808185FFEDCFCE0104
:1004C0000E94BC01E9CFDF91CF910895833081F084
:1004D00028F4813099F08230A9F008958730A9F08E
:1004E0008830C9F08430B1F4809180008F7D03C0E2
:1004F000809180008F7780938000089584B58F77F6
:1005000084BD089584B58F7DFBCF8091B0008F7737
:100510008093B00008958091B0008F7DF9CF1F9334
:10052000CF93DF93282F30E0F901E255FF4F8491FC
:10053000F901E656FF4FD491F901EA57FF4FC491F4
:10054000CC23A9F0162F81110E946602EC2FF0E057
:10055000EE0FFF1FE859FF4FA591B4918FB7F894A4
:10056000EC91111108C0D095DE23DC938FBFDF9191
:10057000CF911F910895DE2BF8CFCF93DF9390E0BA
:10058000FC01E656FF4F24918A579F4FFC0184914E
:100590008823D1F090E0880F991FFC01EE58FF4F9F
:1005A000A591B491FC01E859FF4FC591D491611117
:1005B0000EC09FB7F8948C91E22FE0958E238C9318
:1005C0002881E223E8839FBFDF91CF9108958FB701
:1005D000F894EC91E22BEC938FBFF6CF3FB7F894F1
:1005E0008091250190912601A0912701B0912801C9
:1005F00026B5A89B05C02F3F19F00196A11DB11D7E
:100600003FBFBA2FA92F982F8827BC01CD01620FB9
:10061000711D811D911D42E0660F771F881F991F74
:100620004A95D1F708958F929F92AF92BF92CF9241
:10063000DF92EF92FF920E94EE024B015C0182E397
:10064000C82ED12CE12CF12C0E94EE0268197909F8
:100650008A099B09683E734081059105A8F321E052
:10066000C21AD108E108F10888EE880E83E0981ECE
:10067000A11CB11CC114D104E104F10429F7FF90BD
:10068000EF90DF90CF90BF90AF909F908F900895A4
:10069000BC016E5F7F4FDC01ED91FC910190F08118
:1006A000E02D40E0099591E0811190E0892F0895B7
:1006B00008958EBD00000DB407FEFDCF8EB50895E0
:1006C000DF92EF92FF920F931F93CF93DF937C0102
:1006D000062FD42E152F80E590E00E943B0160E0AC
:1006E000F70186850E948F0282E10E945903CD2D79
:1006F000D12F0C0F1D2F111DC017D10721F089918B
:100700000E945903F9CF61E0F7018685DF91CF910F
:100710001F910F91FF90EF90DF900C948F021F9329
:10072000CF93DF93EC01162F80E590E00E943B0110
:1007300060E08E850E948F02812F80680E9459039D
:1007400080E00E945903182F61E08E850E948F027D
:10075000812FDF91CF911F9108950F931F93CF9316
:10076000DF93EC01062F142F80E590E00E943B01FF
:1007700060E08E850E948F02802F0E945903812F96
:100780000E94590361E08E85DF91CF911F910F91F7
:100790000C948F02CF92DF92EF92FF920F931F93F0
:1007A000CF93DF93EC016B01142F790140E062E0FD
:1007B0000E94AD0344E06AE0CE010E94AD0340E830
:1007C00064E1CE010E94AD03A601612FCE010E941B
:1007D000600343E062E0CE010E94AD0308E813E14C
:1007E0006AE0CE010E948F0382FF1BC040E062E0FE
:1007F000CE010E94AD0364E4CE010E948F03F70195
:10080000808362E4CE010E948F03F701818380E040
:10081000DF91CF911F910F91FF90EF90DF90CF90DC
:10082000089501501109E1F683E0F2CF3F924F9213
:100830005F926F927F928F929F92AF92BF92CF9270
:10084000DF92EF92FF920F931F93CF93DF9300D02D
:10085000CDB7DEB74C012B01D42E390180E0E11475
:10086000F10411F0F7018081BC2CB29490EFB92211
:10087000B80E40E062E0C4010E94AD034FE768E0BB
:10088000C4010E94AD0340E864E1C4010E94AD03CD
:10089000A2016D2DC4010E9460034B2D6AE1C401C9
:1008A0000E94AD034CE062E0C4010E94AD036AE126
:1008B000C4010E948F03482F40686AE1C4010E946E
:1008C000AD0320ED422E27E0522E68E0C4010E94C5
:1008D0008F03982F907309F0B6C080FD04C0F1E03B
:1008E0004F1A510891F783E094C06114710409F420
:1008F0006DC00115110509F469C064E1C4010E94CD
:100900008F03B82EF80180818B1508F496C0B08251
:10091000BB20E1F180E590E00E943B0160E0F40142
:1009200086850E948F02BA9482E90E945903CC20E6
:10093000B1F08FEF90E09C0102C0220F331FCA94E8
:10094000E2F7690182E90E9459039C2D9095F30119
:10095000208192238C21982B9083CC24C394230153
:100960004C0C511CCB1440F482E90E945903F20153
:1009700081932F01C394F6CF80E00E945903F201C6
:10098000808361E0F40186850E948F0268E1C401E2
:100990000E948F038770E114F10411F0F701808346
:1009A00033FC4DC06114710409F44BC001151105ED
:1009B00009F447C0AA2009F444C0F801408141303D
:1009C00039F4843009F049C08FEF23C080E0E8CFCC
:1009D000423008F442C0811140C042509E012F5F56
:1009E0003F4FB301C4010E94CA03811112C0F80134
:1009F0009081690E711CF30132972081998129132E
:100A00002CC0F1E06F1A7108F30120819A8129133B
:100A100024C00F900F90DF91CF911F910F91FF9005
:100A2000EF90DF90CF90BF90AF909F908F907F908E
:100A30006F905F904F903F90089584E0EACF82E0FE
:100A4000E8CF80E0E6CF6CE0C4010E948F03382E2F
:100A5000837109F44ACF81E0DCCF87E0DACF0F93CE
:100A60001F93CF93DF938C01D62FC42F0E948F0347
:100A7000C0954C2F48236D2FC801DF91CF911F9156
:100A80000F910C94AD038F929F92AF92CF92EF9201
:100A9000FF920F931F93CF93DF9300D000D01F924C
:100AA000CDB7DEB74C0182E08D8340E064E2C40143
:100AB0000E94AD0340E066E2C4010E94AD0346E23D
:100AC00068E4C4010E94AD0386E28B838D8182308D
:100AD000B0F140E86CE1C4010E942F0587E08C83EF
:100AE000A12CC12CCE0104967C018E010B5F1F4FFF
:100AF0009E012F5F3F4F41E0BE016D5F7F4FC401FC
:100B00000E941604982F811117C08D818230B9F48C
:100B10008C81811114C081E00F900F900F900F9085
:100B20000F90DF91CF911F910F91FF90EF90CF9099
:100B3000AF909F908F90089581E0923069F380E0AC
:100B4000EBCF2F923F924F925F926F927F928F9254
:100B50009F92AF92BF92CF92DF92EF92FF920F934C
:100B60001F93CF93DF93CDB7DEB72D970FB6F894D1
:100B7000DEBF0FBECDBF16E0413508F045C1342EB3
:100B80004B013C0140E86CE10E942F0583E9898319
:100B9000332029F081E0F4019081953008F480E061
:100BA00022242394B12C9B2D990F990F990FD32CAC
:100BB000D91AD7FCD12C32E0882319F098E89B830E
:100BC00033E021E09D2D977009F420E09D2D95954F
:100BD00095959595290FC9F094E0811193E0291717
:100BE00008F4922FEB2DF0E03196E80DF91D232F3C
:100BF0004191A1E0B0E0AC0FBD1FA20FB11D4C931D
:100C00002F5F422F431B491798F3882311F0F8E018
:100C1000DF0E8FE18D150CF082C090E79A838B81F7
:100C20009C8189279D8189279E8189278F839E01A9
:100C3000285F3F4F47E0BE016F5F7F4FC3010E94B7
:100C4000CA03182F8111E0C01A86E3E0EB87DC8627
:100C5000CE0107962C0199E09D87CA844C2D4295C0
:100C6000407F4C0D6AE1C3010E94AD03A12CCE016F
:100C70000A967C018E01055F1F4F92014D85BE01D2
:100C80006F5F7F4FC3010E941604182F823009F056
:100C900065C06CE1C3010E948F0385FDB5C08F71F3
:100CA00009F480E2282F30E04D2DDD0C550B421762
:100CB00053070CF09DC0D82EE82FE595E595E595F6
:100CC000EF5F982F977081E009F480E0E80F81E0F2
:100CD00090E08C0F9D1F8E0F911DFC01215031095A
:100CE0002770332781E090E002C0880F991F2A9572
:100CF000E2F79C018081822B80838BCF85E98983F9
:100D0000332031F081E0F4019081983008F04BCF2E
:100D100080E049CF87E9898326E0B22EF9CF9D2D67
:100D200097709A878D2D8595859585958E5F282F4F
:100D30002295207F290F2A8321E0911101C020E014
:100D4000280F2D8744244394512C4C0E5D1E480ED1
:100D5000511CE9E0E81BEB87DC867FCF811154C092
:100D600080E2D82E9C8590320CF457CF8B81883846
:100D700009F040C083E093E0EB2DF0E03196E80D00
:100D8000F91D980FA1E0B0E0AC0FBD1FA80FB11D79
:100D90002C9121938F5F8913F5CFBB84E3E0BE12C2
:100DA0004DC08A8581114AC09E012D5F3F4F41E0B1
:100DB000B201C3010E94CA03182F811125C09B8173
:100DC000F201818198133CC09C818281981338C0C4
:100DD000808182FF12C02394F2E02F1609F48ECF97
:100DE00083E0281609F496CF91E0291609F4CECEB7
:100DF00015E00AC082E094E0BFCFF4018387822D22
:100E0000880F820D8F5F8083812F2D960FB6F89407
:100E1000DEBF0FBECDBFDF91CF911F910F91FF902D
:100E2000EF90DF90CF90BF90AF909F908F907F908A
:100E30006F905F904F903F902F90089511E0E4CF16
:100E400017E0E2CF8F929F92AF92BF920F931F93C2
:100E5000CF93DF93CDB7DEB7A1970FB6F894DEBF7F
:100E60000FBECDBF19A2423008F44AE08E010F5DDB
:100E70001F4F842E912CB12CA12CA50194010E940E
:100E8000800AE62FB901CA01EA3044F5E05DD801D5
:100E9000EE938D01232B242B252B79F790E080E016
:100EA000109769F0FD0101900020E9F73197AF013B
:100EB0004A1B5B0BBD018AE291E00E943E01A196B4
:100EC0000FB6F894DEBF0FBECDBFDF91CF911F915B
:100ED0000F91BF90AF909F908F900895E95CD7CF0E
:100EE00042E050E06CE171E08AE291E00C943E0156
:100EF000CF93DF930E942B02EC010E9470078C0FAE
:100F00009D1FDF91CF9108951F920F920FB60F9200
:100F100011242F933F934F935F936F937F938F93FE
:100F20009F93AF93BF93EF93FF938AE291E00E9468
:100F3000BC01FF91EF91BF91AF919F918F917F91F4
:100F40006F915F914F913F912F910F900FBE0F9036
:100F50001F9018951F920F920FB60F9211242F9386
:100F60008F939F93EF93FF93E0913A01F0913B01B0
:100F70008081E0914001F091410182FD1BC0908190
:100F8000809143018F5F8F7320914401821741F05C
:100F9000E0914301F0E0E65DFE4F958F80934301C1
:100FA000FF91EF919F918F912F910F900FBE0F9016
:100FB0001F9018958081F4CF1F920F920FB60F9259
:100FC00011242F933F938F939F93AF93BF9380915F
:100FD000210190912201A0912301B091240130912F
:100FE000200123E0230F2D3758F50196A11DB11DD7
:100FF000209320018093210190932201A09323014B
:10100000B09324018091250190912601A0912701A0
:10101000B09128010196A11DB11D809325019093E7
:101020002601A0932701B0932801BF91AF919F9112
:101030008F913F912F910F900FBE0F901F90189599
:1010400026E8230F0296A11DB11DD2CFEAE2F1E0FE
:101050001382128288EE93E0A0E0B0E0848395834F
:10106000A683B78384E091E09183808385EC90E050
:101070009587848784EC90E09787868780EC90E062
:10108000918B808B81EC90E0938B828B82EC90E053
:10109000958B848B86EC90E0978B868B118E128ECD
:1010A000138E148EE7ECF1E086E191E0918380836A
:1010B0008AE0868789E087870895CF93DF9300D001
:1010C00000D0CDB7DEB7789484B5826084BD84B596
:1010D000816084BD85B5826085BD85B5816085BD33
:1010E00080916E00816080936E00109281008091EB
:1010F0008100826080938100809181008160809373
:101100008100809180008160809380008091B10097
:1011100084608093B1008091B00081608093B000C2
:1011200080917A00846080937A0080917A00826056
:1011300080937A0080917A00816080937A00809118
:101140007A00806880937A001092C100E0913A01A1
:10115000F0913B0182E08083E0913601F09137010C
:101160001082E0913801F09139018FEC8083109268
:101170004201E0913E01F0913F0186E08083E091E1
:101180003C01F0913D01808180618083E0913C01D0
:10119000F0913D01808188608083E0913C01F09175
:1011A0003D01808180688083E0913C01F0913D01A8
:1011B00080818F7D80838DEC91E00E9478078EE5A1
:1011C00091E00E9478071FB7F8948091290181115E
:1011D00027C0E0E9F0E08491E4EAF0E09491E82FA0
:1011E000F0E0EE0FFF1FEE58FF4FA591B491EC9188
:1011F000E92321F461E08AE00E948F0261E08AE045
:101200000E94BD028CB580618CBD8CB580648CBDA4
:1012100061E08DE00E94BD0261E08BE00E94BD02B2
:10122000809129018F5F809329011FBF61E0809128
:10123000D5010E94BD0261E08091D5010E948F021C
:101240008091D6018F3F09F4B9C060E00E94BD02D1
:101250002091D60130E0F901E255FF4F8491F90168
:10126000E656FF4FD490F901EA57FF4F1491111140
:1012700096C061E08091D6010E94BD0260E080913D
:10128000D6010E948F0283E090E00197F1F761E0C0
:101290008091D6010E948F020E94130340E064E215
:1012A00087EC91E00E94AD0340E066E287EC91E0BC
:1012B0000E94AD0346E268E487EC91E00E94AD0332
:1012C00040E864E587EC91E00E94AD0349EA66E5F9
:1012D00087EC91E00E94AD0343E068E587EC91E084
:1012E0000E94AD0348EE6AE587EC91E00E94AD03F1
:1012F00040E46AE287EC91E00E94AD034DE362E2D4
:1013000087EC91E00E94AD0368E287EC91E00E94D7
:101310008F03982F9370933039F0482F436068E221
:1013200087EC91E00E94AD036CE487EC91E00E94B1
:101330008F038077803791F040E76CE487EC91E091
:101340000E942F056CE487EC91E00E948F03482FE8
:1013500040676CE487EC91E00E94AD036EE687EC99
:1013600091E00E948F03182F89E491E00E942B02E4
:10137000612F70E090E080E040E10E94220786E368
:1013800091E01039B1F168F582E191E0123189F113
:101390008EE391E0183869F185E091E02AC081116F
:1013A0000E946602E12FF0E0EE0FFF1FE458FF4FAE
:1013B000A591B491EC91DE2209F45BCF4FE062E09D
:1013C00087EC91E00E94AD0313E00E94130362E0FA
:1013D00087EC91E00E948F0384FF60CF1150A9F742
:1013E0005DCF8EE291E0113921F086E291E0123971
:1013F00099F60E94780711501E3F20F082EC90E091
:101400000E94780720E1822E27E2922E38EE632E8A
:1014100033E0732E44E6D42E5AE0B52E90E0492EE8
:1014200090E0592E80E5382E87EC91E00E9443052C
:10143000882309F459C087EC91E00E94480388236F
:1014400009F452C08DEF91E00E942B028091CE01F1
:10145000889DB001899D700D11242091CD01269D9C
:10146000C001279D900D1124680F791F8091CC0138
:101470008D9D600D711D11248091CB018B9D600DA0
:10148000711D11248091CA01680F711D072E000C77
:10149000880B990B4AE00E9422070E94700739824C
:1014A0001A829E012D5F3F4F42E0BE016F5F7F4F6A
:1014B00087EC91E00E94CA03811110C0A12CC12CBD
:1014C000F12CE12C10E000E030E020E044E0BE012F
:1014D0006F5F7F4F87EC91E00E94160448E060E167
:1014E00087EC91E00E942F054114510409F49CCF30
:1014F0000E94A801882309F495CF0E9400008ECF96
:10150000A1E21A2EAA1BBB1BFD010DC0AA1FBB1F07
:10151000EE1FFF1FA217B307E407F50720F0A21B79
:10152000B30BE40BF50B661F771F881F991F1A94E6
:1015300069F760957095809590959B01AC01BD0110
:10154000CF010895EE0FFF1F0590F491E02D09944F
:04155000F894FFCF3D
:1015540000000000DE013E016B0146029C017A019D
:101564008E0100000000A105430548030D0A000098
:00000001FF
