:100000000C944B010C9473010C9473010C947301C8
:100010000C9473010C9473010C9473010C94730190
:100020000C9473010C9473010C9473010C94730180
:100030000C9473010C9473010C9473010C94730170
:100040000C9416080C9473010C94E4070C94BE07EE
:100050000C9473010C9473010C9473010C94730150
:100060000C9473010C94730100000000250028001B
:100070002B0000000000240027002A0000000000E0
:1000800023002600290004040404040404040202DA
:100090000202020203030303030301020408102007
:1000A0004080010204081020010204081020000012
:1000B0000008000201000003040700000000000027
:1000C00000005741524E494E473A20436F6D6D75BF
:1000D0006E69636174696F6E206661696C757265C3
:1000E0002C20697320746865204D465243353232A6
:1000F0002070726F7065726C7920636F6E6E6563CD
:100100007465643F00203D2028756E6B6E6F776EBE
:100110002900203D20636F756E7465726665697491
:10012000206368697000203D2076322E3000203D2B
:100130002076312E3000203D2076302E3000203DBC
:100140002028636C6F6E6529004669726D77617255
:10015000652056657273696F6E3A20307800556E6F
:100160006B6E6F776E20747970650053414B206918
:100170006E64696361746573205549442069732016
:100180006E6F7420636F6D706C6574652E004D49E1
:100190004641524520544E5033585858004D494618
:1001A0004152452044455346697265004D494641D8
:1001B000524520506C7573004D49464152452055BB
:1001C0006C7472616C69676874206F7220556C740E
:1001D00072616C696768742043004D49464152451D
:1001E00020344B42004D494641524520314B42009C
:1001F0004D4946415245204D696E692C20333230BD
:10020000206279746573005049434320636F6D70B9
:100210006C69616E7420776974682049534F2F4967
:10022000454320313830393220284E46432900508A
:1002300049434320636F6D706C69616E7420776908
:1002400074682049534F2F494543203134343433A7
:100250002D3400436F6465206F6620434152442073
:10026000666F72205246494420446F6D696E617416
:10027000696F6E2054696D65723A2000504943439E
:1002800020747970653A20004361726420554944B6
:100290003A200000600811241FBECFEFD8E0DEBF77
:1002A000CDBF11E0A0E0B1E0E0E5F6E102C00590CD
:1002B0000D92A036B107D9F722E0A0E6B1E001C067
:1002C0001D92A731B207E1F711E0CBE4D1E004C001
:1002D0002197FE010E94200BCA34D107C9F70E9462
:1002E00097080C94260B0C9400008CBD9DBD0895BE
:1002F000AF92BF92CF92DF92EF92FF920F931F9334
:10030000CF93DF936C017B018B01040F151FEB0171
:100310005E01AE18BF08C017D10759F06991D60128
:10032000ED91FC910190F081E02DC6010995892B9A
:1003300079F7C501DF91CF911F910F91FF90EF9059
:10034000DF90CF90BF90AF900895FC01538D448D06
:10035000252F30E0842F90E0821B930B541710F070
:10036000CF96089501970895FC01918D828D98177D
:1003700061F0A28DAE0FBF2FB11D5D968C91928D55
:100380009F5F9F73928F90E008958FEF9FEF089586
:10039000FC01918D828D981731F0828DE80FF11D4F
:1003A000858D90E008958FEF9FEF0895FC01918D6A
:1003B000228D892F90E0805C9F4F821B91098F7363
:1003C000992708958AE691E00E94D60121E0892BC1
:1003D00009F420E0822F089580E090E0892B29F035
:1003E0000E94E20181110C9400000895FC01A48D8B
:1003F000A80FB92FB11DA35ABF4F2C91848D90E047
:1004000001968F739927848FA689B7892C93A08929
:10041000B1898C91837080648C93938D848D9813B3
:1004200006C00288F389E02D80818F7D8083089546
:10043000EF92FF920F931F93CF93DF93EC0181E034
:10044000888F9B8D8C8D98131AC0E889F9898081DB
:1004500085FF15C09FB7F894EE89FF896083E8890E
:10046000F98980818370806480839FBF81E090E000
:10047000DF91CF911F910F91FF90EF900895F62E8D
:100480000B8D10E00F5F1F4F0F731127E02E8C8D27
:100490008E110CC00FB607FCFACFE889F98980816C
:1004A00085FFF5CFCE010E94F601F1CFEB8DEC0F69
:1004B000FD2FF11DE35AFF4FF0829FB7F8940B8F89
:1004C000EA89FB8980818062CFCF0F931F93CF93FE
:1004D000DF938C01D0E0C0E0F801EC0FFD1F6491C8
:1004E000662341F08AE691E00E941802892B11F000
:1004F0002196F2CFCE01DF91CF911F910F910895F8
:10050000CF93DF93EC01888D8823B9F0AA89BB894A
:10051000E889F9898C9185FD03C0808186FD0DC035
:100520000FB607FCF7CF8C9185FFF2CF808185FF56
:10053000EDCFCE010E94F601E9CFDF91CF91089572
:10054000833081F028F4813099F08230A9F0089549
:100550008730A9F08830C9F08430B1F480918000F0
:100560008F7D03C0809180008F77809380000895F5
:1005700084B58F7784BD089584B58F7DFBCF80913E
:10058000B0008F778093B00008958091B0008F7D88
:10059000F9CF1F93CF93DF93282F30E0F901E25575
:1005A000FF4F8491F901E656FF4FD491F901EA57C4
:1005B000FF4FC491CC23A9F0162F81110E94A002F5
:1005C000EC2FF0E0EE0FFF1FE859FF4FA591B4911B
:1005D0008FB7F894EC91111108C0D095DE23DC930D
:1005E0008FBFDF91CF911F910895DE2BF8CFCF936E
:1005F000DF9390E0FC01E656FF4F24918A579F4F0E
:10060000FC0184918823D1F090E0880F991FFC01B0
:10061000EE58FF4FA591B491FC01E859FF4FC591E9
:10062000D49161110EC09FB7F8948C91E22FE095A0
:100630008E238C932881E223E8839FBFDF91CF91A3
:1006400008958FB7F894EC91E22BEC938FBFF6CF1F
:100650003FB7F8948091650190916601A091670180
:10066000B091680126B5A89B05C02F3F19F00196EF
:10067000A11DB11D3FBFBA2FA92F982F8827BC01FC
:10068000CD01620F711D811D911D42E0660F771F24
:10069000881F991F4A95D1F708958F929F92AF9224
:1006A000BF92CF92DF92EF92FF920E9428034B01FC
:1006B0005C0182E3C82ED12CE12CF12C0E9428038E
:1006C000681979098A099B09683E7340810591057B
:1006D000A8F321E0C21AD108E108F10888EE880EDB
:1006E00083E0981EA11CB11CC114D104E104F104E3
:1006F00029F7FF90EF90DF90CF90BF90AF909F9041
:100700008F900895BC016E5F7F4FDC01ED91FC91ED
:100710000190F081E02D40E0099591E0811190E099
:10072000892F089508958EBD00000DB407FEFDCFFA
:100730008EB50895DF92EF92FF920F931F93CF93A0
:10074000DF937C01062FD42E152F80E591E00E94C7
:10075000750160E0F70186850E94C90282E10E946E
:100760009303CD2DD12F0C0F1D2F111DC017D107B5
:1007700021F089910E949303F9CF61E0F70186850A
:10078000DF91CF911F910F91FF90EF90DF900C942C
:10079000C9021F93CF93DF93EC01162F80E591E000
:1007A0000E94750160E08E850E94C902812F8068D9
:1007B0000E94930380E00E949303182F61E08E85CE
:1007C0000E94C902812FDF91CF911F9108950F934D
:1007D0001F93CF93DF93EC01062F142F80E591E058
:1007E0000E94750160E08E850E94C902802F0E94E0
:1007F0009303812F0E94930361E08E85DF91CF9157
:100800001F910F910C94C902CF92DF92EF92FF9249
:100810000F931F93CF93DF93EC016B01142F79019A
:1008200040E062E00E94E70344E06AE0CE010E94FB
:10083000E70340E864E1CE010E94E703A601612FCF
:10084000CE010E949A0343E062E0CE010E94E703DA
:1008500008E813E16AE0CE010E94C90382FF1BC0D1
:1008600040E062E0CE010E94E70364E4CE010E9412
:10087000C903F701808362E4CE010E94C903F70136
:10088000818380E0DF91CF911F910F91FF90EF90D6
:10089000DF90CF90089501501109E1F683E0F2CF87
:1008A0003F924F925F926F927F928F929F92AF9200
:1008B000BF92CF92DF92EF92FF920F931F93CF934D
:1008C000DF9300D0CDB7DEB74C012B01D42E390118
:1008D00080E0E114F10411F0F7018081BC2CB294A6
:1008E00090EFB922B80E40E062E0C4010E94E70335
:1008F0004FE768E0C4010E94E70340E864E1C401F7
:100900000E94E703A2016D2DC4010E949A034B2DA2
:100910006AE1C4010E94E7034CE062E0C4010E9466
:10092000E7036AE1C4010E94C903482F40686AE1F5
:10093000C4010E94E70320ED422E27E0522E68E01A
:10094000C4010E94C903982F907309F0B6C080FDBE
:1009500004C0F1E04F1A510891F783E094C061148C
:10096000710409F46DC00115110509F469C064E151
:10097000C4010E94C903B82EF80180818B1508F4C8
:1009800096C0B082BB20E1F180E591E00E94750144
:1009900060E0F40186850E94C902BA9482E90E944F
:1009A0009303CC20B1F08FEF90E09C0102C0220FA6
:1009B000331FCA94E2F7690182E90E9493039C2DD8
:1009C0009095F301208192238C21982B9083CC2445
:1009D000C39423014C0C511CCB1440F482E90E94B7
:1009E0009303F20181932F01C394F6CF80E00E941C
:1009F0009303F201808361E0F40186850E94C902BD
:100A000068E1C4010E94C9038770E114F10411F088
:100A1000F701808333FC4DC06114710409F44BC0AD
:100A20000115110509F447C0AA2009F444C0F801D2
:100A30004081413039F4843009F049C08FEF23C040
:100A400080E0E8CF423008F442C0811140C04250FB
:100A50009E012F5F3F4FB301C4010E940404811126
:100A600012C0F8019081690E711CF3013297208148
:100A7000998129132CC0F1E06F1A7108F3012081CC
:100A80009A81291324C00F900F90DF91CF911F916D
:100A90000F91FF90EF90DF90CF90BF90AF909F901D
:100AA0008F907F906F905F904F903F90089584E07B
:100AB000EACF82E0E8CF80E0E6CF6CE0C4010E949C
:100AC000C903382E837109F44ACF81E0DCCF87E077
:100AD000DACF0F931F93CF93DF938C01D62FC42FC0
:100AE0000E94C903C0954C2F48236D2FC801DF9188
:100AF000CF911F910F910C94E7038F929F92AF9229
:100B0000CF92EF92FF920F931F93CF93DF9300D07A
:100B100000D01F92CDB7DEB74C0182E08D8340E05C
:100B200064E2C4010E94E70340E066E2C4010E945F
:100B3000E70346E268E4C4010E94E70386E28B8390
:100B40008D818230B0F140E86CE1C4010E946905FA
:100B500087E08C83A12CC12CCE0104967C018E01F0
:100B60000B5F1F4F9E012F5F3F4F41E0BE016D5F46
:100B70007F4FC4010E945004982F811117C08D81AE
:100B80008230B9F48C81811114C081E00F900F90F4
:100B90000F900F900F90DF91CF911F910F91FF90C9
:100BA000EF90CF90AF909F908F90089581E092301A
:100BB00069F380E0EBCF2F923F924F925F926F925A
:100BC0007F928F929F92AF92BF92CF92DF92EF92DD
:100BD000FF920F931F93CF93DF93CDB7DEB72D977F
:100BE0000FB6F894DEBF0FBECDBF16E0413508F05A
:100BF00045C1342E4B013C0140E86CE10E9469057F
:100C000083E98983332029F081E0F40190819530D4
:100C100008F480E022242394B12C9B2D990F990F86
:100C2000990FD32CD91AD7FCD12C32E0882319F094
:100C300098E89B8333E021E09D2D977009F420E034
:100C40009D2D959595959595290FC9F094E0811165
:100C500093E0291708F4922FEB2DF0E03196E80D80
:100C6000F91D232F4191A1E0B0E0AC0FBD1FA20FF1
:100C7000B11D4C932F5F422F431B491798F38823D4
:100C800011F0F8E0DF0E8FE18D150CF082C090E7D7
:100C90009A838B819C8189279D8189279E818927C1
:100CA0008F839E01285F3F4F47E0BE016F5F7F4FFC
:100CB000C3010E940404182F8111E0C01A86E3E0EA
:100CC000EB87DC86CE0107962C0199E09D87CA84CC
:100CD0004C2D4295407F4C0D6AE1C3010E94E70311
:100CE000A12CCE010A967C018E01055F1F4F920157
:100CF0004D85BE016F5F7F4FC3010E945004182FC6
:100D0000823009F065C06CE1C3010E94C90385FD12
:100D1000B5C08F7109F480E2282F30E04D2DDD0C35
:100D2000550B421753070CF09DC0D82EE82FE595C0
:100D3000E595E595EF5F982F977081E009F480E0E5
:100D4000E80F81E090E08C0F9D1F8E0F911DFC013C
:100D5000215031092770332781E090E002C0880FCD
:100D6000991F2A95E2F79C018081822B80838BCF8B
:100D700085E98983332031F081E0F4019081983056
:100D800008F04BCF80E049CF87E9898326E0B22E77
:100D9000F9CF9D2D97709A878D2D85958595859591
:100DA0008E5F282F2295207F290F2A8321E0911121
:100DB00001C020E0280F2D8744244394512C4C0E71
:100DC0005D1E480E511CE9E0E81BEB87DC867FCFF7
:100DD000811154C080E2D82E9C8590320CF457CFFC
:100DE0008B81883809F040C083E093E0EB2DF0E080
:100DF0003196E80DF91D980FA1E0B0E0AC0FBD1FD2
:100E0000A80FB11D2C9121938F5F8913F5CFBB845F
:100E1000E3E0BE124DC08A8581114AC09E012D5F5C
:100E20003F4F41E0B201C3010E940404182F811119
:100E300025C09B81F201818198133CC09C818281F5
:100E4000981338C0808182FF12C02394F2E02F16DD
:100E500009F48ECF83E0281609F496CF91E0291685
:100E600009F4CECE15E00AC082E094E0BFCFF401D1
:100E70008387822D880F820D8F5F8083812F2D962F
:100E80000FB6F894DEBF0FBECDBFDF91CF911F919B
:100E90000F91FF90EF90DF90CF90BF90AF909F9019
:100EA0008F907F906F905F904F903F902F9008951C
:100EB00011E0E4CF17E0E2CF8F929F92AF92BF9202
:100EC0000F931F93CF93DF93CDB7DEB7A1970FB6E4
:100ED000F894DEBF0FBECDBF19A2423008F44AE03D
:100EE0008E010F5D1F4F842E912CB12CA12CA501DA
:100EF00094010E94FE0AE62FB901CA01EA3044F5C6
:100F0000E05DD801EE938D01232B242B252B79F75F
:100F100090E080E0109769F0FD0101900020E9F772
:100F20003197AF014A1B5B0BBD018AE691E00E943D
:100F30007801A1960FB6F894DEBF0FBECDBFDF914A
:100F4000CF911F910F91BF90AF909F908F90089578
:100F5000E95CD7CF42E050E06DE571E08AE691E0D0
:100F60000C947801CF93DF930E946502EC010E94FC
:100F7000AA078C0F9D1FDF91CF9108951F920F92AA
:100F80000FB60F9211242F933F934F935F936F935C
:100F90007F938F939F93AF93BF93EF93FF938AE6D3
:100FA00091E00E94F601FF91EF91BF91AF919F9167
:100FB0008F917F916F915F914F913F912F910F9002
:100FC0000FBE0F901F9018951F920F920FB60F92A1
:100FD00011242F938F939F93EF93FF93E0917A01C6
:100FE000F0917B018081E0918001F091810182FD8F
:100FF0001BC09081809183018F5F8F73209184014A
:10100000821741F0E0918301F0E0E659FE4F958FA1
:1010100080938301FF91EF919F918F912F910F907A
:101020000FBE0F901F9018958081F4CF1F920F92E2
:101030000FB60F9211242F933F938F939F93AF93EB
:10104000BF938091610190916201A0916301B09181
:1010500064013091600123E0230F2D3758F501968C
:10106000A11DB11D209360018093610190936201E5
:10107000A0936301B0936401809165019091660132
:10108000A0916701B09168010196A11DB11D8093E7
:10109000650190936601A0936701B0936801BF91C9
:1010A000AF919F918F913F912F910F900FBE0F9015
:1010B0001F90189526E8230F0296A11DB11DD2CFCF
:1010C000EAE6F1E01382128288EE93E0A0E0B0E05D
:1010D00084839583A683B78385E491E0918380839D
:1010E00085EC90E09587848784EC90E097878687ED
:1010F00080EC90E0918B808B81EC90E0938B828BE5
:1011000082EC90E0958B848B86EC90E0978B868BBD
:10111000118E128E138E148EE7E0F2E087E591E0D7
:10112000918380838AE0868789E087870895CF93BB
:10113000DF9300D000D0CDB7DEB7789484B582605D
:1011400084BD84B5816084BD85B5826085BD85B56B
:10115000816085BD80916E00816080936E001092E9
:101160008100809181008260809381008091810064
:1011700081608093810080918000816080938000F5
:101180008091B10084608093B1008091B000816053
:101190008093B00080917A00846080937A0080917F
:1011A0007A00826080937A0080917A0081608093D7
:1011B0007A0080917A00806880937A001092C10052
:1011C000E0917A01F0917B0182E08083E0917601E9
:1011D000F09177011082E0917801F09179018FEC24
:1011E000808310928201E0917E01F0917F0186E080
:1011F0008083E0917C01F0917D018081806180831A
:10120000E0917C01F0917D01808188608083E09194
:101210007C01F0917D01808180688083E0917C0178
:10122000F0917D0180818F7D80831FB7F89480913C
:101230006901811127C0E0E9F0E08491E4EAF0E07F
:101240009491E82FF0E0EE0FFF1FEE58FF4FA591AD
:10125000B491EC91E92321F461E08AE00E94C90293
:1012600061E08AE00E94F7028CB580618CBD8CB58C
:1012700080648CBD61E08DE00E94F70261E08BE04C
:101280000E94F702809169018F5F809369011FBFFF
:1012900061E0809115020E94F70261E080911502E1
:1012A0000E94C902809116028F3F09F4B9C060E024
:1012B0000E94F7022091160230E0F901E255FF4F3B
:1012C0008491F901E656FF4F9490F901EA57FF4FD8
:1012D0001491111196C061E0809116020E94F702EC
:1012E00060E0809116020E94C90283E090E00197BD
:1012F000F1F761E0809116020E94C9020E944D033D
:1013000040E064E287E092E00E94E70340E066E2AA
:1013100087E092E00E94E70346E268E487E092E01B
:101320000E94E70340E864E587E092E00E94E7035B
:1013300049EA66E587E092E00E94E70343E068E55A
:1013400087E092E00E94E70348EE6AE587E092E0DA
:101350000E94E70340E46AE287E092E00E94E7032C
:101360004DE362E287E092E00E94E70368E287E0F3
:1013700092E00E94C903982F9370933039F0482F60
:10138000436068E287E092E00E94E7036CE487E054
:1013900092E00E94C9038077803791F040E76CE4C7
:1013A00087E092E00E9469056CE487E092E00E9489
:1013B000C903482F40676CE487E092E00E94E7038E
:1013C0006EE687E092E00E94C903182F89E491E05D
:1013D0000E946502612F70E090E080E040E10E9491
:1013E0005C0786E391E01039B1F168F582E191E0A4
:1013F000123189F18EE391E0183869F185E091E0CE
:101400002AC081110E94A002E12FF0E0EE0FFF1F21
:10141000E458FF4FA591B491EC919E2209F45BCF63
:101420004FE062E087E092E00E94E70313E00E9451
:101430004D0362E087E092E00E94C90384FF60CF21
:101440001150A9F75DCF8EE291E0113921F086E2CB
:1014500091E0123999F60E94B20711501E3F20F018
:1014600082EC90E00E94B20780E1882E87E2982EFD
:1014700098EE692E93E0792E87E092E00E947D0538
:10148000882309F49CC087E092E00E9482038823AD
:1014900009F495C088E892E00E94650283E592E035
:1014A0000E94650280910E02889DB001899D700D99
:1014B000112420910D02269DC001279D900D11241D
:1014C000680F791F80910C0294E6899F600D711D51
:1014D000112480910B029AE0899F600D711D1124E7
:1014E00080910A02680F711D072E000C880B990B62
:1014F0004AE00E945C070E94AA070E94AA078CE7A4
:1015000092E00E946502E0911402EF77E13470F4FA
:10151000F0E0E050FF4F8081853009F460C088F42E
:10152000823019F130F4813009F465C08EE591E024
:101530001EC0833009F450C08430C1F785EE91E0BD
:1015400016C0883009F451C040F4863009F44AC00E
:10155000873061F78CEA91E00AC0893009F448C00D
:101560008F3F21F78BE691E002C087E092E00E9476
:10157000B20780E589831A829E012D5F3F4F42E0CA
:10158000BE016F5F7F4F87E092E00E9404048111EB
:1015900010C0A12CC12CF12CE12C10E000E030E0B7
:1015A00020E044E0BE016F5F7F4F87E092E00E9441
:1015B000500448E060E187E092E00E94690580E025
:1015C00090E0892B09F458CF0E94E201882309F4A6
:1015D00053CF0E94000050CF80EF91E0C8CF8AED3A
:1015E00091E0C5CF88EB91E0C2CF8DE991E0BFCF0C
:1015F0008EE891E0BCCF8FE292E0B9CFA1E21A2E43
:10160000AA1BBB1BFD010DC0AA1FBB1FEE1FFF1FA6
:10161000A217B307E407F50720F0A21BB30BE40BF6
:10162000F50B661F771F881F991F1A9469F760953D
:101630007095809590959B01AC01BD01CF010895F7
:10164000EE0FFF1F0590F491E02D0994F894FFCF61
:1016500006090000FF000000040300000000000075
:101660000707000000000000050000000000000067
:101670000100000000000000000000000000000069
:10168000000000000000000000000000000000005A
:10169000020000000018027801A5018002D601B402
:1016A00001C80100000000DB057D0582030D0A0072
:00000001FF
