:100000000C9434010C945C010C945C010C945C0124
:100010000C945C010C945C010C945C010C94440DF8
:100020000C945C010C945C010C945C010C945C01DC
:100030000C945C010C945C010C945C010C945C01CC
:100040000C941E0E0C945C010C94EC0D0C94C60DDB
:100050000C945C010C945C010C945C010C945C01AC
:100060000C94680E0C945C013000300030003000BD
:100070003000300000000000240027002A000000AB
:1000800000002300260029000000000800020100F3
:100090000003040700000000000000005741524E1A
:1000A000494E473A20436F6D6D756E69636174699F
:1000B0006F6E206661696C7572652C20697320749F
:1000C0006865204D4652433532322070726F70653C
:1000D000726C7920636F6E6E65637465643F002097
:1000E0003D2028756E6B6E6F776E2900203D206372
:1000F0006F756E74657266656974206368697000F7
:10010000203D2076322E3000203D2076312E3000EA
:10011000203D2076302E3000203D2028636C6F6E0D
:100120006529004669726D77617265205665727344
:10013000696F6E3A203078004752452030303A30AF
:10014000303A3030005245442030303A30303A3086
:10015000300043617264205549443A200041747470
:100160006163682052454420636172640044657491
:10017000656374656420636172642066726F6D20CC
:10018000455241534552004465746563746564206B
:10019000636172642066726F6D2052454645524518
:1001A0004500436172642066726F6D20475245209E
:1001B0007465616D00436172642066726F6D2052D8
:1001C0004544207465616D00436172642055494463
:1001D0003A200001020408102040800102040810A7
:1001E0002001020408102000000000250028002B38
:1001F00000040404040404040402020202020203D0
:100200000303030303027072657061726520746FEB
:100210002067616D6500416C6C20636172647320BE
:10022000736176656400417474616368204552416E
:1002300020636172640041747461636820524546B2
:1002400020636172640041747461636820475245A1
:10025000206361726400436F6465206F66204341D0
:1002600052443A200000870F11241FBECFEFD8E080
:10027000DEBFCDBF11E0A0E0B1E0E4EBF8E202C0E8
:1002800005900D92A634B107D9F723E0A6E4B1E0BA
:1002900001C01D92AD30B207E1F711E0C4E3D1E037
:1002A00004C02197FE010E945214C333D107C9F73D
:1002B0000E94DB0F0C9458140C9400008CBD9DBD63
:1002C000089508950895EF92FF920F931F93CF938F
:1002D000DF938C017B01D0E0C0E0F701EC0FFD1F44
:1002E0006491662361F0D801ED91FC910190F08159
:1002F000E02DC8010995892B11F02196EECFCE0192
:10030000DF91CF911F910F91FF90EF900895AF92E1
:10031000BF92CF92DF92EF92FF920F931F93CF93F2
:10032000DF936C017B018B01040F151FEB015E0154
:10033000AE18BF08C017D10759F06991D601ED91E9
:10034000FC910190F081E02DC6010995892B79F788
:10035000C501DF91CF911F910F91FF90EF90DF903A
:10036000CF90BF90AF900895FC01538D448D252F01
:1003700030E0842F90E0821B930B541710F0CF963F
:10038000089501970895FC01918D828D981761F071
:10039000A28DAE0FBF2FB11D5D968C91928D9F5F88
:1003A0009F73928F90E008958FEF9FEF0895FC0167
:1003B000918D828D981731F0828DE80FF11D858D1A
:1003C00090E008958FEF9FEF0895FC01918D228DAD
:1003D000892F90E0805C9F4F821B91098F73992732
:1003E000089588E492E00E94E50121E0892B09F458
:1003F00020E0822F089580E090E0892B29F00E9470
:10040000F10181110C9400000895FC01A48DA80F46
:10041000B92FB11DA35ABF4F2C91848D90E0019646
:100420008F739927848FA689B7892C93A089B18966
:100430008C91837080648C93938D848D981306C007
:100440000288F389E02D80818F7D80830895EF926B
:10045000FF920F931F93CF93DF93EC0181E0888F7E
:100460009B8D8C8D98131AC0E889F989808185FF4E
:1004700015C09FB7F894EE89FF896083E889F989F0
:1004800080818370806480839FBF81E090E0DF91F2
:10049000CF911F910F91FF90EF900895F62E0B8D45
:1004A00010E00F5F1F4F0F731127E02E8C8D8E1100
:1004B0000CC00FB607FCFACFE889F989808185FF67
:1004C000F5CFCE010E940502F1CFEB8DEC0FFD2F91
:1004D000F11DE35AFF4FF0829FB7F8940B8FEA8922
:1004E000FB8980818062CFCFCF93DF93EC01888D31
:1004F0008823B9F0AA89BB89E889F9898C9185FD9F
:1005000003C0808186FD0DC00FB607FCF7CF8C912C
:1005100085FFF2CF808185FFEDCFCE010E940502DD
:10052000E9CFDF91CF910895833081F028F48130B5
:1005300099F08230A9F008958730A9F08830C9F089
:100540008430B1F4809180008F7D03C08091800061
:100550008F7780938000089584B58F7784BD089548
:1005600084B58F7DFBCF8091B0008F778093B000F2
:1005700008958091B0008F7DF9CF1F93CF93DF93C3
:10058000282F30E0F901E857FF4F8491F901ED522F
:10059000FE4FD491F901EF50FE4FC491CC23A9F046
:1005A000162F81110E949402EC2FF0E0EE0FFF1F36
:1005B000E951FE4FA591B4918FB7F894EC911111C8
:1005C00008C0D095DE23DC938FBFDF91CF911F91C0
:1005D0000895DE2BF8CFCF93DF9390E0FC01ED522E
:1005E000FE4F24918F509E4FFC0184918823D1F0BF
:1005F00090E0880F991FFC01EC58FF4FA591B49132
:10060000FC01E951FE4FC591D49161110EC09FB715
:10061000F8948C91E22FE0958E238C932881E2232D
:10062000E8839FBFDF91CF9108958FB7F894EC9145
:10063000E22BEC938FBFF6CFCF93809100018530F2
:1006400021F08F3F61F1CF910895E5E0F2E0C49190
:10065000C7FDF9CF61E085E00E94EB02CC2309F4ED
:100660008CC0C23009F0A1C08091B100887F836046
:100670008093B1008CE78093B30088E790E0A0E01E
:10068000B0E08093260290932702A0932802B093B3
:10069000290280917000826080937000D4CF85E041
:1006A00080930001E5E0F2E0C491CF3F61F2C130F8
:1006B00021F150F0C23009F43EC0C7FDC4CF61E063
:1006C00085E00E94EB02CDCF14BC15BC84B58260DE
:1006D00084BD85B5816085BDE6EFF1E0E491F0E091
:1006E000EE0FFF1FE951FE4F85919491E8EDF1E087
:1006F000E491E0932502C0E0ADCF1092800010920B
:1007000081008091810088608093810080918100C8
:10071000816080938100E6EFF1E0E491F0E0EE0F7C
:10072000FF1FE951FE4F85919491E8EDF1E0E491CE
:10073000E09324028FCF1092B0001092B10080910C
:10074000B00082608093B0008091B100816080939E
:10075000B100E6EFF1E0E491F0E0EE0FFF1FE951A8
:10076000FE4F859194919093230280932202E8EDAD
:10077000F1E0E491E09321026DCF85B5887F83603D
:1007800085BD8DE387BD88E790E0A0E0B0E0809371
:100790002E0290932F02A0933002B09331028091E9
:1007A0006E00826080936E004ECFC130F1F4809174
:1007B0008100887F8160809381008FE99FE0909322
:1007C00089008093880088E790E0A0E0B0E0809303
:1007D0002A0290932B02A0932C02B0932D028091B9
:1007E0006F00826080936F002ECFC23021F0C11164
:1007F0002ACF8FE9C7CF8FE93ECF3FB7F8948091DA
:10080000FD019091FE01A091FF01B091000226B57B
:10081000A89B05C02F3F19F00196A11DB11D3FBF38
:10082000BA2FA92F982F8827BC01CD01620F711D07
:10083000811D911D42E0660F771F881F991F4A9501
:10084000D1F708958F929F92AF92BF92CF92DF928D
:10085000EF92FF924B015C010E94FD036B017C0152
:100860000E94FD036C197D098E099F09683E734043
:1008700081059105A8F321E0821A9108A108B10829
:1008800088EEC80E83E0D81EE11CF11C811491048F
:10089000A104B10429F7FF90EF90DF90CF90BF90B3
:1008A000AF909F908F9008952FB7F8946091F901C1
:1008B0007091FA018091FB019091FC012FBF089586
:1008C0002091AE01260F3327331F21323105ECF47E
:1008D0002091D201FC0190E080E0243069F082E0B8
:1008E0000895A091AE012191AC0142575E4FA40F33
:1008F000B52FB11D2C930196861798F38091AE0108
:10090000680F6093AE0180E0089581E00895109231
:10091000D20181E08093D4011092D30161E082E1A1
:100920000E94BD0261E083E10E94BD02E9EBF0E0BC
:1009300080818E7F808380818D7F808388E4809317
:10094000B80085E48093BC000895CF93DF9391E0D5
:1009500090938D018823B9F0C091B800D091BA006E
:100960008091BC008A7B8093BC0060E082E10E94A1
:10097000BD0260E083E10E94BD020E948704D09323
:10098000BA00C093B800DF91CF9108950895E09127
:10099000090280910802E81730F4F0E0E859FE4FB0
:1009A000808190E008958FEF9FEF08959091090264
:1009B000809108022FEF3FEF981748F4E92FF0E0FD
:1009C000E859FE4F208130E09F5F90930902C901F2
:1009D00008958091080290910902891B990B08954E
:1009E000CF92DF92EF92FF920F931F93CF93DF93FB
:1009F0007C01CB018A0120916701222389F0EB0160
:100A00006B01C40ED51ECC15DD0569F06991D701C7
:100A1000ED91FC910190F081E02DC7010995F3CF94
:100A2000642F0E946004C801DF91CF911F910F9144
:100A3000FF90EF90DF90CF900895CF93DF931F92B8
:100A4000CDB7DEB76983209167012223F9F02091A9
:100A50000602203258F021E030E0FC01338322838B
:100A600090E080E00F90DF91CF9108958091070290
:100A7000E82FF0E0E95BFE4F998190838F5F8093D0
:100A800007028093060281E090E0ECCF61E0CE01A6
:100A900001960E946004F7CFBC016E5F7F4FDC01BE
:100AA000ED91FC910190F081E02D40E0099591E0FD
:100AB000811190E0892F089508958EBD00000DB436
:100AC00007FEFDCF8EB50895DF92EF92FF920F9350
:100AD0001F93CF93DF937C01062FD42E152F80E533
:100AE00090E00E945E0160E0F70186850E94BD02F1
:100AF00082E10E945D05CD2DD12F0C0F1D2F111D00
:100B0000C017D10721F089910E945D05F9CF61E0FE
:100B1000F7018685DF91CF911F910F91FF90EF90A4
:100B2000DF900C94BD021F93CF93DF93EC01162F3F
:100B300080E590E00E945E0160E08E850E94BD022B
:100B4000812F80680E945D0580E00E945D05182F5E
:100B500061E08E850E94BD02812FDF91CF911F91B0
:100B600008950F931F93CF93DF93EC01062F142F5B
:100B700080E590E00E945E0160E08E850E94BD02EB
:100B8000802F0E945D05812F0E945D0561E08E85AA
:100B9000DF91CF911F910F910C94BD02CF92DF9204
:100BA000EF92FF920F931F93CF93DF93EC016B01B2
:100BB000142F790140E062E00E94B10544E06AE050
:100BC000CE010E94B10540E864E1CE010E94B1056A
:100BD000A601612FCE010E94640543E062E0CE01D0
:100BE0000E94B10508E813E16AE0CE010E94930576
:100BF00082FF1BC040E062E0CE010E94B10564E4C8
:100C0000CE010E949305F701808362E4CE010E9429
:100C10009305F701818380E0DF91CF911F910F91C0
:100C2000FF90EF90DF90CF90089501501109E1F609
:100C300083E0F2CF3F924F925F926F927F928F92BA
:100C40009F92AF92BF92CF92DF92EF92FF920F935B
:100C50001F93CF93DF9300D0CDB7DEB74C012B01AC
:100C6000D42E390180E0E114F10411F0F701808104
:100C7000BC2CB29490EFB922B80E40E062E0C401FF
:100C80000E94B1054FE768E0C4010E94B10540E849
:100C900064E1C4010E94B105A2016D2DC4010E944E
:100CA00064054B2D6AE1C4010E94B1054CE062E08D
:100CB000C4010E94B1056AE1C4010E949305482F56
:100CC00040686AE1C4010E94B10520ED422E27E090
:100CD000522E68E0C4010E949305982F907309F08A
:100CE000B6C080FD04C0F1E04F1A510891F783E0CF
:100CF00094C06114710409F46DC00115110509F463
:100D000069C064E1C4010E949305B82EF801808196
:100D10008B1508F496C0B082BB20E1F180E590E02D
:100D20000E945E0160E0F40186850E94BD02BA94D3
:100D300082E90E945D05CC20B1F08FEF90E09C012C
:100D400002C0220F331FCA94E2F7690182E90E94B0
:100D50005D059C2D9095F301208192238C21982B89
:100D60009083CC24C39423014C0C511CCB1440F42D
:100D700082E90E945D05F20181932F01C394F6CFB1
:100D800080E00E945D05F201808361E0F4018685C8
:100D90000E94BD0268E1C4010E9493058770E114BE
:100DA000F10411F0F701808333FC4DC0611471042C
:100DB00009F44BC00115110509F447C0AA2009F434
:100DC00044C0F8014081413039F4843009F049C011
:100DD0008FEF23C080E0E8CF423008F442C0811199
:100DE00040C042509E012F5F3F4FB301C4010E949B
:100DF000CE05811112C0F8019081690E711CF301BA
:100E000032972081998129132CC0F1E06F1A710863
:100E1000F30120819A81291324C00F900F90DF9154
:100E2000CF911F910F91FF90EF90DF90CF90BF90E7
:100E3000AF909F908F907F906F905F904F903F907A
:100E4000089584E0EACF82E0E8CF80E0E6CF6CE06E
:100E5000C4010E949305382E837109F44ACF81E0C2
:100E6000DCCF87E0DACF8F929F92AF92CF92DF9262
:100E7000EF92FF920F931F93CF93DF9300D000D098
:100E8000CDB7DEB74C0180E589831A829E012D5FC4
:100E90003F4F42E0BE016F5F7F4FC4010E94CE050D
:100EA000D82E811116C0A12CC12CF12CE12C10E000
:100EB00000E030E020E044E0BE016F5F7F4FC401FE
:100EC0000E941A06833029F0D82E811102C0DD2439
:100ED000D3948D2D0F900F900F900F90DF91CF91A5
:100EE0001F910F91FF90EF90DF90CF90AF909F9068
:100EF0008F9008950F931F93CF93DF938C01D62F7C
:100F0000C42F0E949305C0954C2F48236D2FC80114
:100F1000DF91CF911F910F910C94B1058F929F9209
:100F2000AF92CF92EF92FF920F931F93CF93DF93E5
:100F300000D000D01F92CDB7DEB74C0182E08D8388
:100F400040E064E2C4010E94B10540E066E2C401F1
:100F50000E94B10546E268E4C4010E94B10586E240
:100F60008B838D818230B0F140E86CE1C4010E9436
:100F70007A0787E08C83A12CC12CCE0104967C01DA
:100F80008E010B5F1F4F9E012F5F3F4F41E0BE015F
:100F90006D5F7F4FC4010E941A06982F811117C000
:100FA0008D818230B9F48C81811114C081E00F9061
:100FB0000F900F900F900F90DF91CF911F910F9195
:100FC000FF90EF90CF90AF909F908F90089581E029
:100FD000923069F380E0EBCF2F923F924F925F9275
:100FE0006F927F928F929F92AF92BF92CF92DF9239
:100FF000EF92FF920F931F93CF93DF93CDB7DEB79E
:101000002D970FB6F894DEBF0FBECDBF16E0413569
:1010100008F045C1342E4B013C0140E86CE10E94D0
:101020007A0783E98983332029F081E0F4019081F4
:10103000953008F480E022242394B12C9B2D990F45
:10104000990F990FD32CD91AD7FCD12C32E08823D1
:1010500019F098E89B8333E021E09D2D977009F407
:1010600020E09D2D959595959595290FC9F094E0D3
:10107000811193E0291708F4922FEB2DF0E03196BF
:10108000E80DF91D232F4191A1E0B0E0AC0FBD1F89
:10109000A20FB11D4C932F5F422F431B491798F3AA
:1010A000882311F0F8E0DF0E8FE18D150CF082C07F
:1010B00090E79A838B819C8189279D8189279E81D6
:1010C00089278F839E01285F3F4F47E0BE016F5FF6
:1010D0007F4FC3010E94CE05182F8111E0C01A86F0
:1010E000E3E0EB87DC86CE0107962C0199E09D8733
:1010F000CA844C2D4295407F4C0D6AE1C3010E9489
:10110000B105A12CCE010A967C018E01055F1F4F0F
:1011100092014D85BE016F5F7F4FC3010E941A0689
:10112000182F823009F065C06CE1C3010E9493055D
:1011300085FDB5C08F7109F480E2282F30E04D2D78
:10114000DD0C550B421753070CF09DC0D82EE82F2D
:10115000E595E595E595EF5F982F977081E009F4A7
:1011600080E0E80F81E090E08C0F9D1F8E0F911DB5
:10117000FC01215031092770332781E090E002C043
:10118000880F991F2A95E2F79C018081822B80832A
:101190008BCF85E98983332031F081E0F4019081A0
:1011A000983008F04BCF80E049CF87E9898326E06B
:1011B000B22EF9CF9D2D97709A878D2D85958595A7
:1011C00085958E5F282F2295207F290F2A8321E085
:1011D000911101C020E0280F2D8744244394512C05
:1011E0004C0E5D1E480E511CE9E0E81BEB87DC86C7
:1011F0007FCF811154C080E2D82E9C8590320CF4B0
:1012000057CF8B81883809F040C083E093E0EB2D05
:10121000F0E03196E80DF91D980FA1E0B0E0AC0FB9
:10122000BD1FA80FB11D2C9121938F5F8913F5CF9E
:10123000BB84E3E0BE124DC08A8581114AC09E0185
:101240002D5F3F4F41E0B201C3010E94CE05182F30
:10125000811125C09B81F201818198133CC09C8142
:101260008281981338C0808182FF12C02394F2E0FB
:101270002F1609F48ECF83E0281609F496CF91E05B
:10128000291609F4CECE15E00AC082E094E0BFCF63
:10129000F4018387822D880F820D8F5F8083812FD9
:1012A0002D960FB6F894DEBF0FBECDBFDF91CF9164
:1012B0001F910F91FF90EF90DF90CF90BF90AF9074
:1012C0009F908F907F906F905F904F903F902F9066
:1012D000089511E0E4CF17E0E2CFCF92DF92EF92D2
:1012E000FF920F931F93CF93DF93FC01C48121E002
:1012F00020936701C09346011092070210920602E4
:101300008385682B85EE92E00E941D05D091060230
:10131000D13208F092C00E94FD036B017C018091E4
:10132000D201811165C082E08093D20181E0809377
:10133000D4018FEF8093D1011092F601D093F50183
:10134000A7E4B1E0E5EDF1E080E0D81385C01092AC
:10135000F7018091F701CC0FC82BC093F701809162
:10136000D301813009F07CC01092D3010E94FD03AB
:101370006B017C018091F7018093BB008091890112
:1013800090918A01A0918B01B0918C01892B8A2BBD
:101390008B2B99F00E94FD030091890110918A0125
:1013A00020918B0130918C016C197D098E099F0968
:1013B0000617170728073907E0F18091BC0083FD65
:1013C000D9CF85EC8093BC000E94FD036B017C01AA
:1013D0008091D201823009F445C08091D1018F3FC4
:1013E00061F18091D101803241F18091D10125C01C
:1013F0008091890190918A01A0918B01B0918C011B
:10140000892B8A2B8B2B09F48ACF0E94FD03009134
:10141000890110918A0120918B0130918C016C1906
:101420007D098E099F09061717072807390708F055
:1014300076CF809188010E94A50410920702109235
:10144000060210926701DF91CF911F910F91FF90DB
:10145000EF90DF90CF9008959D9191938F5F75CF1E
:1014600085EEB0CF8091890190918A01A0918B0186
:10147000B0918C01892B8A2B8B2B09F4A9CF0E9468
:10148000FD030091890110918A0120918B01309117
:101490008C016C197D098E099F090617170728070B
:1014A000390708F095CFC5CF089590E080E0089502
:1014B0000F931F93CF938C01C62F0E946D096C2F41
:1014C0006460C8010E946D096C2F6B7FC8010E9487
:1014D0006D0983EC90E00197F1F7CF911F910F9187
:1014E00008950F931F93CF93DF938C01D62FC42FB2
:1014F000607F642B0E94580A80E1D89FB0011124BC
:101500006C2BC801DF91CF911F910F910C94580A59
:1015100041E00E94710A81E090E00895CF93DF934B
:10152000CDB7DEB728970FB6F894DEBF0FBECDBF9C
:1015300098E0E1E0F1E0DE01119601900D929A95BC
:10154000E1F79091FA02961708F46FEF262F30E03A
:10155000220F331F41E050E04C0F5D1F240F351F59
:10156000F9016081680F606840E081EF92E02896A1
:101570000FB6F894DEBF0FBECDBFDF91CF910C94B4
:10158000710A40E061E081EF92E00E94710A8BE312
:101590009FE10197F1F708958F929F92AF92BF92CA
:1015A000EF92FF920F931F93CF93DF93CDB7DEB7E8
:1015B000A1970FB6F894DEBF0FBECDBF7C01FA0134
:1015C000CB0119A2223008F42AE08E010F5D1F4FD3
:1015D000822E912CB12CA12CBF01A50194010E9457
:1015E0003014F901CA016A3074F5605DD8016E9358
:1015F0008D01232B242B252B79F790E080E0109789
:1016000089F0FD0101900020E9F73197AF014A1BF5
:101610005B0BD701ED91FC910280F381E02DB801C5
:10162000C7010995A1960FB6F894DEBF0FBECDBFD6
:10163000DF91CF911F910F91FF90EF90BF90AF90EE
:101640009F908F900895695CD1CFCF92DF92EF92F7
:10165000FF926C01990FEE08FF08F7FE18C041E0F9
:101660006DE281EF92E00E94710A44275527BA018A
:101670004C195D096E097F092AE081EF92E00E9412
:10168000CC0A0196FF90EF90DF90CF9008952AE06A
:10169000B701A60181EF92E0FF90EF90DF90CF902D
:1016A0000C94CC0A61E084E00E948E0A80910F02C3
:1016B000909110020A9734F462E770E081EF92E0B3
:1016C0000E94630180910F02909110020E94250BED
:1016D00061E087E00E948E0A8091110290911202CF
:1016E0000A9734F460E770E081EF92E00E946301B2
:1016F00080911102909112020E94250B61E08AE014
:101700000E948E0A80911302909114020A9734F479
:101710006EE670E081EF92E00E9463018091130217
:10172000909114020C94250B60E084E00E948E0AD4
:1017300080911502909116020A9734F46CE670E0DD
:1017400081EF92E00E946301809115029091160250
:101750000E94250B60E087E00E948E0A80911702AC
:10176000909118020A9734F46AE670E081EF92E0F3
:101770000E94630180911702909118020E94250B2C
:1017800060E08AE00E948E0A8091190290911A020C
:101790000A9734F468E670E081EF92E00E946301FA
:1017A0008091190290911A020C94250B42E050E0AE
:1017B00063E471E088E492E00C94870166E572E0EE
:1017C00088E492E00E9463012091040380E197E2A3
:1017D000289FA001299F500D11246091030328EE3A
:1017E00033E0629FC001639F900D1124480F591F81
:1017F0008091020394E6899F400D511D1124809130
:1018000001039AE0899F400D511D1124809100032E
:10181000480F511D052E000C660B770B40934402B8
:101820005093450260934602709347022AE088E491
:1018300092E00E94CC0A0E94D60B809142029091C5
:1018400043028130910591F11CF4892B49F00895F0
:101850008230910509F450C0039709F481C00895BE
:101860008091440290914502A0914602B0914702B6
:1018700080933E0290933F02A0934002B0934102B6
:101880000E94C10A60E080E00E948E0A66E472E075
:1018900081EF92E00E9463018091420290914302A5
:1018A00001969093430280934202089580914402EE
:1018B00090914502A0914602B091470240913E02AC
:1018C00050913F02609140027091410248175907C0
:1018D0006A077B0751F380933A0290933B02A093EF
:1018E0003C02B0933D020E94C10A60E080E00E9489
:1018F0008E0A66E372E0CCCF80914402909145025B
:10190000A0914602B091470240913E0250913F02A1
:101910006091400270914102481759076A077B079E
:1019200021F240913A0250913B0260913C02709149
:101930003D0284179507A607B70709F4B6CF809331
:10194000360290933702A0933802B09339020E9476
:10195000C10A60E080E00E948E0A66E272E098CFE1
:101960008091440290914502A0914602B0914702B5
:1019700040913E0250913F026091400270914102BD
:10198000481759076A077B0709F48FCF40913A023D
:1019900050913B0260913C0270913D028417950783
:1019A000A607B70709F481CF40913602509137025C
:1019B000609138027091390284179507A607B7071E
:1019C00009F473CF8093320290933302A0933402D0
:1019D000B09335020E94C10A60E080E00E948E0A46
:1019E00066E172E081EF92E00E94630161E080E0D5
:1019F0000E948E0A66E072E04BCFCF93DF93BC016A
:101A000088E492E00E946301EC010E94D60B8C0FE7
:101A10009D1FDF91CF91089585ED8093BC0080914B
:101A2000890190918A01A0918B01B0918C01079658
:101A3000A11DB11D23E0B695A795979587952A9589
:101A4000D1F72091BC0024FD03C01092D20108956B
:101A50004091890150918A0160918B0170918C01B4
:101A6000452B462B472B69F30097A105B10541F0A3
:101A70002AE22A95F1F700C00197A109B109E1CF47
:101A8000809188010C94A5041F920F920FB60F92BB
:101A900011242F933F934F935F936F937F938F9373
:101AA0009F93AF93BF93EF93FF9380912602909102
:101AB0002702A0912802B0912902892B8A2B8B2B17
:101AC000D1F190912102E0912202F09123028081D4
:101AD000892780838091260290912702A091280275
:101AE000B0912902181619061A061B069CF480915B
:101AF000260290912702A0912802B0912902019715
:101B0000A109B1098093260290932702A09328028D
:101B1000B0932902FF91EF91BF91AF919F918F9167
:101B20007F916F915F914F913F912F910F900FBED9
:101B30000F901F90189580910001E5E0F2E0E4918C
:101B40009FEF90930001E13051F030F0E23069F006
:101B500060E00E94BD02DECF10926E00F9CF90913E
:101B60006F009D7F90936F00F3CF909170009D7FE9
:101B70009093700091E09093B0009091B100987FA5
:101B800094609093B1001092B300E2CF1F920F9235
:101B90000FB60F9211242F933F934F935F936F9340
:101BA0007F938F939F93AF93BF93EF93FF9388E4BB
:101BB00092E00E940502FF91EF91BF91AF919F913A
:101BC0008F917F916F915F914F913F912F910F90E6
:101BD0000FBE0F901F9018951F920F920FB60F9285
:101BE00011242F938F939F93EF93FF93E0915802CB
:101BF000F09159028081E0915E02F0915F0282FDD6
:101C00001BC09081809161028F5F8F73209162026F
:101C1000821741F0E0916102F0E0E85BFD4F958FA3
:101C200080936102FF91EF919F918F912F910F907F
:101C30000FBE0F901F9018958081F4CF1F920F92C6
:101C40000FB60F9211242F933F938F939F93AF93CF
:101C5000BF938091F9019091FA01A091FB01B0919D
:101C6000FC013091F80123E0230F2D3758F5019640
:101C7000A11DB11D2093F8018093F9019093FA0101
:101C8000A093FB01B093FC018091FD019091FE01B6
:101C9000A091FF01B09100020196A11DB11D80939A
:101CA000FD019093FE01A093FF01B0930002BF914C
:101CB000AF919F918F913F912F910F900FBE0F90F9
:101CC0001F90189526E8230F0296A11DB11DD2CFB3
:101CD0001F920F920FB60F9211242F933F934F93A1
:101CE0005F936F937F938F939F93AF93BF93EF9384
:101CF000FF938091B900887F803609F44AC0F0F5DF
:101D0000883209F4A7C018F5803109F49BC0B8F4F3
:101D1000882309F4F9C0883009F494C0FF91EF9149
:101D2000BF91AF919F918F917F916F915F914F91F3
:101D30003F912F910F900FBE0F901F9018958831F3
:101D400009F488C0803251F78093D10114C08034E7
:101D500009F49DC040F48033B9F38833F9F68093D9
:101D6000D10185ECB0C0803509F485C0883509F40F
:101D700096C0883499F60E940C0DD0CF883909F4AA
:101D80008CC038F5883729F050F4883611F0803748
:101D900029F683E08093D2011092D00157C0883891
:101DA00009F47BC0803919F0803809F0B7CF8091F1
:101DB000D001803208F071C0E091D00181E08E0F37
:101DC0008093D0018091BB00F0E0E055FE4F80830E
:101DD0003DC0803B39F0E0F4803A09F479C0883A9C
:101DE00009F09CCF84E08093D2011092AF01109251
:101DF000AE01E0910402F091050209958091AE01D7
:101E000081110FC081E08093AE0110928E0109C054
:101E1000803C09F4A6CF883C09F4A3CF883B09F0A5
:101E20007DCFE091AF0181E08E0F8093AF01F0E0B4
:101E3000E257FE4F80818093BB009091AF0180916B
:101E4000AE0129C08091F7018093BB0085EC80939F
:101E5000BC0064CF9091F6018091F501981758F578
:101E6000E091F60181E08E0F8093F601F0E0EB52F5
:101E7000FE4F8081E9CFE091F60181E08E0F8093E3
:101E8000F6018091BB00F0E0EB52FE4F8083909111
:101E9000F6018091F5019817C8F285E8D8CFE09156
:101EA000F60181E08E0F8093F6018091BB00F0E097
:101EB000EB52FE4F80838091D40181115CCF81E091
:101EC0008093D30184EA8093BC001092D20126CF84
:101ED00085EC8093BC001092D2018091D0018032B9
:101EE00030F4E091D001F0E0E055FE4F10826091B7
:101EF000D00170E0E0910202F091030280EB91E0EA
:101F000009951092D0010ACF1092D10134CFE8E4A4
:101F1000F2E01382128288EE93E0A0E0B0E08483C6
:101F20009583A683B7832DE031E03183208325ECB0
:101F300030E03587248724EC30E03787268720EC93
:101F400030E0318B208B21EC30E0338B228B22EC84
:101F500030E0358B248B26EC30E0378B268B118ECE
:101F6000128E138E148EE5EEF2E0138212828483B9
:101F70009583A683B7838FE191E091838083EDEF12
:101F8000F2E08DE391E0918380838AE0868789E0A7
:101F90008787E1EFF2E01382128281E391E091837F
:101FA000808387E2848380E1808782E08187128654
:101FB00088E083870895789484B5826084BD84B571
:101FC000816084BD85B5826085BD85B5816085BD34
:101FD00080916E00816080936E00109281008091EC
:101FE0008100826080938100809181008160809374
:101FF0008100809180008160809380008091B10099
:1020000084608093B1008091B00081608093B000C3
:1020100080917A00846080937A0080917A00826057
:1020200080937A0080917A00816080937A00809119
:102030007A00806880937A001092C100E091580283
:10204000F091590282E08083E0915402F0915502B0
:102050001082E0915602F09157028FEC808310922B
:102060006002E0915C02F0915D0286E08083E09185
:102070005A02F0915B02808180618083E0915A0274
:10208000F0915B02808188608083E0915A02F09138
:102090005B02808180688083E0915A02F0915B024C
:1020A00080818F7D8083CFB7F89480910102811168
:1020B00027C0EBEFF1E08491EDEDF1E09491E82F92
:1020C000F0E0EE0FFF1FEC58FF4FA591B491EC919B
:1020D000E92321F461E08AE00E94BD0261E08AE028
:1020E0000E94EB028CB580618CBD8CB580648CBD88
:1020F00061E08DE00E94EB0261E08BE00E94EB0268
:10210000809101028F5F80930102CFBF61E084E084
:102110000E94EB0261E083E00E94EB0261E085E057
:102120000E94EB0261E080910B030E94EB0261E0F0
:1021300080910B030E94BD0280910C038F3F09F434
:10214000C2C060E00E94EB0220910C0330E0F90174
:10215000E857FF4F8491F901ED52FE4FD491F901F8
:10216000EF50FE4FC491C1119FC061E080910C03FC
:102170000E94EB0260E080910C030E94BD0283E0AC
:1021800090E00197F1F761E080910C030E94BD029D
:1021900062E370E080E090E00E94220440E064E2AC
:1021A0008DEF92E00E94B10540E066E28DEF92E093
:1021B0000E94B10546E268E48DEF92E00E94B1050D
:1021C00040E864E58DEF92E00E94B10549EA66E5DA
:1021D0008DEF92E00E94B10543E068E58DEF92E05B
:1021E0000E94B10548EE6AE58DEF92E00E94B105CC
:1021F00040E46AE28DEF92E00E94B1054DE362E2B5
:102200008DEF92E00E94B10568E28DEF92E00E94AE
:102210009305982F9370933039F0482F436068E20C
:102220008DEF92E00E94B1056CE48DEF92E00E9488
:1022300093058077803791F040E76CE48DEF92E072
:102240000E947A076CE48DEF92E00E949305482F7C
:1022500040676CE48DEF92E00E94B1056EE68DEF71
:1022600092E00E949305C82F63E271E088E492E057
:102270000E9463014C2F50E070E060E020E188E4B0
:1022800092E00E94CC0A80E191E0C03909F43AC0A2
:1022900088F58CEE90E0C231A9F188E191E0C83870
:1022A00089F18FED90E02EC081110E949402EC2FF5
:1022B000F0E0EE0FFF1FE258FF4FA591B491EC91B3
:1022C000ED2309F452CF4FE062E08DEF92E00E94DF
:1022D000B105C3E062E370E080E090E00E94220478
:1022E00062E08DEF92E00E94930584FF57CFC150CA
:1022F00089F754CF88E091E0C13921F080E091E086
:10230000C23979F60E94FD0CC150CE3F20F08CE915
:1023100090E00E94FD0C10920902109208021092A7
:102320000702109206020E94870481E691E09093D2
:1023300005028093040282E691E090930302809369
:1023400002021092F6028091FA02823018F098E0B0
:102350009093F6029091FB02992339F0813029F491
:102360008091F60284608093F60262E370E080E080
:1023700090E00E9422046091FC0281EF92E00E94B2
:102380006D0968EE73E080E090E00E94220460E353
:1023900081EF92E00E94580ACBE4D6E4CE01019787
:1023A000F1F760E381EF92E00E94580A2197F1F77C
:1023B00060E381EF92E00E94580A83E592E0019782
:1023C000F1F760E281EF92E00E94580A6091F60214
:1023D000606240E081EF92E00E94710A84E08093A5
:1023E000F70240E06CE081EF92E00E94710A0E94E7
:1023F000C10A82E08093F80240E066E081EF92E05B
:102400000E94710A40E062E081EF92E00E94710A4E
:102410008BE39FE10197F1F788E08093FC0260E095
:1024200081EF92E00E946D090E94C10A60E080E0A5
:102430000E948E0A6DE571E081EF92E00E946301D7
:102440008DEF92E00E948E078823C1F08DEF92E01D
:102450000E944C05882391F062E571E088E492E0E7
:102460000E9463010E94DE0B8DEF92E00E94330711
:1024700048E060E18DEF92E00E947A07809142028D
:10248000909143020497E1F668E873E180E090E000
:102490000E9422040E94C10A60E080E00E948E0A2D
:1024A00065E471E081EF92E00E94630161E080E009
:1024B0000E948E0A68E371E081EF92E00E9463015E
:1024C00000E010E0C1E00E945404C0900B02D090E4
:1024D0000C02E0900D02F0900E026C197D098E093D
:1024E0009F09683E73408105910528F4CD28CE28C8
:1024F000CF2809F08FC00E945404AB01BC01409367
:102500000B0250930C0260930D0270930E022AE0AE
:1025100088E492E00E94CC0A0E94D60B80910A02C5
:1025200081110CC00E94540460931D0270931E021E
:1025300080931F0290932002C0930A028091190297
:1025400090911A02409711F410921B0280911B0285
:10255000882351F10E94940B8091190290911A02E4
:102560008B33910509F041C110921A0210921902A1
:10257000809117029091180201969093180280930F
:1025800017028091170290911802CC9769F410926B
:10259000180210921702809115029091160201966E
:1025A0009093160280931502809113029091140269
:1025B000409711F410921C0280911C02882351F163
:1025C0000E94520B80911302909114028B3391055B
:1025D00009F011C11092140210921302809111029D
:1025E00090911202019690931202809311028091B1
:1025F000110290911202CC9769F41092120210927B
:10260000110280910F029091100201969093100296
:1026100080930F020E945404C0901D02D0901E02AD
:10262000E0901F02F09020026C197D098E099F092D
:102630006C3271408105910508F4CBC00E945404AE
:1026400060931D0270931E0280931F0290932002DC
:102650008DEF92E00E948E07882309F4BAC08DEFB7
:1026600092E00E944C05882309F4B3C068EC71E045
:1026700088E492E00E9463010E94DE0B8DEF92E0FD
:102680000E94330748E060E18DEF92E00E947A07F4
:102690004091440250914502609146027091470278
:1026A00080913E0290913F02A0914002B091410280
:1026B000481759076A077B07D1F480911C028111E2
:1026C00004C080911B02811102C00E941C0385EB93
:1026D00091E00E94FD0C61E084E00E94BD0260E098
:1026E00083E00E94BD02C0931B0210921C02409125
:1026F00044025091450260914602709147028091D8
:102700003A0290913B02A0913C02B0913D024817E1
:1027100059076A077B07D1F480911B02811104C01D
:1027200080911C02811102C00E941C0382EA91E088
:102730000E94FD0C60E084E00E94BD0261E083E045
:102740000E94BD0210921B02C0931C0240914402E1
:102750005091450260914602709147028091360285
:1027600090913702A0913802B09139024817590769
:102770006A077B07C9F480911B02811103C0809115
:102780001C0281110E941C0387E891E00E94FD0C4D
:1027900060E084E00E94BD0260E083E00E94BD0230
:1027A00010921B0210921C0240914402509145026B
:1027B00060914602709147028091320290913302FB
:1027C000A0913402B0913502481759076A077B0778
:1027D000C1F00115110509F476CE0E94F10188239C
:1027E00009F471CE0E9400006ECE019690931A02F9
:1027F00080931902C6CE019690931402809313021F
:10280000F6CE0E941C038DE691E00E94FD0C60E074
:1028100084E00E94BD0260E083E00E94BD0210924D
:102820001A021092190210921802109217021092B6
:1028300016021092150210921402109213021092B6
:102840001202109211021092100210920F020E94B6
:10285000940B0E94520B10921B0210921C02B9CFD3
:10286000A1E21A2EAA1BBB1BFD010DC0AA1FBB1F94
:10287000EE1FFF1FA217B307E407F50720F0A21B06
:10288000B30BE40BF50B661F771F881F991F1A9473
:1028900069F760957095809590959B01AC01BD019D
:1028A000CF010895EE0FFF1F0590F491E02D0994DC
:0428B000F894FFCFCA
:1028B400FF000040001400540000000000270287BD
:1028C40001B4017402E501C301D701000000001D39
:1028D40005F004550AC604E904D604C70400000040
:1028E40000880A8701550A540A00000000EC078E8C
:0628F400074C050D0A006F
:00000001FF
