:100000000C942B010C9453010C9453010C94530148
:100010000C9453010C9453010C9453010C94530110
:100020000C9453010C9453010C9453010C94530100
:100030000C9453010C9453010C9453010C945301F0
:100040000C94C20B0C9453010C94900B0C946A0BFF
:100050000C9453010C9453010C9453010C945301D0
:100060000C940C0C0C945301300030003000300024
:100070003000300000000000250028002B000000A8
:100080000000240027002A000000000023002600B2
:10009000290004040404040404040202020202020B
:1000A000030303030303010204081020408001023C
:1000B00004081020010204081020000000080002BB
:1000C0000100000304070000000000000000574189
:1000D000524E494E473A20436F6D6D756E696361AC
:1000E00074696F6E206661696C7572652C20697326
:1000F00020746865204D4652433532322070726F4D
:100100007065726C7920636F6E6E65637465643FB1
:1001100000203D2028756E6B6E6F776E2900203DA4
:1001200020636F756E7465726665697420636869B3
:100130007000203D2076322E3000203D2076312E7A
:100140003000203D2076302E3000203D2028636C8A
:100150006F6E6529004669726D776172652056651C
:100160007273696F6E3A2030780047524520303004
:100170003A30303A3030005245442030303A303056
:100180003A30300043617264205549443A200041BE
:100190007474616368205245442063617264004B4B
:1001A00061727461207A2074C3AD6D75204552412F
:1001B000534552004B61727461207A2074C3AD6D57
:1001C0007520524546004B61727461207A2074C3D9
:1001D000AD6D7520475245004B61727461207A20E5
:1001E00074C3AD6D7520524544004361726420555F
:1001F00049443A20007072657061726520746F2006
:1002000067616D6500416C6C20636172647320737B
:1002100061766564004174746163682045524120D1
:1002200063617264004174746163682052454620C2
:1002300063617264004174746163682047524520B1
:100240006361726400436F6465206F6620434152AE
:10025000443A20002B0D11241FBECFEFD8E0DEBFA3
:10026000CDBF11E0A0E0B1E0E6E0F4E202C005900D
:100270000D92A634B107D9F722E0A6E4B1E001C09F
:100280001D92A63FB207E1F711E0CBE2D1E004C036
:100290002197FE010E94FB11CA32D107C9F70E94C3
:1002A0007F0D0C9401120C9400008CBD9DBD08952F
:1002B00008950895EF92FF920F931F93CF93DF93CA
:1002C0008C017B01D0E0C0E0F701EC0FFD1F6491D1
:1002D000662361F0D801ED91FC910190F081E02D51
:1002E000C8010995892B11F02196EECFCE01DF913F
:1002F000CF911F910F91FF90EF900895AF92BF9211
:10030000CF92DF92EF92FF920F931F93CF93DF93E1
:100310006C017B018B01040F151FEB015E01AE1810
:10032000BF08C017D10759F06991D601ED91FC9132
:100330000190F081E02DC6010995892B79F7C5015F
:10034000DF91CF911F910F91FF90EF90DF90CF90B1
:10035000BF90AF900895FC01538D448D252F30E060
:10036000842F90E0821B930B541710F0CF960895C2
:1003700001970895FC01918D828D981761F0A28DEF
:10038000AE0FBF2FB11D5D968C91928D9F5F9F73B5
:10039000928F90E008958FEF9FEF0895FC01918D6B
:1003A000828D981731F0828DE80FF11D858D90E0D8
:1003B00008958FEF9FEF0895FC01918D228D892F75
:1003C00090E0805C9F4F821B91098F73992708955D
:1003D00081E392E00E94DC0121E0892B09F420E016
:1003E000822F089580E090E0892B29F00E94E80197
:1003F00081110C9400000895FC01A48DA80FB92F61
:10040000B11DA35ABF4F2C91848D90E001968F733C
:100410009927848FA689B7892C93A089B1898C915B
:10042000837080648C93938D848D981306C00288AA
:10043000F389E02D80818F7D80830895EF92FF9274
:100440000F931F93CF93DF93EC0181E0888F9B8DF7
:100450008C8D98131AC0E889F989808185FF15C0B1
:100460009FB7F894EE89FF896083E889F9898081D4
:100470008370806480839FBF81E090E0DF91CF91A3
:100480001F910F91FF90EF900895F62E0B8D10E0C5
:100490000F5F1F4F0F731127E02E8C8D8E110CC034
:1004A0000FB607FCFACFE889F989808185FFF5CF7F
:1004B000CE010E94FC01F1CFEB8DEC0FFD2FF11D61
:1004C000E35AFF4FF0829FB7F8940B8FEA89FB89BC
:1004D00080818062CFCFCF93DF93EC01888D88231A
:1004E000B9F0AA89BB89E889F9898C9185FD03C097
:1004F000808186FD0DC00FB607FCF7CF8C9185FF7C
:10050000F2CF808185FFEDCFCE010E94FC01E9CFC3
:10051000DF91CF910895833081F028F4813099F0F4
:100520008230A9F008958730A9F08830C9F084306E
:10053000B1F4809180008F7D03C0809180008F771F
:1005400080938000089584B58F7784BD089584B525
:100550008F7DFBCF8091B0008F778093B00008959E
:100560008091B0008F7DF9CF1F93CF93DF93282F19
:1005700030E0F901E654FF4F8491F901EA55FF4F4D
:10058000D491F901EE56FF4FC491CC23A9F0162F58
:1005900081110E948B02EC2FF0E0EE0FFF1FEC5850
:1005A000FF4FA591B4918FB7F894EC91111108C049
:1005B000D095DE23DC938FBFDF91CF911F910895FB
:1005C000DE2BF8CFCF93DF9390E0FC01EA55FF4F8D
:1005D00024918E569F4FFC0184918823D1F090E0A6
:1005E000880F991FFC01E258FF4FA591B491FC01BF
:1005F000EC58FF4FC591D49161110EC09FB7F8948C
:100600008C91E22FE0958E238C932881E223E8835E
:100610009FBFDF91CF9108958FB7F894EC91E22BB3
:10062000EC938FBFF6CF3FB7F8948091F40190918F
:10063000F501A091F601B091F70126B5A89B05C080
:100640002F3F19F00196A11DB11D3FBFBA2FA92F51
:10065000982F8827BC01CD01620F711D811D911D4E
:1006600042E0660F771F881F991F4A95D1F70895BA
:100670008F929F92AF92BF92CF92DF92EF92FF92B2
:100680004B015C010E9413036B017C010E94130368
:100690006C197D098E099F09683E7340810591059B
:1006A000A8F321E0821A9108A108B10888EEC80ECB
:1006B00083E0D81EE11CF11C81149104A104B10453
:1006C00029F7FF90EF90DF90CF90BF90AF909F9071
:1006D0008F9008952FB7F8946091F0017091F10117
:1006E0008091F2019091F3012FBF089585ED8093E1
:1006F000BC008091BC0084FDFCCF1092FF010895E6
:100700002091A801260F3327331F21323105ECF445
:100710002091FF01FC0190E080E0243069F082E04C
:100720000895A091A8012191AC0148575E4FA40FF4
:10073000B52FB11D2C930196861798F38091A801CF
:10074000680F6093A80180E0089581E008950895FE
:10075000E091030280910202E81730F4F0E0E859DA
:10076000FE4F808190E008958FEF9FEF0895909164
:100770000302809102022FEF3FEF981748F4E92F10
:10078000F0E0E859FE4F208130E09F5F9093030234
:10079000C90108958091020290910302891B990B6F
:1007A0000895CF92DF92EF92FF920F931F93CF9312
:1007B000DF937C01CB018A0120916701222389F01C
:1007C000EB016B01C40ED51ECC15DD0569F06991F6
:1007D000D701ED91FC910190F081E02DC7010995C1
:1007E000F3CF642F0E948003C801DF91CF911F9146
:1007F0000F91FF90EF90DF90CF900895CF93DF930C
:100800001F92CDB7DEB76983209167012223F9F0EB
:1008100020910002203258F021E030E0FC013383C7
:10082000228390E080E00F90DF91CF910895809136
:100830000102E82FF0E0E95BFE4F998190838F5F22
:10084000809301028093000281E090E0ECCF61E0B0
:10085000CE0101960E948003F7CFBC016E5F7F4FEF
:10086000DC01ED91FC910190F081E02D40E00995D3
:1008700091E0811190E0892F089508958EBD0000C8
:100880000DB407FEFDCF8EB50895DF92EF92FF9273
:100890000F931F93CF93DF937C01062FD42E152F38
:1008A00080E591E00E94550160E0F70186850E9495
:1008B000B40282E10E943E04CD2DD12F0C0F1D2FDA
:1008C000111DC017D10721F089910E943E04F9CF74
:1008D00061E0F7018685DF91CF911F910F91FF9025
:1008E000EF90DF900C94B4021F93CF93DF93EC0151
:1008F000162F80E591E00E94550160E08E850E94F0
:10090000B402812F80680E943E0480E00E943E0471
:10091000182F61E08E850E94B402812FDF91CF9164
:100920001F9108950F931F93CF93DF93EC01062F30
:10093000142F80E591E00E94550160E08E850E94B1
:10094000B402802F0E943E04812F0E943E0461E089
:100950008E85DF91CF911F910F910C94B402CF92AD
:10096000DF92EF92FF920F931F93CF93DF93EC01EF
:100970006B01142F790140E062E00E94920444E090
:100980006AE0CE010E94920440E864E1CE010E9438
:100990009204A601612FCE010E94450443E062E06B
:1009A000CE010E94920408E813E16AE0CE010E94A1
:1009B000740482FF1BC040E062E0CE010E949204FA
:1009C00064E4CE010E947404F701808362E4CE01E6
:1009D0000E947404F701818380E0DF91CF911F9121
:1009E0000F91FF90EF90DF90CF9008950150110983
:1009F000E1F683E0F2CF3F924F925F926F927F9247
:100A00008F929F92AF92BF92CF92DF92EF92FF921E
:100A10000F931F93CF93DF9300D0CDB7DEB74C0178
:100A20002B01D42E390180E0E114F10411F0F7011B
:100A30008081BC2CB29490EFB922B80E40E062E005
:100A4000C4010E9492044FE768E0C4010E9492042E
:100A500040E864E1C4010E949204A2016D2DC4012A
:100A60000E9445044B2D6AE1C4010E9492044CE0AF
:100A700062E0C4010E9492046AE1C4010E9474040D
:100A8000482F40686AE1C4010E94920420ED422E82
:100A900027E0522E68E0C4010E947404982F9073DE
:100AA00009F0B6C080FD04C0F1E04F1A510891F77B
:100AB00083E094C06114710409F46DC0011511053F
:100AC00009F469C064E1C4010E947404B82EF801FD
:100AD00080818B1508F496C0B082BB20E1F180E5DF
:100AE00091E00E94550160E0F40186850E94B40205
:100AF000BA9482E90E943E04CC20B1F08FEF90E0DE
:100B00009C0102C0220F331FCA94E2F7690182E9F7
:100B10000E943E049C2D9095F301208192238C210C
:100B2000982B9083CC24C39423014C0C511CCB14E0
:100B300040F482E90E943E04F20181932F01C394A4
:100B4000F6CF80E00E943E04F201808361E0F40170
:100B500086850E94B40268E1C4010E947404877013
:100B6000E114F10411F0F701808333FC4DC06114EE
:100B7000710409F44BC00115110509F447C0AA20FE
:100B800009F444C0F8014081413039F4843009F05F
:100B900049C08FEF23C080E0E8CF423008F442C064
:100BA000811140C042509E012F5F3F4FB301C401ED
:100BB0000E94AF04811112C0F8019081690E711C6E
:100BC000F30132972081998129132CC0F1E06F1A2B
:100BD0007108F30120819A81291324C00F900F908E
:100BE000DF91CF911F910F91FF90EF90DF90CF9009
:100BF000BF90AF909F908F907F906F905F904F903D
:100C00003F90089584E0EACF82E0E8CF80E0E6CF2D
:100C10006CE0C4010E947404382E837109F44ACF39
:100C200081E0DCCF87E0DACF8F929F92AF92CF92B4
:100C3000DF92EF92FF920F931F93CF93DF9300D039
:100C400000D0CDB7DEB74C0180E589831A829E01C2
:100C50002D5F3F4F42E0BE016F5F7F4FC4010E9496
:100C6000AF04D82E811116C0A12CC12CF12CE12C7F
:100C700010E000E030E020E044E0BE016F5F7F4F15
:100C8000C4010E94FB04833029F0D82E811102C0D8
:100C9000DD24D3948D2D0F900F900F900F90DF9146
:100CA000CF911F910F91FF90EF90DF90CF90AF9079
:100CB0009F908F9008950F931F93CF93DF938C0194
:100CC000D62FC42F0E947404C0954C2F48236D2F3B
:100CD000C801DF91CF911F910F910C9492048F92D4
:100CE0009F92AF92CF92EF92FF920F931F93CF9369
:100CF000DF9300D000D01F92CDB7DEB74C0182E069
:100D00008D8340E064E2C4010E94920440E066E208
:100D1000C4010E94920446E268E4C4010E94920465
:100D200086E28B838D818230B0F140E86CE1C401B2
:100D30000E945B0687E08C83A12CC12CCE01049617
:100D40007C018E010B5F1F4F9E012F5F3F4F41E0E3
:100D5000BE016D5F7F4FC4010E94FB04982F81117B
:100D600017C08D818230B9F48C81811114C081E06B
:100D70000F900F900F900F900F90DF91CF911F91D8
:100D80000F91FF90EF90CF90AF909F908F9008952C
:100D900081E0923069F380E0EBCF2F923F924F9247
:100DA0005F926F927F928F929F92AF92BF92CF92FB
:100DB000DF92EF92FF920F931F93CF93DF93CDB704
:100DC000DEB72D970FB6F894DEBF0FBECDBF16E08D
:100DD000413508F045C1342E4B013C0140E86CE13F
:100DE0000E945B0683E98983332029F081E0F401C6
:100DF0009081953008F480E022242394B12C9B2D1F
:100E0000990F990F990FD32CD91AD7FCD12C32E016
:100E1000882319F098E89B8333E021E09D2D97709B
:100E200009F420E09D2D959595959595290FC9F08C
:100E300094E0811193E0291708F4922FEB2DF0E054
:100E40003196E80DF91D232F4191A1E0B0E0AC0FE0
:100E5000BD1FA20FB11D4C932F5F422F431B49179B
:100E600098F3882311F0F8E0DF0E8FE18D150CF078
:100E700082C090E79A838B819C8189279D818927F5
:100E80009E8189278F839E01285F3F4F47E0BE01E7
:100E90006F5F7F4FC3010E94AF04182F8111E0C024
:100EA0001A86E3E0EB87DC86CE0107962C0199E0F9
:100EB0009D87CA844C2D4295407F4C0D6AE1C30149
:100EC0000E949204A12CCE010A967C018E01055F3E
:100ED0001F4F92014D85BE016F5F7F4FC3010E947E
:100EE000FB04182F823009F065C06CE1C3010E9439
:100EF000740485FDB5C08F7109F480E2282F30E0BD
:100F00004D2DDD0C550B421753070CF09DC0D82E0C
:100F1000E82FE595E595E595EF5F982F977081E0CF
:100F200009F480E0E80F81E090E08C0F9D1F8E0FA8
:100F3000911DFC01215031092770332781E090E099
:100F400002C0880F991F2A95E2F79C018081822BAD
:100F500080838BCF85E98983332031F081E0F401F0
:100F60009081983008F04BCF80E049CF87E98983A2
:100F700026E0B22EF9CF9D2D97709A878D2D8595FD
:100F8000859585958E5F282F2295207F290F2A83AE
:100F900021E0911101C020E0280F2D8744244394C3
:100FA000512C4C0E5D1E480E511CE9E0E81BEB87EE
:100FB000DC867FCF811154C080E2D82E9C85903290
:100FC0000CF457CF8B81883809F040C083E093E060
:100FD000EB2DF0E03196E80DF91D980FA1E0B0E09F
:100FE000AC0FBD1FA80FB11D2C9121938F5F8913EA
:100FF000F5CFBB84E3E0BE124DC08A8581114AC0A3
:101000009E012D5F3F4F41E0B201C3010E94AF043A
:10101000182F811125C09B81F201818198133CC05A
:101020009C818281981338C0808182FF12C02394F2
:10103000F2E02F1609F48ECF83E0281609F496CF3C
:1010400091E0291609F4CECE15E00AC082E094E0C2
:10105000BFCFF4018387822D880F820D8F5F80833D
:10106000812F2D960FB6F894DEBF0FBECDBFDF9156
:10107000CF911F910F91FF90EF90DF90CF90BF9095
:10108000AF909F908F907F906F905F904F903F9028
:101090002F90089511E0E4CF17E0E2CFCF93FC0149
:1010A000C48121E020936701C093460110920102A0
:1010B000109200028385682B8EEC92E00E94FE0362
:1010C00090910002913208F03FC08091FF018111A0
:1010D000FCCF82E08093FF0181E08093FE018FEFDF
:1010E0008093CB011092ED019093EC01A7E4B1E065
:1010F000ECECF1E080E098132FC01092EE018091AB
:10110000EE01CC0FC82BC093EE018091FD01813020
:1011100039F51092FD018091EE018093BB00809122
:10112000BC0083FDF8CF85EC8093BC008091FF016B
:101130008230E1F38091CB018F3F31F08091CB0180
:10114000803211F08091CB011092010210920002C6
:1011500010926701CF9108952D9121938F5FCBCF8E
:1011600085EEE2CF089590E080E008950F931F93FD
:10117000CF938C01C62F0E944E086C2F6460C8016B
:101180000E944E086C2F6B7FC8010E944E0883ECB2
:1011900090E00197F1F7CF911F910F9108950F9370
:1011A0001F93CF93DF938C01D62FC42F607F642BC6
:1011B0000E94B60880E1D89FB00111246C2BC801B1
:1011C000DF91CF911F910F910C94B60841E00E94DE
:1011D000CF0881E090E00895CF93DF93CDB7DEB7DD
:1011E00028970FB6F894DEBF0FBECDBF98E0E0E0C1
:1011F000F1E0DE01119601900D929A95E1F7909140
:10120000E302961708F46FEF262F30E0220F331F0A
:1012100041E050E04C0F5D1F240F351FF901608144
:10122000680F606840E08AED92E028960FB6F89467
:10123000DEBF0FBECDBFDF91CF910C94CF0840E051
:1012400061E08AED92E00E94CF088BE39FE1019775
:10125000F1F708958F929F92AF92BF92EF92FF9213
:101260000F931F93CF93DF93CDB7DEB7A1970FB640
:10127000F894DEBF0FBECDBF7C01FA01CB0119A2ED
:10128000223008F42AE08E010F5D1F4F822E912C30
:10129000B12CA12CBF01A50194010E94D911F90123
:1012A000CA016A3074F5605DD8016E938D01232BFD
:1012B000242B252B79F790E080E0109789F0FD0131
:1012C00001900020E9F73197AF014A1B5B0BD70172
:1012D000ED91FC910280F381E02DB801C7010995E1
:1012E000A1960FB6F894DEBF0FBECDBFDF91CF91B0
:1012F0001F910F91FF90EF90BF90AF909F908F90B4
:101300000895695CD1CFCF92DF92EF92FF926C018A
:10131000990FEE08FF08F7FE18C041E06DE28AED74
:1013200092E00E94CF0844275527BA014C195D0965
:101330006E097F092AE08AED92E00E942A0901964F
:10134000FF90EF90DF90CF9008952AE0B701A601BB
:101350008AED92E0FF90EF90DF90CF900C942A09F5
:1013600061E084E00E94EC088091090290910A02F9
:101370000A9734F462E770E08AED92E00E945A0125
:101380008091090290910A020E94830961E087E03E
:101390000E94EC0880910B0290910C020A9734F4A1
:1013A00060E770E08AED92E00E945A0180910B02A2
:1013B00090910C020E94830961E08AE00E94EC088F
:1013C00080910D0290910E020A9734F46EE670E05F
:1013D0008AED92E00E945A0180910D0290910E02D6
:1013E0000C94830960E084E00E94EC0880910F0275
:1013F000909110020A9734F46CE670E08AED92E066
:101400000E945A0180910F02909110020E9483095C
:1014100060E087E00E94EC08809111029091120236
:101420000A9734F46AE670E08AED92E00E945A016D
:1014300080911102909112020E94830960E08AE07B
:101440000E94EC0880911302909114020A9734F4E0
:1014500068E670E08AED92E00E945A0180911302E2
:10146000909114020C94830942E050E062E471E030
:1014700081E392E00C947E0165E472E081E392E006
:101480000E945A012091ED0280E197E2289FA0017D
:10149000299F500D11246091EC0228EE33E0629FE9
:1014A000C001639F900D1124480F591F8091EB02DA
:1014B00094E6899F400D511D11248091EA029AE023
:1014C000899F400D511D11248091E902480F511D43
:1014D000052E000C660B770B40932D0250932E02C5
:1014E00060932F02709330022AE081E392E00E9421
:1014F0002A090E94340A80912B0290912C0281309B
:10150000910591F11CF4892B49F0089582309105E1
:1015100009F450C0039709F481C0089580912D0209
:1015200090912E02A0912F02B09130028093270259
:1015300090932802A0932902B0932A020E941F09C7
:1015400060E080E00E94EC0865E372E08AED92E0E2
:101550000E945A0180912B0290912C020196909347
:101560002C0280932B02089580912D0290912E02DF
:10157000A0912F02B0913002409127025091280291
:101580006091290270912A02481759076A077B0760
:1015900051F38093230290932402A0932502B093E9
:1015A00026020E941F0960E080E00E94EC0865E2CC
:1015B00072E0CCCF80912D0290912E02A0912F024B
:1015C000B091300240912702509128026091290287
:1015D00070912A02481759076A077B0721F2409148
:1015E00023025091240260912502709126028417F3
:1015F0009507A607B70709F4B6CF80931F0290930B
:101600002002A0932102B09322020E941F0960E0F1
:1016100080E00E94EC0865E172E098CF80912D0295
:1016200090912E02A0912F02B0913002409127029A
:10163000509128026091290270912A024817590797
:101640006A077B0709F48FCF40912302509124024F
:10165000609125027091260284179507A607B707A7
:1016600009F481CF40911F02509120026091210224
:101670007091220284179507A607B70709F473CF64
:1016800080931B0290931C02A0931D02B0931E0234
:101690000E941F0960E080E00E94EC0865E072E0B3
:1016A0008AED92E00E945A0161E080E00E94EC081D
:1016B00065EF71E04BCFCF93DF93BC0181E392E004
:1016C0000E945A01EC010E94340A8C0F9D1FDF9189
:1016D000CF9108951F920F920FB60F9211242F935E
:1016E0003F934F935F936F937F938F939F93AF93AA
:1016F000BF93EF93FF9381E392E00E94FC01FF917F
:10170000EF91BF91AF919F918F917F916F915F9179
:101710004F913F912F910F900FBE0F901F901895F2
:101720001F920F920FB60F9211242F938F939F93B6
:10173000EF93FF93E0914102F09142028081E091AA
:101740004702F091480282FD1BC0908180914A02BD
:101750008F5F8F7320914B02821741F0E0914A0214
:10176000F0E0EF5CFD4F958F80934A02FF91EF917F
:101770009F918F912F910F900FBE0F901F901895F2
:101780008081F4CF1F920F920FB60F9211242F93E6
:101790003F938F939F93AF93BF938091F00190916C
:1017A000F101A091F201B091F3013091EF0123E03A
:1017B000230F2D3758F50196A11DB11D2093EF0180
:1017C0008093F0019093F101A093F201B093F301A3
:1017D0008091F4019091F501A091F601B091F7018B
:1017E0000196A11DB11D8093F4019093F501A09382
:1017F000F601B093F701BF91AF919F918F913F9107
:101800002F910F900FBE0F901F90189526E8230F71
:101810000296A11DB11DD2CF1F920F920FB60F924B
:1018200011242F933F934F935F936F937F938F93E5
:101830009F93AF93BF93EF93FF938091B900887FFD
:10184000803609F44AC0F0F5883209F4A7C018F5CB
:10185000803109F49BC0B8F4882309F4F9C08830BA
:1018600009F494C0FF91EF91BF91AF919F918F9137
:101870007F916F915F914F913F912F910F900FBE8C
:101880000F901F901895883109F488C0803251F765
:101890008093CB0114C0803409F49DC040F48033A0
:1018A000B9F38833F9F68093CB0185ECB0C080356D
:1018B00009F485C0883509F496C0883499F60E94E9
:1018C0007603D0CF883909F48CC038F5883729F0F1
:1018D00050F4883611F0803729F683E08093FF01B9
:1018E0001092CA0157C0883809F47BC0803919F0BA
:1018F000803809F0B7CF8091CA01803208F071C0FA
:10190000E091CA0181E08E0F8093CA018091BB00F3
:10191000F0E0E655FE4F80833DC0803B39F0E0F4B7
:10192000803A09F479C0883A09F09CCF84E080932A
:10193000FF011092A9011092A801E091FB01F09122
:10194000FC0109958091A80181110FC081E080936D
:10195000A8011092880109C0803C09F4A6CF883CF8
:1019600009F4A3CF883B09F07DCFE091A90181E084
:101970008E0F8093A901F0E0E857FE4F808180939D
:10198000BB009091A9018091A80129C08091EE012E
:101990008093BB0085EC8093BC0064CF9091ED01F7
:1019A0008091EC01981758F5E091ED0181E08E0FE0
:1019B0008093ED01F0E0E453FE4F8081E9CFE091A8
:1019C000ED0181E08E0F8093ED018091BB00F0E08E
:1019D000E453FE4F80839091ED018091EC019817C4
:1019E000C8F285E8D8CFE091ED0181E08E0F8093B9
:1019F000ED018091BB00F0E0E453FE4F80838091C5
:101A0000FE0181115CCF81E08093FD0184EA809327
:101A1000BC001092FF0126CF85EC8093BC00109291
:101A2000FF018091CA01803230F4E091CA01F0E0F8
:101A3000E655FE4F10826091CA0170E0E091F90115
:101A4000F091FA018AEA91E009951092CA010ACF51
:101A50001092CB0134CFE1E3F2E01382128288EEE0
:101A600093E0A0E0B0E084839583A683B7832CE065
:101A700031E03183208325EC30E03587248724EC66
:101A800030E03787268720EC30E0318B208B21EC4B
:101A900030E0338B228B22EC30E0358B248B26EC2C
:101AA00030E0378B268B118E128E138E148EEEEC57
:101AB000F2E01382128284839583A683B7838EE13A
:101AC00091E091838083E6EEF2E08CE391E09183F4
:101AD00080838AE0868789E08787EAEDF2E01382D7
:101AE000128280E391E0918380838FE3848380E19D
:101AF000808782E08187128688E0838708957894C2
:101B000084B5826084BD84B5816084BD85B5826002
:101B100085BD85B5816085BD80916E0081608093B3
:101B20006E0010928100809181008260809381001C
:101B3000809181008160809381008091800081602C
:101B4000809380008091B10084608093B100809187
:101B5000B00081608093B00080917A0084608093AF
:101B60007A0080917A00826080937A0080917A0076
:101B7000816080937A0080917A00806880937A00F7
:101B80001092C100E0914102F091420282E0808314
:101B9000E0913D02F0913E021082E0913F02F0910F
:101BA00040028FEC808310924902E0914502F0914F
:101BB000460286E08083E0914302F09144028081F6
:101BC00080618083E0914302F091440280818860CB
:101BD0008083E0914302F091440280818068808399
:101BE000E0914302F091440280818F7D8083CFB7E2
:101BF000F8948091F801811127C0ECE9F0E084911C
:101C0000E0EBF0E09491E82FF0E0EE0FFF1FE258D8
:101C1000FF4FA591B491EC91E92321F461E08AE0B2
:101C20000E94B40261E08AE00E94E2028CB5806109
:101C30008CBD8CB580648CBD61E08DE00E94E202B9
:101C400061E08BE00E94E2028091F8018F5F809357
:101C5000F801CFBF61E083E00E94E20261E084E02E
:101C60000E94E20261E085E00E94E20261E0809170
:101C7000F4020E94E20261E08091F4020E94B40248
:101C80008091F5028F3F09F4C2C060E00E94E20239
:101C90002091F50230E0F901E654FF4F8491F901FB
:101CA000EA55FF4FD491F901EE56FF4FC491C1118F
:101CB0009FC061E08091F5020E94E20260E08091A5
:101CC000F5020E94B40283E090E00197F1F761E031
:101CD0008091F5020E94B40262E370E080E090E03F
:101CE0000E94380340E064E286EE92E00E94920493
:101CF00040E066E286EE92E00E94920446E268E4EA
:101D000086EE92E00E94920440E864E586EE92E05E
:101D10000E94920449EA66E586EE92E00E949204EF
:101D200043E068E586EE92E00E94920448EE6AE5A0
:101D300086EE92E00E94920440E46AE286EE92E02F
:101D40000E9492044DE362E286EE92E00E949204C9
:101D500068E286EE92E00E947404982F93709330AC
:101D600039F0482F436068E286EE92E00E949204C8
:101D70006CE486EE92E00E9474048077803791F0E4
:101D800040E76CE486EE92E00E945B066CE486EE2F
:101D900092E00E947404482F40676CE486EE92E063
:101DA0000E9492046EE686EE92E00E947404C82FB0
:101DB00065E571E081E392E00E945A014C2F50E00A
:101DC00070E060E020E181E392E00E942A0982E471
:101DD00091E0C03909F43AC088F58EE191E0C23152
:101DE000A9F18AE491E0C83889F181E191E02EC03F
:101DF00081110E948B02EC2FF0E0EE0FFF1FE857DD
:101E0000FF4FA591B491EC91ED2309F452CF4FE02F
:101E100062E086EE92E00E949204C3E062E370E02A
:101E200080E090E00E94380362E086EE92E00E943B
:101E3000740484FF57CFC15089F754CF8AE391E0EF
:101E4000C13921F082E391E0C23979F60E945B0B3F
:101E5000C150CE3F20F08EEC90E00E945B0B1092C0
:101E600003021092020210920102109200021092DC
:101E7000FF0181E08093FE011092FD0161E082E1AB
:101E80000E94B40261E083E10E94B4028091B90033
:101E90008E7F8093B9008091B9008D7F8093B900C7
:101EA00088E48093B80085E48093BC0088E591E0E5
:101EB0009093FC018093FB0189E591E09093FA01F6
:101EC0008093F9011092DF028091E302823018F0D2
:101ED00098E09093DF029091E402992339F08130E9
:101EE00029F48091DF0284608093DF0262E370E076
:101EF00080E090E00E9438036091E5028AED92E074
:101F00000E944E0868EE73E080E090E00E94380383
:101F100060E38AED92E00E94B608CBE4D6E4CE01FD
:101F20000197F1F760E38AED92E00E94B6082197ED
:101F3000F1F760E38AED92E00E94B60883E592E053
:101F40000197F1F760E28AED92E00E94B608609195
:101F5000DF02606240E08AED92E00E94CF0884E0F8
:101F60008093E00240E06CE08AED92E00E94CF08AE
:101F70000E941F0982E08093E10240E066E08AED62
:101F800092E00E94CF0840E062E08AED92E00E9479
:101F9000CF088BE39FE10197F1F788E08093E5029A
:101FA00060E08AED92E00E944E080E941F0960E006
:101FB00080E00E94EC086FE871E08AED92E00E94F8
:101FC0005A0186EE92E00E946F068823C1F086EEE9
:101FD00092E00E942D04882391F064E871E081E38F
:101FE00092E00E945A010E943C0A86EE92E00E9412
:101FF000140648E060E186EE92E00E945B06809164
:102000002B0290912C020497E1F668E873E180E0DE
:1020100090E00E9438030E941F0960E080E00E9467
:10202000EC0867E771E08AED92E00E945A0161E0F6
:1020300080E00E94EC086AE671E08AED92E00E947E
:102040005A0100E010E0C1E00E946A03C09005025E
:10205000D0900602E0900702F09008026C197D090A
:102060008E099F09683E73408105910528F4CD28AB
:10207000CE28CF2809F08FC00E946A03AB01BC01B3
:102080004093050250930602609307027093080282
:102090002AE081E392E00E942A090E94340A80919A
:1020A000040281110CC00E946A03609317027093AE
:1020B00018028093190290931A02C093040280912F
:1020C000130290911402409711F41092160280911D
:1020D0001602882351F10E94F20980911302909117
:1020E00014028B33910509F0F8C01092140210927B
:1020F00013028091110290911202019690931202A4
:10210000809311028091110290911202CC9769F490
:10211000109212021092110280910F0290911002FF
:1021200001969093100280930F0280910D0290917E
:102130000E02409711F41092150280911502882327
:1021400051F10E94B00980910D0290910E028B33E3
:10215000910509F0C8C010920E0210920D028091F4
:102160000B0290910C02019690930C0280930B024B
:1021700080910B0290910C02CC9769F410920C02A2
:1021800010920B028091090290910A02019690939D
:102190000A02809309020E946A03C0901702D0903D
:1021A0001802E0901902F0901A026C197D098E094C
:1021B0009F096C3271408105910508F482C00E942C
:1021C0006A03609317027093180280931902909328
:1021D0001A0286EE92E00E946F06882309F471C00D
:1021E00086EE92E00E942D04882309F46AC06AEE0C
:1021F00071E081E392E00E945A010E943C0A86EE5F
:1022000092E00E94140648E060E186EE92E00E94AF
:102210005B0640912D0250912E0260912F02709129
:1022200030028091270290912802A0912902B0915A
:102230002A02481759076A077B0709F45AC04091D8
:102240002D0250912E0260912F02709130028091E8
:10225000230290912402A0912502B09126024817F2
:1022600059076A077B0709F455C040912D02509128
:102270002E0260912F027091300280911F02909186
:102280002002A0912102B0912202481759076A0743
:102290007B0709F450C040912D0250912E026091AD
:1022A0002F027091300280911B0290911C02A0912C
:1022B0001D02B0911E02481759076A077B0709F4EF
:1022C0004BC00115110509F4BFCE0E94E801882317
:1022D00009F4BACE0E940000B7CE01969093140282
:1022E000809313020FCF019690930E0280930D02FC
:1022F0003FCF88ED91E00E945B0B61E083E00E949C
:10230000B40260E084E00E94B402C093160210920E
:10231000150295CF86EC91E00E945B0B60E083E0B4
:102320000E94B40261E084E00E94B402109216029E
:10233000C09315029ACF84EB91E00E945B0B60E0A2
:1023400083E00E94B40260E084E00E94B402109234
:102350001602109215029FCF8FE991E00E945B0B4D
:1023600060E083E00E94B40260E084E00E94B40276
:102370001092140210921302109212021092110283
:102380001092100210920F0210920E0210920D0283
:1023900010920C0210920B0210920A021092090283
:1023A0000E94F2090E94B0091092160210921502C2
:1023B00088CFA1E21A2EAA1BBB1BFD010DC0AA1FCC
:1023C000BB1FEE1FFF1FA217B307E407F50720F09E
:1023D000A21BB30BE40BF50B661F771F881F991F19
:1023E0001A9469F760957095809590959B01AC0162
:1023F000BD01CF010895EE0FFF1F0590F491E02D70
:062400000994F894FFCFDF
:102406000000400014005400000000001E027E017F
:10241600AB016B02DC01BA01CE0100000000FE0335
:10242600D103B308A703CA03B703A803000000003B
:10243600E6087E01B308B20800000000CD066F066C
:062446002D040D0A000048
:00000001FF
