:100000000C9434010C945C010C945C010C945C0124
:100010000C945C010C945C010C945C010C94B70D85
:100020000C945C010C945C010C945C010C945C01DC
:100030000C945C010C945C010C945C010C945C01CC
:100040000C94910E0C945C010C945F0E0C94390E80
:100050000C945C010C945C010C945C010C945C01AC
:100060000C94DB0E0C945C0130003000300030004A
:100070003000300000000000240027002A000000AB
:1000800000002300260029000000000800020100F3
:100090000003040700000000000000005741524E1A
:1000A000494E473A20436F6D6D756E69636174699F
:1000B0006F6E206661696C7572652C20697320749F
:1000C0006865204D4652433532322070726F70653C
:1000D000726C7920636F6E6E65637465643F002097
:1000E0003D2028756E6B6E6F776E2900203D206372
:1000F0006F756E74657266656974206368697000F7
:10010000203D2076322E3000203D2076312E3000EA
:10011000203D2076302E3000203D2028636C6F6E0D
:100120006529004669726D77617265205665727344
:10013000696F6E3A203078004752452030303A30AF
:10014000303A3030005245442030303A30303A3086
:10015000300043617264205549443A200041747470
:100160006163682052454420636172640044657491
:10017000656374656420636172642066726F6D20CC
:10018000455241534552004465746563746564206B
:10019000636172642066726F6D2052454645524518
:1001A0004500436172642066726F6D20475245209E
:1001B0007465616D00436172642066726F6D2052D8
:1001C0004544207465616D00436172642055494463
:1001D0003A200001020408102040800102040810A7
:1001E0002001020408102000000000250028002B38
:1001F00000040404040404040402020202020203D0
:100200000303030303027072657061726520746FEB
:100210002067616D6500416C6C20636172647320BE
:10022000736176656400417474616368204552416E
:1002300020636172640041747461636820524546B2
:1002400020636172640041747461636820475245A1
:10025000206361726400436F6465206F66204341D0
:1002600052443A200000FA0F11241FBECFEFD8E00D
:10027000DEBFCDBF11E0A0E0B1E0E0E8FCE202C0EB
:1002800005900D92A237B107D9F723E0A2E7B1E0BC
:1002900001C01D92A333B207E1F711E0C4E3D1E03E
:1002A00004C02197FE010E941315C333D107C9F77B
:1002B0000E943D100C943E160C9400008CBD9DBD18
:1002C000089508950895EF92FF920F931F93CF938F
:1002D000DF938C017B01D0E0C0E0F701EC0FFD1F44
:1002E0006491662361F0D801ED91FC910190F08159
:1002F000E02DC8010995892B11F02196EECFCE0192
:10030000DF91CF911F910F91FF90EF900895AF92E1
:10031000BF92CF92DF92EF92FF920F931F93CF93F2
:10032000DF936C017B018B01040F151FEB015E0154
:10033000AE18BF08C017D10759F06991D601ED91E9
:10034000FC910190F081E02DC6010995892B79F788
:10035000C501DF91CF911F910F91FF90EF90DF903A
:10036000CF90BF90AF900895FC01538D448D252F01
:1003700030E0842F90E0821B930B541710F0CF963F
:10038000089501970895FC01918D828D981761F071
:10039000A28DAE0FBF2FB11D5D968C91928D9F5F88
:1003A0009F73928F90E008958FEF9FEF0895FC0167
:1003B000918D828D981731F0828DE80FF11D858D1A
:1003C00090E008958FEF9FEF0895FC01918D228DAD
:1003D000892F90E0805C9F4F821B91098F73992732
:1003E000089586E792E00E94E50121E0892B09F457
:1003F00020E0822F089580E090E0892B29F00E9470
:10040000F10181110C9400000895FC01A48DA80F46
:10041000B92FB11DA35ABF4F2C91848D90E0019646
:100420008F739927848FA689B7892C93A089B18966
:100430008C91837080648C93938D848D981306C007
:100440000288F389E02D80818F7D80830895EF926B
:10045000FF920F931F93CF93DF93EC0181E0888F7E
:100460009B8D8C8D98131AC0E889F989808185FF4E
:1004700015C09FB7F894EE89FF896083E889F989F0
:1004800080818370806480839FBF81E090E0DF91F2
:10049000CF911F910F91FF90EF900895F62E0B8D45
:1004A00010E00F5F1F4F0F731127E02E8C8D8E1100
:1004B0000CC00FB607FCFACFE889F989808185FF67
:1004C000F5CFCE010E940502F1CFEB8DEC0FFD2F91
:1004D000F11DE35AFF4FF0829FB7F8940B8FEA8922
:1004E000FB8980818062CFCFCF93DF93EC01888D31
:1004F0008823B9F0AA89BB89E889F9898C9185FD9F
:1005000003C0808186FD0DC00FB607FCF7CF8C912C
:1005100085FFF2CF808185FFEDCFCE010E940502DD
:10052000E9CFDF91CF910895833081F028F48130B5
:1005300099F08230A9F008958730A9F08830C9F089
:100540008430B1F4809180008F7D03C08091800061
:100550008F7780938000089584B58F7784BD089548
:1005600084B58F7DFBCF8091B0008F778093B000F2
:1005700008958091B0008F7DF9CF1F93CF93DF93C3
:10058000282F30E0F901E857FF4F8491F901ED522F
:10059000FE4FD491F901EF50FE4FC491CC23A9F046
:1005A000162F81110E949402EC2FF0E0EE0FFF1F36
:1005B000E951FE4FA591B4918FB7F894EC911111C8
:1005C00008C0D095DE23DC938FBFDF91CF911F91C0
:1005D0000895DE2BF8CFCF93DF9390E0FC01ED522E
:1005E000FE4F24918F509E4FFC0184918823D1F0BF
:1005F00090E0880F991FFC01EC58FF4FA591B49132
:10060000FC01E951FE4FC591D49161110EC09FB715
:10061000F8948C91E22FE0958E238C932881E2232D
:10062000E8839FBFDF91CF9108958FB7F894EC9145
:10063000E22BEC938FBFF6CFCF93809100018530F2
:1006400021F08F3F61F1CF910895E5E0F2E0C49190
:10065000C7FDF9CF61E085E00E94EB02CC2309F4ED
:100660008CC0C23009F0A1C08091B100887F836046
:100670008093B1008CE78093B30088E790E0A0E01E
:10068000B0E08093020290930302A0930402B0931F
:10069000050280917000826080937000D4CF85E065
:1006A00080930001E5E0F2E0C491CF3F61F2C130F8
:1006B00021F150F0C23009F43EC0C7FDC4CF61E063
:1006C00085E00E94EB02CDCF14BC15BC84B58260DE
:1006D00084BD85B5816085BDE6EFF1E0E491F0E091
:1006E000EE0FFF1FE951FE4F85919491E8EDF1E087
:1006F000E491E0930102C0E0ADCF1092800010922F
:1007000081008091810088608093810080918100C8
:10071000816080938100E6EFF1E0E491F0E0EE0F7C
:10072000FF1FE951FE4F85919491E8EDF1E0E491CE
:10073000E09300028FCF1092B0001092B100809130
:10074000B00082608093B0008091B100816080939E
:10075000B100E6EFF1E0E491F0E0EE0FFF1FE951A8
:10076000FE4F859194919093FF018093FE01E8EDF7
:10077000F1E0E491E093FD016DCF85B5887F836062
:1007800085BD8DE387BD88E790E0A0E0B0E0809371
:100790000A0290930B02A0930C02B0930D02809179
:1007A0006E00826080936E004ECFC130F1F4809174
:1007B0008100887F8160809381008FE99FE0909322
:1007C00089008093880088E790E0A0E0B0E0809303
:1007D000060290930702A0930802B0930902809149
:1007E0006F00826080936F002ECFC23021F0C11164
:1007F0002ACF8FE9C7CF8FE93ECF3FB7F8948091DA
:10080000DB019091DC01A091DD01B091DE0126B504
:10081000A89B05C02F3F19F00196A11DB11D3FBF38
:10082000BA2FA92F982F8827BC01CD01620F711D07
:10083000811D911D42E0660F771F881F991F4A9501
:10084000D1F708958F929F92AF92BF92CF92DF928D
:10085000EF92FF924B015C010E94FD036B017C0152
:100860000E94FD036C197D098E099F09683E734043
:1008700081059105A8F321E0821A9108A108B10829
:1008800088EEC80E83E0D81EE11CF11C811491048F
:10089000A104B10429F7FF90EF90DF90CF90BF90B3
:1008A000AF909F908F9008952FB7F8946091D701E3
:1008B0007091D8018091D9019091DA012FBF0895EC
:1008C000BC016E5F7F4FDC01ED91FC910190F081E6
:1008D000E02D40E0099591E0811190E0892F089585
:1008E00008958EBD00000DB407FEFDCF8EB50895AE
:1008F000DF92EF92FF920F931F93CF93DF937C01D0
:10090000062FD42E152F80E590E00E945E0160E056
:10091000F70186850E94BD0282E10E947104CD2DFF
:10092000D12F0C0F1D2F111DC017D10721F0899158
:100930000E947104F9CF61E0F7018685DF91CF91C4
:100940001F910F91FF90EF90DF900C94BD021F93C9
:10095000CF93DF93EC01162F80E590E00E945E01BB
:1009600060E08E850E94BD02812F80680E94710424
:1009700080E00E947104182F61E08E850E94BD0204
:10098000812FDF91CF911F9108950F931F93CF93E4
:10099000DF93EC01062F142F80E590E00E945E01AA
:1009A00060E08E850E94BD02802F0E947104812F1D
:1009B0000E94710461E08E85DF91CF911F910F91AC
:1009C0000C94BD02CF92DF92EF92FF920F931F9390
:1009D000CF93DF93EC016B01142F790140E062E0CB
:1009E0000E94C50444E06AE0CE010E94C50440E8CC
:1009F00064E1CE010E94C504A601612FCE010E94D0
:100A0000780443E062E0CE010E94C50408E813E1E7
:100A10006AE0CE010E94A70482FF1BC040E062E0B2
:100A2000CE010E94C50464E4CE010E94A704F70130
:100A3000808362E4CE010E94A704F701818380E0F5
:100A4000DF91CF911F910F91FF90EF90DF90CF90AA
:100A5000089501501109E1F683E0F2CF3F924F92E1
:100A60005F926F927F928F929F92AF92BF92CF923E
:100A7000DF92EF92FF920F931F93CF93DF9300D0FB
:100A8000CDB7DEB74C012B01D42E390180E0E11443
:100A9000F10411F0F7018081BC2CB29490EFB922DF
:100AA000B80E40E062E0C4010E94C5044FE768E070
:100AB000C4010E94C50440E864E1C4010E94C50469
:100AC000A2016D2DC4010E9478044B2D6AE1C4017E
:100AD0000E94C5044CE062E0C4010E94C5046AE1C2
:100AE000C4010E94A704482F40686AE1C4010E9423
:100AF000C50420ED422E27E0522E68E0C4010E947A
:100B0000A704982F907309F0B6C080FD04C0F1E0EF
:100B10004F1A510891F783E094C06114710409F4ED
:100B20006DC00115110509F469C064E1C4010E949A
:100B3000A704B82EF80180818B1508F496C0B08206
:100B4000BB20E1F180E590E00E945E0160E0F401ED
:100B500086850E94BD02BA9482E90E947104CC206D
:100B6000B1F08FEF90E09C0102C0220F331FCA94B6
:100B7000E2F7690182E90E9471049C2D9095F301CE
:100B8000208192238C21982B9083CC24C394230121
:100B90004C0C511CCB1440F482E90E947104F20108
:100BA00081932F01C394F6CF80E00E947104F2017B
:100BB000808361E0F40186850E94BD0268E1C40182
:100BC0000E94A7048770E114F10411F0F7018083FB
:100BD00033FC4DC06114710409F44BC001151105BB
:100BE00009F447C0AA2009F444C0F801408141300B
:100BF00039F4843009F049C08FEF23C080E0E8CF9A
:100C0000423008F442C0811140C042509E012F5F23
:100C10003F4FB301C4010E94E204811112C0F801E8
:100C20009081690E711CF3013297208199812913FB
:100C30002CC0F1E06F1A7108F30120819A81291309
:100C400024C00F900F90DF91CF911F910F91FF90D3
:100C5000EF90DF90CF90BF90AF909F908F907F905C
:100C60006F905F904F903F90089584E0EACF82E0CC
:100C7000E8CF80E0E6CF6CE0C4010E94A704382EE4
:100C8000837109F44ACF81E0DCCF87E0DACF8F921D
:100C90009F92AF92CF92DF92EF92FF920F931F93AA
:100CA000CF93DF9300D000D0CDB7DEB74C0180E505
:100CB00089831A829E012D5F3F4F42E0BE016F5F24
:100CC0007F4FC4010E94E204D82E811116C0A12CCE
:100CD000C12CF12CE12C10E000E030E020E044E0F9
:100CE000BE016F5F7F4FC4010E942E05833029F043
:100CF000D82E811102C0DD24D3948D2D0F900F903A
:100D00000F900F90DF91CF911F910F91FF90EF9077
:100D1000DF90CF90AF909F908F9008950F931F9387
:100D2000CF93DF938C01D62FC42F0E94A704C095C8
:100D30004C2F48236D2FC801DF91CF911F910F9148
:100D40000C94C5048F929F92AF92CF92EF92FF9234
:100D50000F931F93CF93DF9300D000D01F92CDB796
:100D6000DEB74C0182E08D8340E064E2C4010E9462
:100D7000C50440E066E2C4010E94C50446E268E49E
:100D8000C4010E94C50486E28B838D818230B0F15C
:100D900040E86CE1C4010E948E0687E08C83A12CA0
:100DA000C12CCE0104967C018E010B5F1F4F9E016A
:100DB0002F5F3F4F41E0BE016D5F7F4FC4010E9436
:100DC0002E05982F811117C08D818230B9F48C8146
:100DD000811114C081E00F900F900F900F900F9031
:100DE000DF91CF911F910F91FF90EF90CF90AF9037
:100DF0009F908F90089581E0923069F380E0EBCF6F
:100E00002F923F924F925F926F927F928F929F921A
:100E1000AF92BF92CF92DF92EF92FF920F931F9308
:100E2000CF93DF93CDB7DEB72D970FB6F894DEBF23
:100E30000FBECDBF16E0413508F045C1342E4B0141
:100E40003C0140E86CE10E948E0683E989833320EF
:100E500029F081E0F4019081953008F480E02224AB
:100E60002394B12C9B2D990F990F990FD32CD91A3C
:100E7000D7FCD12C32E0882319F098E89B8333E02B
:100E800021E09D2D977009F420E09D2D9595959575
:100E90009595290FC9F094E0811193E0291708F482
:100EA000922FEB2DF0E03196E80DF91D232F4191A3
:100EB000A1E0B0E0AC0FBD1FA20FB11D4C932F5F9E
:100EC000422F431B491798F3882311F0F8E0DF0EF7
:100ED0008FE18D150CF082C090E79A838B819C8105
:100EE00089279D8189279E8189278F839E01285F7D
:100EF0003F4F47E0BE016F5F7F4FC3010E94E20496
:100F0000182F8111E0C01A86E3E0EB87DC86CE0162
:100F100007962C0199E09D87CA844C2D4295407F0D
:100F20004C0D6AE1C3010E94C504A12CCE010A96B2
:100F30007C018E01055F1F4F92014D85BE016F5FE1
:100F40007F4FC3010E942E05182F823009F065C023
:100F50006CE1C3010E94A70485FDB5C08F7109F43F
:100F600080E2282F30E04D2DDD0C550B4217530742
:100F70000CF09DC0D82EE82FE595E595E595EF5F3F
:100F8000982F977081E009F480E0E80F81E090E00D
:100F90008C0F9D1F8E0F911DFC0121503109277070
:100FA000332781E090E002C0880F991F2A95E2F76D
:100FB0009C018081822B80838BCF85E989833320BC
:100FC00031F081E0F4019081983008F04BCF80E05F
:100FD00049CF87E9898326E0B22EF9CF9D2D9770FE
:100FE0009A878D2D8595859585958E5F282F2295DD
:100FF000207F290F2A8321E0911101C020E0280FD2
:101000002D8744244394512C4C0E5D1E480E511CD8
:10101000E9E0E81BEB87DC867FCF811154C080E2DA
:10102000D82E9C8590320CF457CF8B81883809F0EC
:1010300040C083E093E0EB2DF0E03196E80DF91D20
:10104000980FA1E0B0E0AC0FBD1FA80FB11D2C910F
:1010500021938F5F8913F5CFBB84E3E0BE124DC0AF
:101060008A8581114AC09E012D5F3F4F41E0B20148
:10107000C3010E94E204182F811125C09B81F20157
:10108000818198133CC09C818281981338C08081F3
:1010900082FF12C02394F2E02F1609F48ECF83E072
:1010A000281609F496CF91E0291609F4CECE15E062
:1010B0000AC082E094E0BFCFF4018387822D880FBD
:1010C000820D8F5F8083812F2D960FB6F894DEBF3F
:1010D0000FBECDBFDF91CF911F910F91FF90EF9089
:1010E000DF90CF90BF90AF909F908F907F906F9048
:1010F0005F904F903F902F90089511E0E4CF17E05C
:10110000E2CF2091B301260F3327331F213231055F
:10111000ECF420914C02FC0190E080E0243069F076
:1011200082E00895A091B3012191AC014D565E4F2C
:10113000A40FB52FB11D2C930196861798F38091BB
:10114000B301680F6093B30180E0089581E00895D2
:1011500010924C0281E080934B021092260261E0D3
:1011600082E10E94BD0261E083E10E94BD02E9EBE1
:10117000F0E080818E7F808380818D7F808388E412
:101180008093B80085E48093BC000895CF93DF93EB
:1011900091E0909392018823B9F0C091B800D0916A
:1011A000BA008091BC008A7B8093BC0060E082E141
:1011B0000E94BD0260E083E10E94BD020E94A80877
:1011C000D093BA00C093B800DF91CF910895CF9229
:1011D000DF92EF92FF920F931F93CF93DF93D09103
:1011E000750281E0D13208F09CC0C09174020E9467
:1011F000FD036B017C0180914C0281116CC082E087
:1012000080934C0281E080934B028FEF80934A02DF
:1012100010924902D0934802A4E5B2E0E8E2F2E07D
:1012200080E0D8138DC01092270280912702CC0F46
:10123000C82BC093270280912602813009F084C018
:10124000109226020E94FD036B017C01809127020F
:101250008093BB0080914E0290914F02A09150026A
:10126000B0915102892B8A2B8B2BA1F00E94FD0398
:1012700000914E0210914F02209150023091510284
:101280006C197D098E099F0906171707280739076A
:1012900008F442C08091BC0083FDD8CF85EC8093D8
:1012A000BC000E94FD036B017C0180914C028230E6
:1012B00009F44CC080914A028F3F09F469C08091C3
:1012C0004A02803209F466C080914A02803309F4F0
:1012D00063C084E026C080914E0290914F02A0919D
:1012E0005002B0915102892B8A2B8B2B09F483CFAA
:1012F0000E94FD0300914E0210914F022091500276
:10130000309151026C197D098E099F090617170744
:101310002807390708F06FCF80914D020E94C60858
:1013200085E0109253021092750210925202DF91E2
:10133000CF911F910F91FF90EF90DF90CF90089584
:101340009D9191938F5F6DCF85EEA9CF80914E02D5
:1013500090914F02A0915002B0915102892B8A2B9B
:101360008B2B09F4A2CF0E94FD0300914E02109135
:101370004F0220915002309151026C197D098E0963
:101380009F09061717072807390708F08ECFC4CF23
:1013900080E0C7CF82E0C5CF83E0C3CF0895E0915E
:1013A000E5018091E401E81730F4F0E0EE58FE4FDB
:1013B000808190E008958FEF9FEF08959091E5016F
:1013C0008091E4012FEF3FEF981748F4E92FF0E008
:1013D000EE58FE4F208130E09F5F9093E501C901F8
:1013E00008958091E4019091E501891B990B08957E
:1013F000CF92DF92EF92FF920F931F93CF93DF93E1
:101400007C01CB018A0120915202222389F0EB0159
:101410006B01C40ED51ECC15DD0569F06991D701AD
:10142000ED91FC910190F081E02DC7010995F3CF7A
:10143000642F0E948108C801DF91CF911F910F9105
:10144000FF90EF90DF90CF900895CF93DF931F929E
:10145000CDB7DEB76983209152022223F9F02091A3
:101460007502203258F021E030E0FC013383228302
:1014700090E080E00F90DF91CF910895809153022A
:10148000E82FF0E0EC5AFD4F998190838F5F8093B5
:1014900053028093750281E090E0ECCF61E0CE01D1
:1014A00001960E948108F7CFFC01248131E030933E
:1014B0005202209374021092530210927502838597
:1014C000682B83E193E00E94250A0C94E7080895B5
:1014D00090E080E008950F931F93CF938C01C62F67
:1014E0000E94540A6C2F6460C8010E94540A6C2F39
:1014F0006B7FC8010E94540A83EC90E00197F1F7DA
:10150000CF911F910F9108950F931F93CF93DF9366
:101510008C01D62FC42F607F642B0E946B0A80E160
:10152000D89FB00111246C2BC801DF91CF911F917E
:101530000F910C946B0A41E00E94840A81E090E0D4
:101540000895CF93DF93CDB7DEB728970FB6F89401
:10155000DEBF0FBECDBF28E0E7E0F1E0DE0111966F
:1015600001900D922A95E1F7FC012185241708F4DA
:101570004FEF50E0440F551F21E030E02C0F3D1F8E
:10158000420F531FFA012081620F606840E02896E5
:101590000FB6F894DEBF0FBECDBFDF91CF910C9494
:1015A000840A40E061E00E94840A8BE39FE1019796
:1015B000F1F70895FB0101900020E9F73197AF01A1
:1015C000461B570BDC01ED91FC910280F381E02D6D
:1015D0000994CF93DF93BC0186E792E00E946301F8
:1015E000EC0169E471E086E792E00E94DA0A8C0F70
:1015F0009D1FDF91CF9108958F929F92AF92BF92DE
:10160000EF92FF920F931F93CF93DF93CDB7DEB787
:10161000A1970FB6F894DEBF0FBECDBF7C01FA01D3
:10162000CB0119A2223008F42AE08E010F5D1F4F72
:10163000822E912CB12CA12CBF01A50194010E94F6
:10164000F114F901CA016A300CF5605DD8016E939E
:101650008D01232B242B252B79F790E080E0109728
:1016600021F0BD01C7010E94DA0AA1960FB6F894D5
:10167000DEBF0FBECDBFDF91CF911F910F91FF90C5
:10168000EF90BF90AF909F908F900895695CDECFF0
:10169000CF92DF92EF92FF920F931F93CF93DF933E
:1016A0006B01770FEE08FF08F7FE1FC0EC01E88121
:1016B000F9810190F081E02D6DE209958C014427BC
:1016C0005527BA014C195D096E097F092AE0CE0140
:1016D0000E94FC0A800F911FDF91CF911F910F9103
:1016E000FF90EF90DF90CF9008952AE0B701A60118
:1016F000DF91CF911F910F91FF90EF90DF90CF90EE
:101700000C94FC0ACF93DF93C0911A02D0911B0274
:1017100041E064E0CE010E94A10A8091EB0190912A
:10172000EC010A972CF462E770E0CE010E9463019D
:101730006091EB017091EC0180911A0290911B0273
:101740000E94480BC0911A02D0911B0241E067E051
:10175000CE010E94A10A8091ED019091EE010A97BD
:101760002CF460E770E0CE010E9463016091ED010E
:101770007091EE0180911A0290911B020E94480B19
:10178000C0911A02D0911B0241E06AE0CE010E9492
:10179000A10A8091EF019091F0010A972CF46EE676
:1017A00070E0CE010E9463016091EF017091F00141
:1017B00080911A0290911B02DF91CF910C94480BFB
:1017C000CF93DF93C0911A02D0911B0240E064E0F6
:1017D000CE010E94A10A8091F1019091F2010A9735
:1017E0002CF46CE670E0CE010E9463016091F1017F
:1017F0007091F20180911A0290911B020E94480B95
:10180000C0911A02D0911B0240E067E0CE010E9415
:10181000A10A8091F3019091F4010A972CF46AE6F1
:1018200070E0CE010E9463016091F3017091F401B8
:1018300080911A0290911B020E94480BC0911A02DB
:10184000D0911B0240E06AE0CE010E94A10A809183
:10185000F5019091F6010A972CF468E670E0CE014C
:101860000E9463016091F5017091F60180911A0266
:1018700090911B02DF91CF910C94480BCF93DF9393
:1018800066E572E086E792E00E94630120912603FC
:1018900080E197E2289FA001299F500D11246091BB
:1018A000250328EE33E0629FC001639F900D112451
:1018B000480F591F8091240394E6899F400D511DC4
:1018C0001124809123039AE0899F400D511D11241A
:1018D00080912203480F511D052E000C660B770BDB
:1018E00040932202509323026093240270932502B6
:1018F0002AE086E792E00E94FC0A69E471E086E74C
:1019000092E00E94DA0A80912002909121028130B7
:10191000910509F48CC034F4892B09F45DC0DF9182
:10192000CF9108958230910509F4AEC00397B9F7BD
:101930008091220290912302A0912402B09125026D
:1019400040911C0250911D0260911E0270911F0275
:10195000481759076A077B0711F340911602509107
:101960001702609118027091190284179507A60753
:10197000B707A9F24091120250911302609114022C
:101980007091150284179507A607B70741F2809357
:101990000E0290930F02A0931002B0931102C09117
:1019A0001A02D0911B02CE010E94D10A40E060E0F1
:1019B000CE010E94A10A66E172E0CE010E9463019D
:1019C000C0911A02D0911B0241E060E0CE010E945A
:1019D000A10A66E072E01EC080912202909123026B
:1019E000A0912402B091250280931C0290931D02C5
:1019F000A0931E02B0931F02C0911A02D0911B0245
:101A0000CE010E94D10A40E060E0CE010E94A10A0E
:101A100066E472E0CE010E94630180912002909101
:101A200021020196909321028093200278CF809129
:101A3000220290912302A0912402B09125024091AC
:101A40001C0250911D0260911E0270911F024817E6
:101A500059076A077B0709F462CF809316029093B7
:101A60001702A0931802B0931902C0911A02D091E4
:101A70001B02CE010E94D10A40E060E0CE010E942C
:101A8000A10A66E372E0C6CF809122029091230200
:101A9000A0912402B091250240911C0250911D0298
:101AA00060911E0270911F02481759076A077B0751
:101AB00009F435CF40911602509117026091180237
:101AC0007091190284179507A607B70709F427CF65
:101AD0008093120290931302A0931402B093150204
:101AE000C0911A02D0911B02CE010E94D10A40E09F
:101AF00060E0CE010E94A10A66E272E08BCF85ED24
:101B00008093BC0080914E0290914F02A0915002B0
:101B1000B09151020796A11DB11D23E0B695A7957E
:101B2000979587952A95D1F72091BC0024FD03C095
:101B300010924C02089540914E0250914F026091D4
:101B4000500270915102452B462B472B69F30097A9
:101B5000A105B10541F02AE22A95F1F700C00197ED
:101B6000A109B109E1CF80914D020C94C6081F92E2
:101B70000F920FB60F9211242F933F934F935F93C1
:101B80006F937F938F939F93AF93BF93EF93FF9345
:101B90008091020290910302A0910402B09105028B
:101BA000892B8A2B8B2BD1F19091FD01E091FE01C5
:101BB000F091FF01808189278083809102029091BA
:101BC0000302A0910402B0910502181619061A0624
:101BD0001B069CF48091020290910302A0910402E2
:101BE000B09105020197A109B10980930202909377
:101BF0000302A0930402B0930502FF91EF91BF91FD
:101C0000AF919F918F917F916F915F914F913F9194
:101C10002F910F900FBE0F901F901895809100018B
:101C2000E5E0F2E0E4919FEF90930001E13051F0A4
:101C300030F0E23069F060E00E94BD02DECF109229
:101C40006E00F9CF90916F009D7F90936F00F3CF5E
:101C5000909170009D7F9093700091E09093B00000
:101C60009091B100987F94609093B1001092B3006E
:101C7000E2CF1F920F920FB60F9211242F933F9332
:101C80004F935F936F937F938F939F93AF93BF9384
:101C9000EF93FF9386E792E00E940502FF91EF9198
:101CA000BF91AF919F918F917F916F915F914F9174
:101CB0003F912F910F900FBE0F901F9018951F927C
:101CC0000F920FB60F9211242F938F939F93EF9340
:101CD000FF93E0918602F09187028081E0918C026F
:101CE000F0918D0282FD1BC0908180918F028F5FE9
:101CF0008F7320919002821741F0E0918F02F0E003
:101D0000EA58FD4F958F80938F02FF91EF919F913D
:101D10008F912F910F900FBE0F901F90189580817B
:101D2000F4CF1F920F920FB60F9211242F933F936F
:101D30008F939F93AF93BF938091D7019091D801D8
:101D4000A091D901B091DA013091D60123E0230F9F
:101D50002D3758F50196A11DB11D2093D601809312
:101D6000D7019093D801A093D901B093DA01809163
:101D7000DB019091DC01A091DD01B091DE010196C3
:101D8000A11DB11D8093DB019093DC01A093DD01C7
:101D9000B093DE01BF91AF919F918F913F912F91B1
:101DA0000F900FBE0F901F90189526E8230F0296F4
:101DB000A11DB11DD2CF1F920F920FB60F92112409
:101DC0002F933F934F935F936F937F938F939F9343
:101DD000AF93BF93EF93FF938091B900887F8036D4
:101DE00009F44AC0F0F5883209F4A7C018F580312B
:101DF00009F49BC0B8F4882309F4F9C0883009F4C9
:101E000094C0FF91EF91BF91AF919F918F917F917E
:101E10006F915F914F913F912F910F900FBE0F9057
:101E20001F901895883109F488C0803251F780934B
:101E30004A0214C0803409F49DC040F48033B9F3E1
:101E40008833F9F680934A0285ECB0C0803509F4F6
:101E500085C0883509F496C0883499F60E947F0DB4
:101E6000D0CF883909F48CC038F5883729F050F480
:101E7000883611F0803729F683E080934C02109267
:101E8000D50157C0883809F47BC0803919F08038F3
:101E900009F0B7CF8091D501803208F071C0E09190
:101EA000D50181E08E0F8093D5018091BB00F0E0D9
:101EB000EB54FE4F80833DC0803B39F0E0F4803A24
:101EC00009F479C0883A09F09CCF84E080934C02F1
:101ED0001092B4011092B301E091E001F091E101A0
:101EE00009958091B30181110FC081E08093B30106
:101EF0001092930109C0803C09F4A6CF883C09F4F4
:101F0000A3CF883B09F07DCFE091B40181E08E0F33
:101F10008093B401F0E0ED56FE4F80818093BB00CA
:101F20009091B4018091B30129C0809127028093E0
:101F3000BB0085EC8093BC0064CF909149028091F6
:101F40004802981758F5E091490281E08E0F80937E
:101F50004902F0E0E85DFD4F8081E9CFE091490260
:101F600081E08E0F809349028091BB00F0E0E85D34
:101F7000FD4F808390914902809148029817C8F2E2
:101F800085E8D8CFE091490281E08E0F8093490225
:101F90008091BB00F0E0E85DFD4F808380914B02B3
:101FA00081115CCF81E08093260284EA8093BC009B
:101FB00010924C0226CF85EC8093BC0010924C020C
:101FC0008091D501803230F4E091D501F0E0EB54FE
:101FD000FE4F10826091D50170E0E091E201F09136
:101FE000E30185EB91E009951092D5010ACF10929B
:101FF0004A0234CFE6E7F2E01382128288EE93E0E1
:10200000A0E0B0E084839583A683B7832FE131E01D
:102010003183208325EC30E03587248724EC30E0C1
:102020003787268720EC30E0318B208B21EC30E0A5
:10203000338B228B22EC30E0358B248B26EC30E086
:10204000378B268B118E128E138E148EE3E1F3E004
:102050001382128284839583A683B78381E391E000
:1020600091838083EFE1F3E083E491E091838083C7
:102070008AE0868789E087870895789484B58260AE
:1020800084BD84B5816084BD85B5826085BD85B51C
:10209000816085BD80916E00816080936E0010929A
:1020A0008100809181008260809381008091810015
:1020B00081608093810080918000816080938000A6
:1020C0008091B10084608093B1008091B000816004
:1020D0008093B00080917A00846080937A00809130
:1020E0007A00826080937A0080917A008160809388
:1020F0007A0080917A00806880937A001092C10003
:10210000E0918602F091870282E08083E091820272
:10211000F09183021082E0918402F09185028FECAD
:10212000808310928E02E0918A02F0918B0286E009
:102130008083E0918802F0918902808180618083B0
:10214000E0918802F0918902808188608083E0912B
:102150008802F0918902808180688083E091880202
:10216000F091890280818F7D80831092E501109229
:10217000E4010E94A80881E691E09093E101809338
:10218000E00182E691E09093E3018093E201C1E0F7
:10219000D1E0D0935202C093740210925302109275
:1021A00075020E94E70881113CC16CE471E086E78A
:1021B00092E00E94DA0AC03130F46BE671E086E703
:1021C00092E00E94DA0A4C2F50E070E060E020E1DB
:1021D00086E792E00E94FC0A6DE671E086E792E0F5
:1021E0000E94DA0A69E471E086E792E00E94DA0A66
:1021F0008CE090E00E941915FC011382128283E1A9
:1022000091E091838083C48380E1808782E081872D
:10221000128688E08387F0931B02E0931A02CFB7FF
:10222000F8948091DF01811127C0EBEFF1E08491F8
:10223000EDEDF1E09491E82FF0E0EE0FFF1FEC5888
:10224000FF4FA591B491EC91E92321F461E08AE07C
:102250000E94BD0261E08AE00E94EB028CB58061C1
:102260008CBD8CB580648CBD61E08DE00E94EB027A
:1022700061E08BE00E94EB028091DF018F5F809331
:10228000DF01CFBF61E084E00E94EB0261E083E008
:102290000E94EB0261E085E00E94EB0261E0809128
:1022A0002D030E94EB0261E080912D030E94BD028C
:1022B00080912E038F3F09F4C8C060E00E94EB02BA
:1022C00020912E0330E0F901E857FF4F8491F90186
:1022D000ED52FE4FD491F901EF50FE4FC491C11160
:1022E000A5C061E080912E030E94EB0260E0809126
:1022F0002E030E94BD0283E090E00197F1F761E0B8
:1023000080912E030E94BD0262E370E080E090E0C5
:102310000E94220440E064E28FE193E00E94C50441
:1023200040E066E28FE193E00E94C50446E268E483
:102330008FE193E00E94C50440E864E58FE193E0FB
:102340000E94C50449EA66E58FE193E00E94C50456
:1023500043E068E58FE193E00E94C50448EE6AE53A
:102360008FE193E00E94C50440E46AE28FE193E0CC
:102370000E94C5044DE362E28FE193E00E94C50430
:1023800068E28FE193E00E94A704982F9370933046
:1023900039F0482F436068E28FE193E00E94C50462
:1023A0006CE48FE193E00E94A7048077803791F07E
:1023B00040E76CE48FE193E00E948E066CE48FE1CD
:1023C00093E00E94A704482F40676CE48FE193E0FC
:1023D0000E94C5046EE68FE193E00E94A704C82F17
:1023E00063E271E086E792E00E9463014C2F50E0C7
:1023F00070E060E020E186E792E00E94FC0A80E164
:1024000091E0C03909F440C0B8F58CEE90E0C231DB
:1024100009F43AC088E191E0C838B1F18FED90E05D
:1024200033C0CF5FCF3709F0B4CEE2CE81110E9426
:102430009402EC2FF0E0EE0FFF1FE258FF4FA59142
:10244000B491EC91ED2309F44CCF4FE062E08FE1C1
:1024500093E00E94C504C3E062E370E080E090E096
:102460000E94220462E08FE193E00E94A70484FFAF
:1024700051CFC15089F74ECF88E091E0C13921F0AA
:1024800080E091E0C23951F60E94E90AC150CE3F86
:1024900020F08CE990E00E94E90AC0911A02D091E4
:1024A0001B021092E5011092E40110925302109267
:1024B00075020E94A80881E691E09093E101809363
:1024C000E00182E691E09093E3018093E2011D82B6
:1024D0008985823010F098E09D839A85992329F0B0
:1024E000813019F48D8184608D8362E370E080E037
:1024F00090E00E9422046B85CE010E94540A68EE8F
:1025000073E080E090E00E94220460E3CE010E942C
:102510006B0A0BE416E4C8010197F1F760E3CE0102
:102520000E946B0AC8010197F1F760E3CE010E9497
:102530006B0A83E592E00197F1F760E2CE010E9419
:102540006B0A6D81606240E0CE010E94840A84E0E3
:102550008E8340E06CE0CE010E94840ACE010E948E
:10256000D10A82E08F8340E066E0CE010E94840AB7
:1025700040E062E0CE010E94840A8BE39FE1019774
:10258000F1F788E08B8760E0CE010E94540ACE010B
:102590000E94D10A40E060E0CE010E94A10A6DE5F0
:1025A00071E0CE010E9463018FE193E00E94A206D8
:1025B0008823C1F08FE193E00E946004882391F0AA
:1025C00062E571E086E792E00E9463010E943E0CA2
:1025D0008FE193E00E94470648E060E18FE193E0DD
:1025E0000E948E0680912002909121020497E1F6CC
:1025F00068E873E180E090E00E942204C0911A0232
:10260000D0911B02CE010E94D10A40E060E0CE01D1
:102610000E94A10A65E471E0CE010E946301C091AD
:102620001A02D0911B0241E060E0CE010E94A10A93
:1026300068E371E0CE010E94630100E010E0C1E0B8
:102640000E945404C090E701D090E801E090E901B5
:10265000F090EA016C197D098E099F09683E73406C
:102660008105910528F4CD28CE28CF2809F093C004
:102670000E945404AB01BC014093E7015093E80170
:102680006093E9017093EA012AE086E792E00E94F4
:10269000FC0A69E471E086E792E00E94DA0A809120
:1026A000E60181110CC00E9454046093F9017093FB
:1026B000FA018093FB019093FC01C093E6018091A5
:1026C000F5019091F601409711F41092F701809175
:1026D000F701882351F10E94E00B8091F501909160
:1026E000F6018B33910509F041C11092F601109269
:1026F000F5018091F3019091F40101969093F4011A
:102700008093F3018091F3019091F401CC9769F4E7
:102710001092F4011092F3018091F1019091F20175
:1027200001969093F2018093F1018091EF019091D5
:10273000F001409711F41092F8018091F80188237C
:1027400051F10E94820B8091EF019091F0018B3347
:10275000910509F011C11092F0011092EF018091E2
:10276000ED019091EE0101969093EE018093ED01C1
:102770008091ED019091EE01CC9769F41092EE01F9
:102780001092ED018091EB019091EC0101969093F4
:10279000EC018093EB010E945404C090F901D090A9
:1027A000FA01E090FB01F090FC016C197D098E09A3
:1027B0009F096C3271408105910508F4CBC00E94DD
:1027C00054046093F9017093FA018093FB01909394
:1027D000FC018FE193E00E94A206882309F4BAC0AD
:1027E0008FE193E00E946004882309F4B3C068EC91
:1027F00071E086E792E00E9463010E943E0C8FE147
:1028000093E00E94470648E060E18FE193E00E9478
:102810008E06409122025091230260912402709111
:10282000250280911C0290911D02A0911E02B09180
:102830001F02481759076A077B07D1F48091F801F6
:10284000811104C08091F701811102C00E941C0314
:1028500085EB91E00E94E90A61E084E00E94BD02FC
:1028600060E083E00E94BD02C093F7011092F8017E
:10287000409122025091230260912402709125021E
:102880008091160290911702A0911802B09119023E
:10289000481759076A077B07D1F48091F701811126
:1028A00004C08091F801811102C00E941C0382EAD9
:1028B00091E00E94E90A60E084E00E94BD0261E0CC
:1028C00083E00E94BD021092F701C093F80140918D
:1028D000220250912302609124027091250280917E
:1028E000120290911302A0911402B09115024817A0
:1028F00059076A077B07C9F48091F701811103C06A
:102900008091F80181110E941C0387E891E00E94E8
:10291000E90A60E084E00E94BD0260E083E00E947A
:10292000BD021092F7011092F801409122025091DD
:102930002302609124027091250280910E029091F1
:102940000F02A0911002B0911102481759076A07AF
:102950007B07C1F00115110509F472CE0E94F10147
:10296000882309F46DCE0E9400006ACE01969093F0
:10297000F6018093F501C6CE01969093F001809305
:10298000EF01F6CE0E941C038DE691E00E94E90A59
:1029900060E084E00E94BD0260E083E00E94BD022E
:1029A0001092F6011092F5011092F4011092F301C9
:1029B0001092F2011092F1011092F0011092EF01C9
:1029C0001092EE011092ED011092EC011092EB01C9
:1029D0000E94E00B0E94820B1092F7011092F80106
:1029E000B9CFA1E21A2EAA1BBB1BFD010DC0AA1F65
:1029F000BB1FEE1FFF1FA217B307E407F50720F068
:102A0000A21BB30BE40BF50B661F771F881F991FE2
:102A10001A9469F760957095809590959B01AC012B
:102A2000BD01CF010895EE0FFF1F0590F491E02D39
:102A300009940F931F93CF93DF938230910510F485
:102A400082E090E0E0913103F091320330E020E049
:102A5000B0E0A0E0309799F42115310509F44AC09F
:102A6000281B390B24303105D8F58A819B816115EB
:102A7000710589F1FB0193838283FE0111C04081BE
:102A800051810281138148175907E0F0481759070F
:102A900099F4109761F012960C93129713961C9369
:102AA0003296CF01DF91CF911F910F91089500933E
:102AB000310310933203F4CF2115310551F0421741
:102AC000530738F0A901DB019A01BD01DF01F801CC
:102AD000C1CFEF01F9CF9093320380933103CDCF73
:102AE000FE01E20FF31F8193919322503109398344
:102AF0002883D7CF20912F0330913003232B41F42B
:102B000020910301309104013093300320932F036F
:102B100020910101309102012115310541F42DB7B9
:102B20003EB74091050150910601241B350BE09101
:102B30002F03F0913003E217F307A0F42E1B3F0B95
:102B40002817390778F0AC014E5F5F4F241735071F
:102B500048F04E0F5F1F5093300340932F03819333
:102B600091939FCFF0E0E0E09CCFCF93DF9300976D
:102B7000E9F0FC01329713821282A0913103B091E7
:102B80003203ED0130E020E01097A1F42081318183
:102B9000820F931F20912F0330913003281739079C
:102BA00009F061C0F0933003E0932F03DF91CF91E0
:102BB0000895EA01CE17DF07E8F54A815B819E019F
:102BC00041155105B1F7E901FB83EA834991599118
:102BD000C40FD51FEC17FD0761F480819181029627
:102BE000840F951FE90199838883828193819B8358
:102BF0008A83F0E0E0E012968D919C911397009704
:102C0000B9F52D913C911197CD010296820F931F3A
:102C100020912F03309130032817390739F6309768
:102C200051F51092320310923103B0933003A09308
:102C30002F03BCCFD383C28340815181840F951F62
:102C4000C817D90761F44E5F5F4F88819981480F9B
:102C5000591F518340838A819B81938382832115ED
:102C6000310509F0B0CFF0933203E09331039ECFEA
:102C7000FD01DC01C0CF13821282D7CFF894FFCFC1
:102C8000FF000033038000000040001400540000E7
:102C90000000009B0A8701680A670A0000000027FD
:102CA000028701B4017402E501C301D701000000ED
:102CB00000250AF809680ACE09F109DE09CF0900E2
:102CC0000000000007A20660040D0A0049324320FC
:102CD00064657669636520666F756E642061742033
:102CE00061646472657373203078003000202021A5
:022CF0000000E2
:00000001FF
