:100000000C9462000C948A000C948A000C948A0070
:100010000C948A000C948A000C948A000C948A0038
:100020000C948A000C948A000C948A000C948A0028
:100030000C948A000C948A000C948A000C948A0018
:100040000C947F050C948A000C944D050C942705A4
:100050000C948A000C948A000C948A000C948A00F8
:100060000C94C9050C948A000000000024002700AD
:100070002A0000000000250028002B0000000000DE
:1000800023002600290004040404040404040202DA
:100090000202020203030303030301020408102007
:1000A0004080010204081020010204081020000012
:1000B0000008000201000003040700000000000027
:1000C0000000E80611241FBECFEFD8E0DEBFCDBF91
:1000D00011E0A0E0B1E0E8E6F4E102C005900D9285
:1000E000A237B107D9F722E0A2E7B1E001C01D9223
:1000F000AA3FB207E1F710E0C2E6D0E004C02197C2
:10010000FE010E942C0AC136D107C9F70E943207AE
:100110000C94320A0C94000008950895AF92BF9297
:10012000CF92DF92EF92FF920F931F93CF93DF93C3
:100130006C017B018B01040F151FEB015E01AE18F2
:10014000BF08C017D10759F06991D601ED91FC9114
:100150000190F081E02DC6010995892B79F7C50141
:10016000DF91CF911F910F91FF90EF90DF90CF9093
:10017000BF90AF900895FC01538D448D252F30E042
:10018000842F90E0821B930B541710F0CF960895A4
:1001900001970895FC01918D828D981761F0A28DD1
:1001A000AE0FBF2FB11D5D968C91928D9F5F9F7397
:1001B000928F90E008958FEF9FEF0895FC01918D4D
:1001C000828D981731F0828DE80FF11D858D90E0BA
:1001D00008958FEF9FEF0895FC01918D228D892F57
:1001E00090E0805C9F4F821B91098F73992708953F
:1001F00085E492E00E94EC0021E0892B09F420E0E4
:10020000822F089580E090E0892B29F00E94F80069
:1002100081110C9400000895FC01A48DA80FB92F42
:10022000B11DA35ABF4F2C91848D90E001968F731E
:100230009927848FA689B7892C93A089B1898C913D
:10024000837080648C93938D848D981306C002888C
:10025000F389E02D80818F7D80830895EF92FF9256
:100260000F931F93CF93DF93EC0181E0888F9B8DD9
:100270008C8D98131AC0E889F989808185FF15C093
:100280009FB7F894EE89FF896083E889F9898081B6
:100290008370806480839FBF81E090E0DF91CF9185
:1002A0001F910F91FF90EF900895F62E0B8D10E0A7
:1002B0000F5F1F4F0F731127E02E8C8D8E110CC016
:1002C0000FB607FCFACFE889F989808185FFF5CF61
:1002D000CE010E940C01F1CFEB8DEC0FFD2FF11D33
:1002E000E35AFF4FF0829FB7F8940B8FEA89FB899E
:1002F00080818062CFCFCF93DF93EC01888D8823FC
:10030000B9F0AA89BB89E889F9898C9185FD03C078
:10031000808186FD0DC00FB607FCF7CF8C9185FF5D
:10032000F2CF808185FFEDCFCE010E940C01E9CF95
:10033000DF91CF910895833081F028F4813099F0D6
:100340008230A9F008958730A9F08830C9F0843050
:10035000B1F4809180008F7D03C0809180008F7701
:1003600080938000089584B58F7784BD089584B507
:100370008F7DFBCF8091B0008F778093B000089580
:100380008091B0008F7DF9CFCF93DF93282F30E09D
:10039000F901E255FF4F8491F901E656FF4FD491E0
:1003A000F901EA57FF4FC491CC23A1F081110E94BB
:1003B0009B01EC2FF0E0EE0FFF1FE458FF4FA591DB
:1003C000B491EC91ED2381E090E009F480E0DF91BD
:1003D000CF91089580E090E0FACF1F93CF93DF9301
:1003E000282F30E0F901E255FF4F8491F901E656DC
:1003F000FF4FD491F901EA57FF4FC491CC23A9F0E4
:10040000162F81110E949B01EC2FF0E0EE0FFF1FD1
:10041000EE58FF4FA591B4918FB7F894EC9111115C
:1004200008C0D095DE23DC938FBFDF91CF911F9161
:100430000895DE2BF8CFCF93DF9390E0FC01E656D2
:10044000FF4F24918A579F4FFC0184918823D1F05C
:1004500090E0880F991FFC01E859FF4FA591B491D6
:10046000FC01EE58FF4FC591D491623071F49FB7F3
:10047000F8943C91822F809583238C93E8812E2BD6
:1004800028839FBFDF91CF9108958FB7F894EC91A7
:100490002E2B2C938FBFF6CF3FB7F89480911C0280
:1004A00090911D02A0911E02B0911F0226B5A89B3B
:1004B00005C02F3F19F00196A11DB11D3FBFBA2FF6
:1004C000A92F982F8827BC01CD01620F711D811DB6
:1004D000911D42E0660F771F881F991F4A95D1F73B
:1004E00008958F929F92AF92BF92CF92DF92EF9238
:1004F000FF924B015C010E944C026B017C010E9447
:100500004C026C197D098E099F09683E7340810574
:100510009105A8F321E0821A9108A108B10888EE9C
:10052000C80E83E0D81EE11CF11C81149104A104C3
:10053000B10429F7FF90EF90DF90CF90BF90AF907C
:100540009F908F90089585ED8093BC008091BC00B2
:1005500084FDFCCF1092260208952091D401260F2D
:100560003327331F21323105ECF420912602FC01A0
:1005700090E080E0243069F082E00895A091D401F9
:100580002191AC014C545E4FA40FB52FB11D2C939B
:100590000196861798F38091D401680F6093D40177
:1005A00080E0089581E008950895E0912A02809105
:1005B0002902E81730F4F0E0EC56FE4F808190E01D
:1005C00008958FEF9FEF089590912A02809129025C
:1005D0002FEF3FEF981748F4E92FF0E0EC56FE4F6D
:1005E000208130E09F5F90932A02C9010895809195
:1005F000290290912A02891B990B0895CF92DF92CC
:10060000EF92FF920F931F93CF93DF937C01CB0167
:100610008A0120919301222389F0EB016B01C40E22
:10062000D51ECC15DD0569F06991D701ED91FC91DE
:100630000190F081E02DC7010995F3CF642F0E944E
:10064000AD02C801DF91CF911F910F91FF90EF9004
:10065000DF90CF900895CF93DF931F92CDB7DEB791
:100660006983209193012223F9F0209127022032FF
:1006700058F021E030E0FC013383228390E080E0F9
:100680000F90DF91CF91089580912802E82FF0E03C
:10069000ED58FE4F998190838F5F8093280280935D
:1006A000270281E090E0ECCF61E0CE0101960E944C
:1006B000AD02F7CFCF93FC01C48121E020939301D9
:1006C000C093720110922802109227028385682B32
:1006D00082EE92E00E942B0390912702913208F063
:1006E0003FC0809126028111FCCF82E080932602D8
:1006F00081E0809325028FEF8093F7011092190219
:1007000090931802A3E7B1E0E8EFF1E080E09813DE
:100710002FC010921A0280911A02CC0FC82BC093DE
:100720001A0280912402813039F5109224028091BE
:100730001A028093BB008091BC0083FDF8CF85EC4A
:100740008093BC00809126028230E1F38091F70112
:100750008F3F31F08091F701803211F08091F701E5
:10076000109228021092270210929301CF910895BF
:100770002D9121938F5FCBCF85EEE2CF089590E04E
:1007800080E008958F929F92AF92BF920F931F9334
:10079000CF93DF93CDB7DEB7A1970FB6F894DEBF46
:1007A0000FBECDBF19A2423008F44AE08E010F5DA2
:1007B0001F4F842E912CB12CA12CA50194010E94D5
:1007C0000A0AE62FB901CA01EA3044F5E05DD80112
:1007D000EE938D01232B242B252B79F790E080E0DD
:1007E000109769F0FD0101900020E9F73197AF0102
:1007F0004A1B5B0BBD018EEE92E00E948E00A1961B
:100800000FB6F894DEBF0FBECDBFDF91CF911F9121
:100810000F91BF90AF909F908F900895E95CD7CFD4
:10082000FC0101900020E9F73197AF01481B590BFB
:10083000BC018EEE92E00C948E000F931F93CF9329
:100840008C01C62F0E945A036C2F6460C8010E945D
:100850005A036C2F6B7FC8010E945A0383EC90E00F
:100860000197F1F7CF911F910F9108950F931F9367
:10087000CF93DF938C01D62FC42F607F642B0E940F
:100880001D0480E1D89FB00111246C2BC801DF91B9
:10089000CF911F910F910C941D04CF93DF93CDB78F
:1008A000DEB728970FB6F894DEBF0FBECDBF98E035
:1008B000E0E0F1E0DE01119601900D929A95E1F7EA
:1008C0009091F702961708F46FEF262F30E0220F71
:1008D000331F41E050E04C0F5D1F240F351FF9011D
:1008E0006081680F606840E08EEE92E028960FB657
:1008F000F894DEBF0FBECDBFDF91CF910C943604CC
:1009000041E00E94360481E090E00895CF92DF92AA
:10091000EF92FF926C01990FEE08FF08F7FE16C0E8
:1009200041E06DE28EEE92E00E9436046627772762
:10093000CB016C197D098E099F094AE00E94C20310
:100940000196FF90EF90DF90CF9008954AE0C701A5
:10095000B601FF90EF90DF90CF900C94C20361E05E
:1009600084E00E944D0480913302909134020A97F2
:1009700024F483E691E00E94100480913302909168
:1009800034020E94860488E391E00E941004809162
:100990003702909138020A9724F483E691E00E948E
:1009A000100480913702909138020E94860488E3F7
:1009B00091E00E9410048091390290913A020A97C6
:1009C00024F483E691E00E94100480913902909112
:1009D0003A020C94860460E084E00E944D04809109
:1009E0003B0290913C020A9724F483E691E00E9436
:1009F000100480913B0290913C020E94860488E39F
:100A000091E00E94100480913F02909140020A9769
:100A100024F483E691E00E94100480913F029091BB
:100A200040020E94860488E391E00E9410048091B5
:100A30004102909142020A9724F483E691E00E94D9
:100A4000100480914102909142020C9486041F92FE
:100A50000F920FB60F9211242F933F934F935F93F2
:100A60006F937F938F939F93AF93BF93EF93FF9376
:100A700085E492E00E940C01FF91EF91BF91AF914C
:100A80009F918F917F916F915F914F913F912F91A6
:100A90000F900FBE0F901F9018951F920F920FB6D8
:100AA0000F9211242F938F939F93EF93FF93E091D5
:100AB0005502F09156028081E0915B02F0915C0258
:100AC00082FD1BC0908180915E028F5F8F732091A9
:100AD0005F02821741F0E0915E02F0E0EB5BFD4FB8
:100AE000958F80935E02FF91EF919F918F912F914F
:100AF0000F900FBE0F901F9018958081F4CF1F921A
:100B00000F920FB60F9211242F933F938F939F93C1
:100B1000AF93BF9380912B0290912C02A0912D0254
:100B2000B0912E0230911B0223E0230F2D3758F590
:100B30000196A11DB11D20931B0280932B0290935F
:100B40002C02A0932D02B0932E0280911C02909152
:100B50001D02A0911E02B0911F020196A11DB11DA0
:100B600080931C0290931D02A0931E02B0931F025B
:100B7000BF91AF919F918F913F912F910F900FBE99
:100B80000F901F90189526E8230F0296A11DB11D06
:100B9000D2CF1F920F920FB60F9211242F933F9333
:100BA0004F935F936F937F938F939F93AF93BF9375
:100BB000EF93FF938091B900887F803609F44AC093
:100BC000F0F5883209F4A7C018F5803109F49BC00C
:100BD000B8F4882309F4F9C0883009F494C0FF916F
:100BE000EF91BF91AF919F918F917F916F915F91A5
:100BF0004F913F912F910F900FBE0F901F9018951E
:100C0000883109F488C0803251F78093F70114C00D
:100C1000803409F49DC040F48033B9F38833F9F689
:100C20008093F70185ECB0C0803509F485C0883524
:100C300009F496C0883499F60E94A302D0CF88396F
:100C400009F48CC038F5883729F050F4883611F053
:100C5000803729F683E0809326021092F60157C070
:100C6000883809F47BC0803919F0803809F0B7CF93
:100C70008091F601803208F071C0E091F60181E0C8
:100C80008E0F8093F6018091BB00F0E0EA52FE4F98
:100C900080833DC0803B39F0E0F4803A09F479C0AC
:100CA000883A09F09CCF84E0809326021092D50107
:100CB0001092D401E0912202F091230209958091D3
:100CC000D40181110FC081E08093D4011092B4014E
:100CD00009C0803C09F4A6CF883C09F4A3CF883B27
:100CE00009F07DCFE091D50181E08E0F8093D50191
:100CF000F0E0EC54FE4F80818093BB009091D501D1
:100D00008091D40129C080911A028093BB0085ECA8
:100D10008093BC0064CF90911902809118029817BB
:100D200058F5E091190281E08E0F80931902F0E0EE
:100D3000E850FE4F8081E9CFE091190281E08E0FEB
:100D4000809319028091BB00F0E0E850FE4F808351
:100D500090911902809118029817C8F285E8D8CFAF
:100D6000E091190281E08E0F809319028091BB00FF
:100D7000F0E0E850FE4F80838091250281115CCF26
:100D800081E08093240284EA8093BC0010922602C2
:100D900026CF85EC8093BC00109226028091F6014C
:100DA000803230F4E091F601F0E0EA52FE4F10821A
:100DB0006091F60170E0E0912002F091210286ED51
:100DC00091E009951092F6010ACF1092F70134CF05
:100DD000E5E4F2E01382128288EE93E0A0E0B0E056
:100DE00084839583A683B7832CE031E0318320830D
:100DF00025EC30E03587248724EC30E037872687E0
:100E000020EC30E0318B208B21EC30E0338B228BD7
:100E100022EC30E0358B248B26EC30E0378B268BB0
:100E2000118E128E138E148EE2EEF2E01382128275
:100E300084839583A683B7838EE191E09183808339
:100E4000EEEEF2E01382128280E391E091838083E0
:100E500087E2848380E1808782E08187128688E050
:100E600083870895789484B5826084BD84B5816059
:100E700084BD85B5826085BD85B5816085BD809165
:100E80006E00816080936E001092810080918100DD
:100E900082608093810080918100816080938100D5
:100EA000809180008160809380008091B100846097
:100EB0008093B1008091B00081608093B0008091F8
:100EC0007A00846080937A0080917A0082608093B7
:100ED0007A0080917A00816080937A0080917A0014
:100EE000806880937A001092C100E0915502F091E1
:100EF000560282E08083E0915102F091520210820A
:100F0000E0915302F09154028FEC808310925D02C5
:100F1000E0915902F0915A0286E08083E0915702F5
:100F2000F0915802808180618083E0915702F091B6
:100F30005802808188608083E0915702F0915802C6
:100F4000808180688083E0915702F091580280810F
:100F50008F7D808361E083E00E941B0261E084E07A
:100F60000E941B0262E089E00E941B0262E088E0AE
:100F70000E941B0262E087E00E941B0262E086E0A2
:100F80000E941B0210922A0210922902109228023B
:100F9000109227021092260281E08093250210927F
:100FA000240261E082E10E94ED0161E083E10E94A0
:100FB000ED018091B9008E7F8093B9008091B900D6
:100FC0008D7F8093B90088E48093B80085E4809396
:100FD000BC008CE890E090932302809322028DE87D
:100FE00090E090932102809320021092F30280916E
:100FF000F702823018F098E09093F3029091F80293
:10100000992339F0813029F48091F3028460809330
:10101000F30262E370E080E090E00E947102609170
:10102000F9028EEE92E00E945A0368EE73E080E0CF
:1010300090E00E94710260E38EEE92E00E941D0437
:10104000CBE4D6E4CE010197F1F760E38EEE92E0B7
:101050000E941D042197F1F760E38EEE92E00E945A
:101060001D0483E592E00197F1F760E28EEE92E0D5
:101070000E941D046091F302606240E08EEE92E0F7
:101080000E94360484E08093F40240E06CE08EEE2F
:1010900092E00E94360440E061E08EEE92E00E9411
:1010A0003604CBE3DFE1CE010197F1F782E08093D4
:1010B000F50240E066E08EEE92E00E94360440E0E9
:1010C00062E08EEE92E00E9436042197F1F788E00C
:1010D0008093F90260E08EEE92E00E945A0360E095
:1010E00080E00E944D048AE391E00E941004CEE16A
:1010F000D0E061E080E00E944D04CA30D10524F4C4
:1011000083E691E00E941004CE010E9486048BE4E5
:1011100091E00E94100468EE73E080E090E00E948D
:101120007102219731F740E061E08EEE92E00E947B
:1011300036048BE39FE10197F1F760E080E00E94C5
:101140004D0488E591E00E94100461E080E00E9477
:101150004D0485E691E00E94100484E6C82ED12C4F
:10116000E12CF12CC0E0D0E086E00E94C401892B84
:1011700069F461E083E00E94ED0160E084E00E9498
:10118000ED011092440281E08093430289E00E94C5
:10119000C401892B69F460E083E00E94ED0161E005
:1011A00084E00E94ED0181E08093440210924302AA
:1011B00088E00E94C401892B61F460E083E00E9412
:1011C000ED0160E084E00E94ED0110924402109273
:1011D000430287E00E94C401892B81F560E083E02F
:1011E0000E94ED0160E084E00E94ED011092420255
:1011F000109241021092400210923F0210923E0261
:1012000010923D0210923C0210923B0210923A0260
:101210001092390210923802109237021092360260
:101220001092350210923402109233020E94EB04A5
:101230000E94AF04109244021092430280902F0249
:1012400090903002A0903102B09032022FB7F89403
:1012500060912B0270912C0280912D0290912E02B0
:101260002FBFA70196010E940A0A821A930AA40AB4
:10127000B50A84E688169104A104B10468F480914B
:101280002F0290913002A0913102B0913202892B4D
:101290008A2B8B2B09F09BC08091410290914202D6
:1012A000409714F010924402809144028823B1F1D7
:1012B0000E94EB0480913D0290913E02893091059D
:1012C00009F096C010923E0210923D0280914102B8
:1012D000909142028B33910509F084C080913F02C6
:1012E0009091400210924202109241020196909316
:1012F000400280933F0280913F0290914002CC9740
:1013000069F41092400210923F0280913B0290914A
:101310003C02019690933C0280933B0280913902FB
:1013200090913A02409714F0109243028091430248
:101330008823B1F10E94AF0480913502909136026A
:101340008930910509F060C0109236021092350282
:101350008091390290913A028B33910509F04EC089
:10136000809137029091380210923A02109239021D
:1013700001969093380280933702809137029091C2
:101380003802CC9769F4109238021092370280919B
:101390003302909134020196909334028093330289
:1013A0002FB7F89460912B0270912C0280912D023E
:1013B00090912E022FBFA70196010E940A0A209346
:1013C0002F02309330024093310250933202209723
:1013D00009F4CACE0E94F800882309F4C5CE0E9401
:1013E0000000C2CE0196909342028093410283CFC7
:1013F000019690933E0280933D0290CF0196909388
:101400003A0280933902B9CF0196909336028093C5
:101410003502C6CFA1E21A2EAA1BBB1BFD010DC0CF
:10142000AA1FBB1FEE1FFF1FA217B307E407F50794
:1014300020F0A21BB30BE40BF50B661F771F881F70
:10144000991F1A9469F760957095809590959B0106
:10145000AC01BD01CF010895EE0FFF1F0590F4917F
:08146000E02D0994F894FFCF80
:101468000000400014005400000000002E018E000F
:10147800BB007B01EC00CA00DE00000000002B036B
:10148800FE02BF03D402F702E402D5020000000006
:1014980080048E00BF03BE033A004D415254494EAA
:1014A8002043484C45424F5645430020534841523B
:1014B80045574152452020005245442030303A30AB
:1014C800303A3030004752452030303A30303A30E8
:0214D8003000E2
:00000001FF
