:100000000C9462000C948A000C948A000C948A0070
:100010000C948A000C948A000C948A000C948A0038
:100020000C948A000C948A000C948A000C948A0028
:100030000C948A000C948A000C948A000C948A0018
:100040000C947F050C948A000C944D050C942705A4
:100050000C948A000C948A000C948A000C948A00F8
:100060000C94C9050C948A000000000024002700AD
:100070002A0000000000250028002B0000000000DE
:1000800023002600290004040404040404040202DA
:100090000202020203030303030301020408102007
:1000A0004080010204081020010204081020000012
:1000B0000008000201000003040700000000000027
:1000C0000000E80611241FBECFEFD8E0DEBFCDBF91
:1000D00011E0A0E0B1E0ECEEF3E102C005900D927A
:1000E000A435B107D9F722E0A4E5B1E001C01D9223
:1000F000AC3DB207E1F710E0C2E6D0E004C02197C2
:10010000FE010E94EE09C136D107C9F70E943207ED
:100110000C94F4090C94000008950895AF92BF92D6
:10012000CF92DF92EF92FF920F931F93CF93DF93C3
:100130006C017B018B01040F151FEB015E01AE18F2
:10014000BF08C017D10759F06991D601ED91FC9114
:100150000190F081E02DC6010995892B79F7C50141
:10016000DF91CF911F910F91FF90EF90DF90CF9093
:10017000BF90AF900895FC01538D448D252F30E042
:10018000842F90E0821B930B541710F0CF960895A4
:1001900001970895FC01918D828D981761F0A28DD1
:1001A000AE0FBF2FB11D5D968C91928D9F5F9F7397
:1001B000928F90E008958FEF9FEF0895FC01918D4D
:1001C000828D981731F0828DE80FF11D858D90E0BA
:1001D00008958FEF9FEF0895FC01918D228D892F57
:1001E00090E0805C9F4F821B91098F73992708953F
:1001F00087E292E00E94EC0021E0892B09F420E0E4
:10020000822F089580E090E0892B29F00E94F80069
:1002100081110C9400000895FC01A48DA80FB92F42
:10022000B11DA35ABF4F2C91848D90E001968F731E
:100230009927848FA689B7892C93A089B1898C913D
:10024000837080648C93938D848D981306C002888C
:10025000F389E02D80818F7D80830895EF92FF9256
:100260000F931F93CF93DF93EC0181E0888F9B8DD9
:100270008C8D98131AC0E889F989808185FF15C093
:100280009FB7F894EE89FF896083E889F9898081B6
:100290008370806480839FBF81E090E0DF91CF9185
:1002A0001F910F91FF90EF900895F62E0B8D10E0A7
:1002B0000F5F1F4F0F731127E02E8C8D8E110CC016
:1002C0000FB607FCFACFE889F989808185FFF5CF61
:1002D000CE010E940C01F1CFEB8DEC0FFD2FF11D33
:1002E000E35AFF4FF0829FB7F8940B8FEA89FB899E
:1002F00080818062CFCFCF93DF93EC01888D8823FC
:10030000B9F0AA89BB89E889F9898C9185FD03C078
:10031000808186FD0DC00FB607FCF7CF8C9185FF5D
:10032000F2CF808185FFEDCFCE010E940C01E9CF95
:10033000DF91CF910895833081F028F4813099F0D6
:100340008230A9F008958730A9F08830C9F0843050
:10035000B1F4809180008F7D03C0809180008F7701
:1003600080938000089584B58F7784BD089584B507
:100370008F7DFBCF8091B0008F778093B000089580
:100380008091B0008F7DF9CFCF93DF93282F30E09D
:10039000F901E255FF4F8491F901E656FF4FD491E0
:1003A000F901EA57FF4FC491CC23A1F081110E94BB
:1003B0009B01EC2FF0E0EE0FFF1FE458FF4FA591DB
:1003C000B491EC91ED2381E090E009F480E0DF91BD
:1003D000CF91089580E090E0FACF1F93CF93DF9301
:1003E000282F30E0F901E255FF4F8491F901E656DC
:1003F000FF4FD491F901EA57FF4FC491CC23A9F0E4
:10040000162F81110E949B01EC2FF0E0EE0FFF1FD1
:10041000EE58FF4FA591B4918FB7F894EC9111115C
:1004200008C0D095DE23DC938FBFDF91CF911F9161
:100430000895DE2BF8CFCF93DF9390E0FC01E656D2
:10044000FF4F24918A579F4FFC0184918823D1F05C
:1004500090E0880F991FFC01E859FF4FA591B491D6
:10046000FC01EE58FF4FC591D491623071F49FB7F3
:10047000F8943C91822F809583238C93E8812E2BD6
:1004800028839FBFDF91CF9108958FB7F894EC91A7
:100490002E2B2C938FBFF6CF3FB7F8948091FE019F
:1004A0009091FF01A0910002B091010226B5A89B96
:1004B00005C02F3F19F00196A11DB11D3FBFBA2FF6
:1004C000A92F982F8827BC01CD01620F711D811DB6
:1004D000911D42E0660F771F881F991F4A95D1F73B
:1004E00008958F929F92AF92BF92CF92DF92EF9238
:1004F000FF924B015C010E944C026B017C010E9447
:100500004C026C197D098E099F09683E7340810574
:100510009105A8F321E0821A9108A108B10888EE9C
:10052000C80E83E0D81EE11CF11C81149104A104C3
:10053000B10429F7FF90EF90DF90CF90BF90AF907C
:100540009F908F90089585ED8093BC008091BC00B2
:1005500084FDFCCF1092080208952091B601260F69
:100560003327331F21323105ECF420910802FC01BE
:1005700090E080E0243069F082E00895A091B60117
:100580002191AC014A565E4FA40FB52FB11D2C939B
:100590000196861798F38091B601680F6093B601B3
:1005A00080E0089581E008950895E0910C02809123
:1005B0000B02E81730F4F0E0EA58FE4F808190E03B
:1005C00008958FEF9FEF089590910C0280910B0298
:1005D0002FEF3FEF981748F4E92FF0E0EA58FE4F6D
:1005E000208130E09F5F90930C02C90108958091B3
:1005F0000B0290910C02891B990B0895CF92DF9208
:10060000EF92FF920F931F93CF93DF937C01CB0167
:100610008A0120917501222389F0EB016B01C40E40
:10062000D51ECC15DD0569F06991D701ED91FC91DE
:100630000190F081E02DC7010995F3CF642F0E944E
:10064000AD02C801DF91CF911F910F91FF90EF9004
:10065000DF90CF900895CF93DF931F92CDB7DEB791
:100660006983209175012223F9F02091090220323B
:1006700058F021E030E0FC013383228390E080E0F9
:100680000F90DF91CF91089580910A02E82FF0E05A
:10069000EB5AFE4F998190838F5F80930A0280937B
:1006A000090281E090E0ECCF61E0CE0101960E946A
:1006B000AD02F7CFCF93FC01C48121E020937501F7
:1006C000C093540110920A02109209028385682B8C
:1006D00084EC92E00E942B0390910902913208F081
:1006E0003FC0809108028111FCCF82E08093080214
:1006F00081E0809307028FEF8093D9011092FB0174
:100700009093FA01A5E5B1E0EAEDF1E080E09813FD
:100710002FC01092FC018091FC01CC0FC82BC0931C
:10072000FC0180910602813039F510920602809119
:10073000FC018093BB008091BC0083FDF8CF85EC69
:100740008093BC00809108028230E1F38091D9014E
:100750008F3F31F08091D901803211F08091D90121
:1007600010920A021092090210927501CF91089519
:100770002D9121938F5FCBCF85EEE2CF089590E04E
:1007800080E008958F929F92AF92BF920F931F9334
:10079000CF93DF93CDB7DEB7A1970FB6F894DEBF46
:1007A0000FBECDBF19A2423008F44AE08E010F5DA2
:1007B0001F4F842E912CB12CA12CA50194010E94D5
:1007C000CC09E62FB901CA01EA3044F5E05DD80151
:1007D000EE938D01232B242B252B79F790E080E0DD
:1007E000109769F0FD0101900020E9F73197AF0102
:1007F0004A1B5B0BBD0180ED92E00E948E00A1962A
:100800000FB6F894DEBF0FBECDBFDF91CF911F9121
:100810000F91BF90AF909F908F900895E95CD7CFD4
:10082000FC0101900020E9F73197AF01481B590BFB
:10083000BC0180ED92E00C948E000F931F93CF9338
:100840008C01C62F0E945A036C2F6460C8010E945D
:100850005A036C2F6B7FC8010E945A0383EC90E00F
:100860000197F1F7CF911F910F9108950F931F9367
:10087000CF93DF938C01D62FC42F607F642B0E940F
:100880001D0480E1D89FB00111246C2BC801DF91B9
:10089000CF911F910F910C941D04CF93DF93CDB78F
:1008A000DEB728970FB6F894DEBF0FBECDBF98E035
:1008B000E0E0F1E0DE01119601900D929A95E1F7EA
:1008C0009091D902961708F46FEF262F30E0220F8F
:1008D000331F41E050E04C0F5D1F240F351FF9011D
:1008E0006081680F606840E080ED92E028960FB666
:1008F000F894DEBF0FBECDBFDF91CF910C943604CC
:1009000041E00E94360481E090E00895CF92DF92AA
:10091000EF92FF926C01990FEE08FF08F7FE16C0E8
:1009200041E06DE280ED92E00E9436046627772771
:10093000CB016C197D098E099F094AE00E94C20310
:100940000196FF90EF90DF90CF9008954AE0C701A5
:10095000B601FF90EF90DF90CF900C94C20361E05E
:1009600084E00E944D0480911502909116020A972E
:1009700024F485E491E00E94100480911502909186
:1009800016020E94860488E391E00E941004809180
:10099000190290911A020A9724F485E491E00E94CA
:1009A00010048091190290911A020E94860488E333
:1009B00091E00E94100480911B0290911C020A9702
:1009C00024F485E491E00E94100480911B02909130
:1009D0001C020C94860460E084E00E944D04809127
:1009E0001D0290911E020A9724F485E491E00E9472
:1009F000100480911D0290911E020E94860488E3DB
:100A000091E00E94100480912102909122020A97A5
:100A100024F485E491E00E941004809121029091D9
:100A200022020E94860488E391E00E9410048091D3
:100A30002302909124020A9724F485E491E00E9415
:100A4000100480912302909124020C9486041F923A
:100A50000F920FB60F9211242F933F934F935F93F2
:100A60006F937F938F939F93AF93BF93EF93FF9376
:100A700087E292E00E940C01FF91EF91BF91AF914C
:100A80009F918F917F916F915F914F913F912F91A6
:100A90000F900FBE0F901F9018951F920F920FB6D8
:100AA0000F9211242F938F939F93EF93FF93E091D5
:100AB0003702F09138028081E0913D02F0913E02D0
:100AC00082FD1BC09081809140028F5F8F732091C7
:100AD0004102821741F0E0914002F0E0E95DFD4FF4
:100AE000958F80934002FF91EF919F918F912F916D
:100AF0000F900FBE0F901F9018958081F4CF1F921A
:100B00000F920FB60F9211242F933F938F939F93C1
:100B1000AF93BF9380910D0290910E02A0910F02AE
:100B2000B09110023091FD0123E0230F2D3758F5CD
:100B30000196A11DB11D2093FD0180930D0290939C
:100B40000E02A0930F02B09310028091FE019091CB
:100B5000FF01A0910002B09101020196A11DB11DFB
:100B60008093FE019093FF01A0930002B0930102D5
:100B7000BF91AF919F918F913F912F910F900FBE99
:100B80000F901F90189526E8230F0296A11DB11D06
:100B9000D2CF1F920F920FB60F9211242F933F9333
:100BA0004F935F936F937F938F939F93AF93BF9375
:100BB000EF93FF938091B900887F803609F44AC093
:100BC000F0F5883209F4A7C018F5803109F49BC00C
:100BD000B8F4882309F4F9C0883009F494C0FF916F
:100BE000EF91BF91AF919F918F917F916F915F91A5
:100BF0004F913F912F910F900FBE0F901F9018951E
:100C0000883109F488C0803251F78093D90114C02B
:100C1000803409F49DC040F48033B9F38833F9F689
:100C20008093D90185ECB0C0803509F485C0883542
:100C300009F496C0883499F60E94A302D0CF88396F
:100C400009F48CC038F5883729F050F4883611F053
:100C5000803729F683E0809308021092D80157C0AC
:100C6000883809F47BC0803919F0803809F0B7CF93
:100C70008091D801803208F071C0E091D80181E004
:100C80008E0F8093D8018091BB00F0E0E854FE4FB6
:100C900080833DC0803B39F0E0F4803A09F479C0AC
:100CA000883A09F09CCF84E0809308021092B70143
:100CB0001092B601E0910402F0910502099580912D
:100CC000B60181110FC081E08093B60110929601A8
:100CD00009C0803C09F4A6CF883C09F4A3CF883B27
:100CE00009F07DCFE091B70181E08E0F8093B701CD
:100CF000F0E0EA56FE4F80818093BB009091B701EF
:100D00008091B60129C08091FC018093BB0085ECE5
:100D10008093BC0064CF9091FB018091FA019817F9
:100D200058F5E091FB0181E08E0F8093FB01F0E02C
:100D3000E652FE4F8081E9CFE091FB0181E08E0F0A
:100D40008093FB018091BB00F0E0E652FE4F808370
:100D50009091FB018091FA019817C8F285E8D8CFED
:100D6000E091FB0181E08E0F8093FB018091BB003D
:100D7000F0E0E652FE4F80838091070281115CCF44
:100D800081E08093060284EA8093BC0010920802FE
:100D900026CF85EC8093BC00109208028091D80188
:100DA000803230F4E091D801F0E0E854FE4F108238
:100DB0006091D80170E0E0910202F091030288EBAB
:100DC00091E009951092D8010ACF1092D90134CF41
:100DD000E7E2F2E01382128288EE93E0A0E0B0E056
:100DE00084839583A683B7832CE031E0318320830D
:100DF00025EC30E03587248724EC30E037872687E0
:100E000020EC30E0318B208B21EC30E0338B228BD7
:100E100022EC30E0358B248B26EC30E0378B268BB0
:100E2000118E128E138E148EE4ECF2E01382128275
:100E300084839583A683B7838EE191E09183808339
:100E4000E0EDF2E01382128280E391E091838083EF
:100E50008FE3848380E1808782E08187128688E047
:100E600083870895789484B5826084BD84B5816059
:100E700084BD85B5826085BD85B5816085BD809165
:100E80006E00816080936E001092810080918100DD
:100E900082608093810080918100816080938100D5
:100EA000809180008160809380008091B100846097
:100EB0008093B1008091B00081608093B0008091F8
:100EC0007A00846080937A0080917A0082608093B7
:100ED0007A0080917A00816080937A0080917A0014
:100EE000806880937A001092C100E0913702F091FF
:100EF000380282E08083E0913302F0913402108264
:100F0000E0913502F09136028FEC808310923F021F
:100F1000E0913B02F0913C0286E08083E09139024F
:100F2000F0913A02808180618083E0913902F091F2
:100F30003A02808188608083E0913902F0913A0220
:100F4000808180688083E0913902F0913A0280814B
:100F50008F7D808361E083E00E941B0261E084E07A
:100F60000E941B0262E085E00E941B0262E086E0B4
:100F70000E941B0262E087E00E941B0262E088E0A0
:100F80000E941B0210920C0210920B0210920A0295
:100F9000109209021092080281E0809307021092D9
:100FA000060261E082E10E94ED0161E083E10E94BE
:100FB000ED018091B9008E7F8093B9008091B900D6
:100FC0008D7F8093B90088E48093B80085E4809396
:100FD000BC008CE890E090930502809304028DE8B9
:100FE00090E090930302809302021092D5028091C8
:100FF000D902823018F098E09093D5029091DA02ED
:10100000992339F0813029F48091D502846080934E
:10101000D50262E370E080E090E00E94710260918E
:10102000DB0280ED92E00E945A0368EE73E080E0FC
:1010300090E00E94710260E380ED92E00E941D0446
:10104000CBE4D6E4CE010197F1F760E380ED92E0C6
:101050000E941D042197F1F760E380ED92E00E9469
:101060001D0483E592E00197F1F760E280ED92E0E4
:101070000E941D046091D502606240E080ED92E024
:101080000E94360484E08093D60240E06CE080ED5C
:1010900092E00E94360440E061E080ED92E00E9420
:1010A0003604CBE3DFE1CE010197F1F782E08093D4
:1010B000D70240E066E080ED92E00E94360440E016
:1010C00062E080ED92E00E9436042197F1F788E01B
:1010D0008093DB0260E080ED92E00E945A0360E0C2
:1010E00080E00E944D048AE391E00E94100461E0D8
:1010F00080E00E944D0487E491E00E94100484E6A1
:10110000C82ED12CE12CF12CC0E0D0E088E00E9468
:10111000C401892B69F461E083E00E94ED0160E085
:1011200084E00E94ED011092260281E08093250266
:1011300085E00E94C401892B69F460E083E00E948D
:10114000ED0161E084E00E94ED0181E080932602E0
:101150001092250286E00E94C401892B61F460E0B0
:1011600083E00E94ED0160E084E00E94ED011092B6
:1011700026021092250287E00E94C401892B81F586
:1011800060E083E00E94ED0160E084E00E94ED01F8
:101190001092240210922302109222021092210235
:1011A0001092200210921F0210921E0210921D0235
:1011B00010921C0210921B0210921A021092190235
:1011C0001092180210921702109216021092150235
:1011D0000E94EB040E94AF04109226021092250296
:1011E0008090110290901202A0901302B09014020D
:1011F0002FB7F89460910D0270910E0280910F024A
:10120000909110022FBFA70196010E94CC09821A6B
:10121000930AA40AB50A84E688169104A104B104CD
:1012200068F48091110290911202A0911302B09182
:101230001402892B8A2B8B2B09F08BC080912602FC
:101240008823B1F10E94EB0480911F02909120024B
:101250008930910509F08EC01092200210921F0271
:1012600080912302909124028B33910509F07CC078
:101270008091210290912202109224021092230266
:1012800001969093220280932102809121029091F5
:101290002202CC9769F410922202109221028091CE
:1012A0001D0290911E02019690931E0280931D02D2
:1012B000809125028823B1F10E94AF04809117022A
:1012C000909118028930910509F060C010921802BF
:1012D0001092170280911B0290911C028B33910592
:1012E00009F04EC08091190290911A0210921C02CE
:1012F00010921B02019690931A028093190280911A
:10130000190290911A02CC9769F410921A02109265
:10131000190280911502909116020196909316027F
:10132000809315022FB7F89460910D0270910E0210
:1013300080910F02909110022FBFA70196010E9489
:10134000CC09209311023093120240931302509360
:101350001402209709F4DACE0E94F800882309F4D9
:10136000D5CE0E940000D2CE0196909324028093A5
:1013700023028BCF01969093200280931F0298CF77
:10138000019690931C0280931B02B9CF0196909313
:10139000180280931702C6CFA1E21A2EAA1BBB1B0C
:1013A000FD010DC0AA1FBB1FEE1FFF1FA217B30731
:1013B000E407F50720F0A21BB30BE40BF50B661F47
:1013C000771F881F991F1A9469F76095709580950B
:1013D00090959B01AC01BD01CF010895EE0FFF1F59
:0C13E0000590F491E02D0994F894FFCFE3
:1013EC000000400014005400000000002E018E008C
:1013FC00BB007B01EC00CA00DE00000000002B03E8
:10140C00FE02BF03D402F702E402D5020000000082
:10141C0080048E00BF03BE033A0052454420303096
:10142C003A30303A3030004752452030303A303084
:04143C003A30300012
:00000001FF
