:100000000C94A5010C94CD010C94CD010C94CD0160
:100010000C94CD010C94CD010C94CD010C94040EE4
:100020000C94CD010C94CD010C94CD010C94CD0118
:100030000C94CD010C94CD010C94CD010C94CD0108
:100040000C94DE0E0C94CD010C94AC0E0C94860E28
:100050000C94CD010C94CD010C94CD010C94CD01E8
:100060000C94280F0C94CD0130003000300030008B
:100070003000300030003000300030003000300000
:1000800000000000240027002A00000000002300D8
:1000900026002900000000080002010000030407F8
:1000A00000000000000000005741524E494E473A00
:1000B00020436F6D6D756E69636174696F6E206644
:1000C00061696C7572652C20697320746865204DB8
:1000D0004652433532322070726F7065726C7920EF
:1000E000636F6E6E65637465643F00203D20287504
:1000F0006E6B6E6F776E2900203D20636F756E7496
:10010000657266656974206368697000203D2076B9
:10011000322E3000203D2076312E3000203D2076DA
:10012000302E3000203D2028636C6F6E652900461C
:1001300069726D776172652056657273696F6E3A88
:10014000203078004752452030303A30303A303055
:100150000059454C2030303A30303A30300052456A
:10016000442030303A30303A303000424C55203064
:10017000303A30303A3030005246494420446F6DB6
:10018000696E6174696F6E2054696D6572202D20EF
:100190005265766973696F6E2031377468204170DB
:1001A00072696C2032303232004752452020203AAA
:1001B00020203A2020004F52412020203A20203A8F
:1001C0002020005245442020203A20203A202000C0
:1001D000424C552020203A20203A202000446574CB
:1001E0006563746564205549442028636F646529FC
:1001F000206F66205246494420434152443A200031
:10020000446574656374656420636172642066721A
:100210006F6D204552415345520019F7FFFF077F8C
:10022000000041F7FFFF6579000044657465637461
:10023000656420636172642066726F6D205245466A
:1002400045524545009F050000E9EAFFFF5BDFFFDF
:10025000FF53030000446574656374656420636143
:1002600072642066726F6D207465616D204F52411B
:100270000097B3FFFFF5B8FFFFC5C4FFFFD7B5FF79
:10028000FF3FB5FFFF446574656374656420636177
:1002900072642066726F6D207465616D204F5241EB
:1002A00000BD930000B59BFFFF1395FFFF9BCDFFA3
:1002B000FFE998FFFF4465746563746564206361BA
:1002C00072642066726F6D207465616D20524544C2
:1002D000003BC1FFFF49BCFFFFFDB9FFFFC7BDFFEA
:1002E000FFB3B6FFFF4465746563746564206361A2
:1002F00072642066726F6D207465616D20424C558A
:100300000012B9FFFFEAB8FFFFEAB6FFFFACBAFF81
:10031000FFD8B2FFFF010204081020408001020450
:100320000810200102040810200000000025002809
:10033000002B000404040404040404020202020268
:100340000203030303030302471011241FBECFEF70
:10035000D8E0DEBFCDBF11E0A0E0B1E0ECE4F0E317
:1003600002C005900D92AC38B107D9F723E0ACE894
:10037000B1E001C01D92AA34B207E1F711E0C5EA6D
:10038000D1E004C02197FE010E94F916C43AD107BA
:10039000C9F70E948A100C9424180C9400008CBD9C
:1003A0009DBD089508950895EF92FF920F931F93B6
:1003B000CF93DF938C017B01D0E0C0E0F701EC0F1D
:1003C000FD1F6491662361F0D801ED91FC910190CD
:1003D000F081E02DC8010995892B11F02196EECF0F
:1003E000CE01DF91CF911F910F91FF90EF90089573
:1003F000AF92BF92CF92DF92EF92FF920F931F9333
:10040000CF93DF936C017B018B01040F151FEB0170
:100410005E01AE18BF08C017D10759F06991D60127
:10042000ED91FC910190F081E02DC6010995892B99
:1004300079F7C501DF91CF911F910F91FF90EF9058
:10044000DF90CF90BF90AF900895FC01538D448D05
:10045000252F30E0842F90E0821B930B541710F06F
:10046000CF96089501970895FC01918D828D98177C
:1004700061F0A28DAE0FBF2FB11D5D968C91928D54
:100480009F5F9F73928F90E008958FEF9FEF089585
:10049000FC01918D828D981731F0828DE80FF11D4E
:1004A000858D90E008958FEF9FEF0895FC01918D69
:1004B000228D892F90E0805C9F4F821B91098F7362
:1004C000992708958DE892E00E94560221E0892B39
:1004D00009F420E0822F089580E090E0892B29F034
:1004E0000E94620281110C9400000895FC01A48D09
:1004F000A80FB92FB11DA35ABF4F2C91848D90E046
:1005000001968F739927848FA689B7892C93A08928
:10051000B1898C91837080648C93938D848D9813B2
:1005200006C00288F389E02D80818F7D8083089545
:10053000EF92FF920F931F93CF93DF93EC0181E033
:10054000888F9B8D8C8D98131AC0E889F9898081DA
:1005500085FF15C09FB7F894EE89FF896083E8890D
:10056000F98980818370806480839FBF81E090E0FF
:10057000DF91CF911F910F91FF90EF900895F62E8C
:100580000B8D10E00F5F1F4F0F731127E02E8C8D26
:100590008E110CC00FB607FCFACFE889F98980816B
:1005A00085FFF5CFCE010E947602F1CFEB8DEC0FE7
:1005B000FD2FF11DE35AFF4FF0829FB7F8940B8F88
:1005C000EA89FB8980818062CFCFCF93DF93EC01F2
:1005D000888D8823B9F0AA89BB89E889F9898C912B
:1005E00085FD03C0808186FD0DC00FB607FCF7CFE7
:1005F0008C9185FFF2CF808185FFEDCFCE010E94E7
:100600007602E9CFDF91CF910895833081F028F40D
:10061000813099F08230A9F008958730A9F08830B0
:10062000C9F08430B1F4809180008F7D03C0809147
:1006300080008F7780938000089584B58F7784BD84
:10064000089584B58F7DFBCF8091B0008F77809324
:10065000B00008958091B0008F7DF9CF1F93CF93A4
:10066000DF93282F30E0F901EC56FF4F8491F90118
:10067000EB5EFC4FD491F901ED5CFC4FC491CC23AF
:10068000A9F0162F81110E940503EC2FF0E0EE0F68
:10069000FF1FE75DFC4FA591B4918FB7F894EC91E3
:1006A000111108C0D095DE23DC938FBFDF91CF916D
:1006B0001F910895DE2BF8CFCF93DF9390E0FC01DC
:1006C000EB5EFC4F24918D5C9C4FFC018491882350
:1006D000D1F090E0880F991FFC01E058FF4FA591E1
:1006E000B491FC01E75DFC4FC591D49161110EC03E
:1006F0009FB7F8948C91E22FE0958E238C932881FC
:10070000E223E8839FBFDF91CF9108958FB7F894DC
:10071000EC91E22BEC938FBFF6CFCF938091000149
:10072000853021F08F3F61F1CF910895E7E4F3E048
:10073000C491C7FDF9CF61E085E00E945C03CC2342
:1007400009F48CC0C23009F0A1C08091B100887F4B
:1007500083608093B1008CE78093B30088E790E0DA
:10076000A0E0B0E08093310290933202A093330274
:10077000B093340280917000826080937000D4CF77
:1007800085E080930001E7E4F3E0C491CF3F61F29C
:10079000C13021F150F0C23009F43EC0C7FDC4CFD2
:1007A00061E085E00E945C03CDCF14BC15BC84B52C
:1007B000826084BD85B5816085BDE8E3F3E0E491A6
:1007C000F0E0EE0FFF1FE75DFC4F85919491EAE1A9
:1007D000F3E0E491E0933002C0E0ADCF10928000EE
:1007E00010928100809181008860809381008091C7
:1007F0008100816080938100E8E3F3E0E491F0E020
:10080000EE0FFF1FE75DFC4F85919491EAE1F3E065
:10081000E491E0932F028FCF1092B0001092B100BC
:100820008091B00082608093B0008091B1008160BF
:100830008093B100E8E3F3E0E491F0E0EE0FFF1FF6
:10084000E75DFC4F8591949190932E0280932D0249
:10085000EAE1F3E0E491E0932C026DCF85B5887F67
:10086000836085BD8DE387BD88E790E0A0E0B0E0C0
:100870008093390290933A02A0933B02B0933C02DA
:1008800080916E00826080936E004ECFC130F1F493
:1008900080918100887F8160809381008FE99FE053
:1008A000909389008093880088E790E0A0E0B0E012
:1008B0008093350290933602A0933702B0933802AA
:1008C00080916F00826080936F002ECFC23021F044
:1008D000C1112ACF8FE9C7CF8FE93ECF3FB7F89438
:1008E0008091F5019091F601A091F701B091F80186
:1008F00026B5A89B05C02F3F19F00196A11DB11D7B
:100900003FBFBA2FA92F982F8827BC01CD01620FB6
:10091000711D811D911D42E0660F771F881F991F71
:100920004A95D1F708958F929F92AF92BF92CF923E
:10093000DF92EF92FF924B015C010E946E046B010B
:100940007C010E946E046C197D098E099F09683E26
:10095000734081059105A8F321E0821A9108A1084E
:10096000B10888EEC80E83E0D81EE11CF11C81148A
:100970009104A104B10429F7FF90EF90DF90CF908C
:10098000BF90AF909F908F9008952FB7F89460918B
:10099000F1017091F2018091F3019091F4012FBF68
:1009A0000895BC016E5F7F4FDC01ED91FC910190D9
:1009B000F081E02D40E0099591E0811190E0892FD0
:1009C000089508958EBD00000DB407FEFDCF8EB5CD
:1009D0000895DF92EF92FF920F931F93CF93DF93CF
:1009E0007C01062FD42E152F80E590E00E94CF01C8
:1009F00060E0F70186850E942E0382E10E94E204F6
:100A0000CD2DD12F0C0F1D2F111DC017D10721F097
:100A100089910E94E204F9CF61E0F7018685DF91B8
:100A2000CF911F910F91FF90EF90DF900C942E03C8
:100A30001F93CF93DF93EC01162F80E590E00E9487
:100A4000CF0160E08E850E942E03812F80680E9476
:100A5000E20480E00E94E204182F61E08E850E948B
:100A60002E03812FDF91CF911F9108950F931F9334
:100A7000CF93DF93EC01062F142F80E590E00E94C6
:100A8000CF0160E08E850E942E03802F0E94E20439
:100A9000812F0E94E20461E08E85DF91CF911F914A
:100AA0000F910C942E03CF92DF92EF92FF920F934F
:100AB0001F93CF93DF93EC016B01F42E890140E08B
:100AC00062E00E94360544E06AE0CE010E943605ED
:100AD00040E864E1CE010E943605A6016F2DCE01EB
:100AE0000E94E90443E062E0CE010E9436050E94C4
:100AF000C5046B017C0129E5C20ED11CE11CF11C6F
:100B00006AE0CE010E94180582FF1BC040E062E04F
:100B1000CE010E94360564E4CE010E941805F8015A
:100B2000808362E4CE010E941805F801818380E091
:100B3000DF91CF911F910F91FF90EF90DF90CF90B9
:100B400008950E94C5046C157D058E059F05C0F2B1
:100B500083E0EECF2F923F924F925F926F927F92FF
:100B60008F929F92AF92CF92DF92EF92FF920F936C
:100B70001F93CF93DF9300D0CDB7DEB74C012B018D
:100B8000D42E390180E0E114F10411F0F7018081E5
:100B90003C2C329490EF3922380E40E062E0C401E0
:100BA0000E9436054FE768E0C4010E94360540E820
:100BB00064E1C4010E943605A2016D2DC4010E94AA
:100BC000E904432D6AE1C4010E9436054CE062E06D
:100BD000C4010E9436056AE1C4010E941805482F2D
:100BE00040686AE1C4010E9436050E94C5041B01E9
:100BF0002C01F4E22F0E311C411C511C68E0C40191
:100C00000E941805982F907309F0B7C080FF15C097
:100C100083E00F900F90DF91CF911F910F91FF9084
:100C2000EF90DF90CF90AF909F908F907F906F90DC
:100C30005F904F903F902F9008950E94C5046215D9
:100C4000730584059505D0F2E3CF6114710409F4AE
:100C500069C00115110509F465C064E1C4010E9471
:100C60001805382EF8018081831508F480C0308281
:100C70003320E1F180E590E00E94CF0160E0F401D3
:100C800086850E942E033A9482E90E94E204CC20D9
:100C9000B1F08FEF90E09C0102C0220F331FCA9485
:100CA000E2F7690182E90E94E2049C2D9095F3012C
:100CB000208192238C21982B9083CC24C3942301F0
:100CC0004C0C511CC31440F482E90E94E204F2016E
:100CD00081932F01C394F6CF80E00E94E204F201D9
:100CE000808361E0F40186850E942E0368E1C401DF
:100CF0000E9418058770E114F10411F0F701808358
:100D000023FC37C061147104B1F10115110599F18B
:100D1000AA2089F1F8014081413031F4843029F56D
:100D20008FEF77CF80E0ECCF4230F8F081111DC01B
:100D300042509E012F5F3F4FB301C4010E945305F3
:100D4000811167CFF8019081690E711CF301329710
:100D500020819981291309C0F1E06F1A7108F3010C
:100D600020819A81291709F454CF87E052CF84E07B
:100D700050CF82E04ECF80E04CCF6CE0C4010E94A7
:100D80001805282E837109F460CF81E042CF0F93BC
:100D90001F93CF93DF938C01D62FC42F0E94180589
:100DA000C0954C2F48236D2FC801DF91CF911F9123
:100DB0000F910C9436058F929F92AF92CF92EF9243
:100DC000FF920F931F93CF93DF9300D000D01F9219
:100DD000CDB7DEB74C0182E08D8340E064E2C40110
:100DE0000E94360540E066E2C4010E94360546E2F4
:100DF00068E4C4010E94360586E28B838D818230CF
:100E0000B0F140E86CE1C4010E94C70687E08C8322
:100E1000A12CC12CCE0104967C018E010B5F1F4FCB
:100E20009E012F5F3F4F41E0BE016D5F7F4FC401C8
:100E30000E94AA05982F811117C08D818230B9F4C4
:100E40008C81811114C081E00F900F900F900F9052
:100E50000F90DF91CF911F910F91FF90EF90CF9066
:100E6000AF909F908F90089581E0923069F380E079
:100E7000EBCF2F923F924F925F926F927F928F9221
:100E80009F92AF92BF92CF92DF92EF92FF920F9319
:100E90001F93CF93DF93CDB7DEB72D970FB6F8949E
:100EA000DEBF0FBECDBF16E0413508F045C1342E80
:100EB0004B013C0140E86CE10E94C70683E989834D
:100EC000332029F081E0F4019081953008F480E02E
:100ED00022242394B12C9B2D990F990F990FD32C79
:100EE000D91AD7FCD12C32E0882319F098E89B83DB
:100EF00033E021E09D2D977009F420E09D2D95951C
:100F000095959595290FC9F094E0811193E02917E3
:100F100008F4922FEB2DF0E03196E80DF91D232F08
:100F20004191A1E0B0E0AC0FBD1FA20FB11D4C93E9
:100F30002F5F422F431B491798F3882311F0F8E0E5
:100F4000DF0E8FE18D150CF082C090E79A838B81C4
:100F50009C8189279D8189279E8189278F839E0176
:100F6000285F3F4F47E0BE016F5F7F4FC3010E9484
:100F70005305182F8111E0C01A86E3E0EB87DC8669
:100F8000CE0107962C0199E09D87CA844C2D42958D
:100F9000407F4C0D6AE1C3010E943605A12CCE01B1
:100FA0000A967C018E01055F1F4F92014D85BE019F
:100FB0006F5F7F4FC3010E94AA05182F823009F08E
:100FC00065C06CE1C3010E94180585FDB5C08F7135
:100FD00009F480E2282F30E04D2DDD0C550B42172F
:100FE00053070CF09DC0D82EE82FE595E595E595C3
:100FF000EF5F982F977081E009F480E0E80F81E0BF
:1010000090E08C0F9D1F8E0F911DFC012150310926
:101010002770332781E090E002C0880F991F2A953E
:10102000E2F79C018081822B80838BCF85E98983C5
:10103000332031F081E0F4019081983008F04BCFFB
:1010400080E049CF87E9898326E0B22EF9CF9D2D34
:1010500097709A878D2D8595859585958E5F282F1C
:101060002295207F290F2A8321E0911101C020E0E1
:10107000280F2D8744244394512C4C0E5D1E480E9E
:10108000511CE9E0E81BEB87DC867FCF811154C05F
:1010900080E2D82E9C8590320CF457CF8B81883813
:1010A00009F040C083E093E0EB2DF0E03196E80DCD
:1010B000F91D980FA1E0B0E0AC0FBD1FA80FB11D46
:1010C0002C9121938F5F8913F5CFBB84E3E0BE128F
:1010D0004DC08A8581114AC09E012D5F3F4F41E07E
:1010E000B201C3010E945305182F811125C09B81B5
:1010F000F201818198133CC09C818281981338C091
:10110000808182FF12C02394F2E02F1609F48ECF63
:1011100083E0281609F496CF91E0291609F4CECE83
:1011200015E00AC082E094E0BFCFF4018387822DEE
:10113000880F820D8F5F8083812F2D960FB6F894D4
:10114000DEBF0FBECDBFDF91CF911F910F91FF90FA
:10115000EF90DF90CF90BF90AF909F908F907F9057
:101160006F905F904F903F902F90089511E0E4CFE3
:1011700017E0E2CF2091CD01260F3327331F213214
:101180003105ECF420916302FC0190E080E0243012
:1011900069F082E00895A091CD012191AC01435501
:1011A0005E4FA40FB52FB11D2C930196861798F3AF
:1011B0008091CD01680F6093CD0180E0089581E0BA
:1011C00008951092630281E08093620210923D02C2
:1011D00061E082E10E942E0361E083E10E942E0320
:1011E000E9EBF0E080818E7F808380818D7F80833A
:1011F00088E48093B80085E48093BC000895CF9381
:10120000DF9391E09093AC018823B9F0C091B800CE
:10121000D091BA008091BC008A7B8093BC0060E0D2
:1012200082E10E942E0360E083E10E942E030E946F
:10123000E108D093BA00C093B800DF91CF91089530
:10124000CF92DF92EF92FF920F931F93CF93DF9392
:10125000D0918C0281E0D13208F09CC0C0918B0209
:101260000E946E046B017C018091630281116CC04D
:1012700082E08093630281E0809362028FEF80932B
:10128000610210926002D0935F02ABE6B2E0EFE33E
:10129000F2E080E0D8138DC010923E0280913E02B1
:1012A000CC0FC82BC0933E0280913D02813009F0E3
:1012B00084C010923D020E946E046B017C018091FB
:1012C0003E028093BB008091650290916602A091DE
:1012D0006702B0916802892B8A2B8B2BA1F00E94A8
:1012E0006E040091650210916602209167023091B0
:1012F00068026C197D098E099F09061717072807D0
:10130000390708F442C08091BC0083FDD8CF85EC3A
:101310008093BC000E946E046B017C01809163028B
:10132000823009F44CC0809161028F3F09F469C09A
:1013300080916102803209F466C08091610280333D
:1013400009F463C084E026C0809165029091660232
:10135000A0916702B0916802892B8A2B8B2B09F42C
:1013600083CF0E946E040091650210916602209165
:101370006702309168026C197D098E099F09061772
:1013800017072807390708F06FCF809164020E9481
:10139000FF0885E010926A0210928C021092690296
:1013A000DF91CF911F910F91FF90EF90DF90CF9041
:1013B00008959D9191938F5F6DCF85EEA9CF809118
:1013C000650290916602A0916702B0916802892B34
:1013D0008A2B8B2B09F4A2CF0E946E040091650228
:1013E0001091660220916702309168026C197D09A4
:1013F0008E099F09061717072807390708F08ECFAF
:10140000C4CF80E0C7CF82E0C5CF83E0C3CF0895CB
:10141000E091FF018091FE01E81730F4F0E0E4571D
:10142000FE4F808190E008958FEF9FEF0895909197
:10143000FF018091FE012FEF3FEF981748F4E92F4D
:10144000F0E0E457FE4F208130E09F5F9093FF0172
:10145000C90108958091FE019091FF01891B990BAC
:101460000895CF92DF92EF92FF920F931F93CF9345
:10147000DF937C01CB018A0120916902222389F04C
:10148000EB016B01C40ED51ECC15DD0569F0699129
:10149000D701ED91FC910190F081E02DC7010995F4
:1014A000F3CF642F0E94BA08C801DF91CF911F913A
:1014B0000F91FF90EF90DF90CF900895CF93DF933F
:1014C0001F92CDB7DEB76983209169022223F9F01C
:1014D00020918C02203258F021E030E0FC0133836F
:1014E000228390E080E00F90DF91CF91089580916A
:1014F0006A02E82FF0E0E559FD4F998190838F5FF4
:1015000080936A0280938C0281E090E0ECCF61E0EE
:10151000CE0101960E94BA08F7CFFC01248131E088
:101520003093690220938B0210926A0210928C020F
:101530008385682B8AE293E00E945E0A0C9420095E
:10154000089590E080E008958F929F92AF92BF92AD
:10155000DA0150E040E0FD0185909590A590B490AF
:10156000149686169706A806B90661F04F5F5F4F7E
:101570004217530781F790E080E0BF90AF909F90B3
:101580008F90089581E090E0F8CF0F931F93CF9351
:101590008C01C62F0E948D0A6C2F6460C8010E94C6
:1015A0008D0A6C2F6B7FC8010E948D0A83EC90E03E
:1015B0000197F1F7CF911F910F9108950F931F930A
:1015C000CF93DF938C01D62FC42F607F642B0E94B2
:1015D000C50A80E1D89FB00111246C2BC801DF91AE
:1015E000CF911F910F910C94C50A41E00E94DE0A31
:1015F00081E090E00895CF93DF93CDB7DEB72897D1
:101600000FB6F894DEBF0FBECDBF28E0E7E0F1E0F3
:10161000DE01119601900D922A95E1F7FC012185DA
:10162000241710F44FEF420F50E0440F551F21E0F4
:1016300030E02C0F3D1F420F531FFA012081620F33
:10164000606840E028960FB6F894DEBF0FBECDBFAD
:10165000DF91CF910C94DE0A0F931F93CF93DF930A
:10166000EC011092FF011092FE0110926A0210929A
:101670008C020E94E10882ED91E09093FD0180933D
:10168000FC0183ED91E09093FB018093FA011D82B0
:101690008985823010F098E09D839A85992329F0FE
:1016A000813019F48D8184608D8362E370E080E085
:1016B00090E00E9493046B85CE010E948D0A68EE33
:1016C00073E080E090E00E94930460E3CE010E940A
:1016D000C50A0BE416E4C8010197F1F760E3CE01F7
:1016E0000E94C50AC8010197F1F760E3CE010E948C
:1016F000C50A83E592E00197F1F760E2CE010E940E
:10170000C50A6D81606240E0CE010E94DE0A84E07D
:101710008E8340E06CE0CE010E94DE0A40E061E092
:10172000CE010E94DE0A0BE31FE1C8010197F1F729
:1017300082E08F8340E066E0CE010E94DE0A40E056
:1017400062E0CE010E94DE0AC8010197F1F7DF9145
:10175000CF911F910F910895FB0101900020E9F7AF
:101760003197AF01461B570BDC01ED91FC910280D4
:10177000F381E02D0994CF93DF93BC018DE892E0D3
:101780000E94D401EC0169E471E08DE892E00E94CE
:10179000AC0B8C0F9D1FDF91CF9108958F929F927C
:1017A000AF92BF92EF92FF920F931F93CF93DF936D
:1017B000CDB7DEB7A1970FB6F894DEBF0FBECDBF91
:1017C0007C01FA01CB0119A2223008F42AE08E0133
:1017D0000F5D1F4F822E912CB12CA12CBF01A501B2
:1017E00094010E94D716F901CA016A300CF5605DB8
:1017F000D8016E938D01232B242B252B79F790E0B4
:1018000080E0109721F0BD01C7010E94AC0BA196AA
:101810000FB6F894DEBF0FBECDBFDF91CF911F9101
:101820000F91FF90EF90BF90AF909F908F90089591
:10183000695CDECFCF92DF92EF92FF920F931F93FE
:10184000CF93DF936B01770FEE08FF08F7FE1FC001
:10185000EC01E881F9810190F081E02D6DE20995BC
:101860008C0144275527BA014C195D096E097F097F
:101870002AE0CE010E94CE0B800F911FDF91CF9105
:101880001F910F91FF90EF90DF90CF9008952AE085
:10189000B701A601DF91CF911F910F91FF90EF90BB
:1018A000DF90CF900C94CE0BCF93DF93C0910102C9
:1018B000D091020243E064E0CE010E94FB0A8091D5
:1018C0000802909109020A972CF46EE770E0CE01AD
:1018D0000E94D40160910802709109028091010276
:1018E000909102020E941A0CC0910102D091020252
:1018F00043E067E0CE010E94FB0A80910A029091CA
:101900000B020A972CF46CE770E0CE010E94D40120
:1019100060910A0270910B02809101029091020283
:101920000E941A0CC0910102D091020243E06AE0C9
:10193000CE010E94FB0A80910C0290910D020A9741
:101940002CF46AE770E0CE010E94D40160910C0291
:1019500070910D028091010290910202DF91CF916E
:101960000C941A0CCF93DF93C0910102D091020224
:1019700042E064E0CE010E94FB0A80910E02909149
:101980000F020A972CF468E770E0CE010E94D401A0
:1019900060910E0270910F028091010290910202FB
:1019A0000E941A0CC0910102D091020242E067E04D
:1019B000CE010E94FB0A80911002909111020A97B9
:1019C0002CF466E770E0CE010E94D4016091100211
:1019D0007091110280910102909102020E941A0CF2
:1019E000C0910102D091020242E06AE0CE010E9461
:1019F000FB0A80911202909113020A972CF464E77B
:101A000070E0CE010E94D401609112027091130225
:101A10008091010290910202DF91CF910C941A0CF7
:101A2000CF93DF93C0910102D091020241E064E0C4
:101A3000CE010E94FB0A80911402909115020A9730
:101A40002CF462E770E0CE010E94D4016091140290
:101A50007091150280910102909102020E941A0C6D
:101A6000C0910102D091020241E067E0CE010E94E4
:101A7000FB0A80911602909117020A972CF460E7F6
:101A800070E0CE010E94D40160911602709117029D
:101A900080910102909102020E941A0CC0910102F1
:101AA000D091020241E06AE0CE010E94FB0A8091DF
:101AB0001802909119020A972CF46EE670E0CE019C
:101AC0000E94D40160911802709119028091010264
:101AD00090910202DF91CF910C941A0CCF93DF9377
:101AE000C0910102D091020240E064E0CE010E9468
:101AF000FB0A80911A0290911B020A972CF46CE663
:101B000070E0CE010E94D40160911A0270911B0214
:101B100080910102909102020E941A0CC091010270
:101B2000D091020240E067E0CE010E94FB0A809162
:101B30001C0290911D020A972CF46AE670E0CE0117
:101B40000E94D40160911C0270911D0280910102DB
:101B5000909102020E941A0CC0910102D0910202DF
:101B600040E06AE0CE010E94FB0A80911E02909143
:101B70001F020A972CF468E670E0CE010E94D4019F
:101B800060911E0270911F028091010290910202E9
:101B9000DF91CF910C941A0C85ED8093BC0080915D
:101BA000650290916602A0916702B0916802079663
:101BB000A11DB11D23E0B695A795979587952A9508
:101BC000D1F72091BC0024FD03C010926302089558
:101BD00040916502509166026091670270916802BF
:101BE000452B462B472B69F30097A105B10541F022
:101BF00025E32A95F1F700000197A109B109E1CF8A
:101C0000809164020C94FF081F920F920FB60F92FE
:101C100011242F933F934F935F936F937F938F93F1
:101C20009F93AF93BF93EF93FF9380913102909175
:101C30003202A0913302B0913402892B8A2B8B2B74
:101C4000D1F190912C02E0912D02F0912E02808131
:101C5000892780838091310290913202A0913302D2
:101C6000B0913402181619061A061B069CF48091CE
:101C7000310290913202A0913302B0913402019767
:101C8000A109B1098093310290933202A0933302EB
:101C9000B0933402FF91EF91BF91AF919F918F91DB
:101CA0007F916F915F914F913F912F910F900FBE58
:101CB0000F901F90189580910001E7E4F3E0E49104
:101CC0009FEF90930001E13051F030F0E23069F085
:101CD00060E00E942E03DECF10926E00F9CF90914B
:101CE0006F009D7F90936F00F3CF909170009D7F68
:101CF0009093700091E09093B0009091B100987F24
:101D000094609093B1001092B300E2CF1F920F92B3
:101D10000FB60F9211242F933F934F935F936F93BE
:101D20007F938F939F93AF93BF93EF93FF938DE830
:101D300092E00E947602FF91EF91BF91AF919F9147
:101D40008F917F916F915F914F913F912F910F9064
:101D50000FBE0F901F9018951F920F920FB60F9203
:101D600011242F938F939F93EF93FF93E0919D0204
:101D7000F0919E028081E091A302F091A40282FD85
:101D80001BC090818091A6028F5F8F732091A70264
:101D9000821741F0E091A602F0E0E357FD4F958FE6
:101DA0008093A602FF91EF919F918F912F910F90B9
:101DB0000FBE0F901F9018958081F4CF1F920F9245
:101DC0000FB60F9211242F933F938F939F93AF934E
:101DD000BF938091F1019091F201A091F301B09134
:101DE000F4013091F00123E0230F2D3758F50196CF
:101DF000A11DB11D2093F0018093F1019093F20198
:101E0000A093F301B093F4018091F5019091F60154
:101E1000A091F701B091F8010196A11DB11D809329
:101E2000F5019093F601A093F701B093F801BF91EB
:101E3000AF919F918F913F912F910F900FBE0F9077
:101E40001F90189526E8230F0296A11DB11DD2CF31
:101E50001F920F920FB60F9211242F933F934F931F
:101E60005F936F937F938F939F93AF93BF93EF9302
:101E7000FF938091B900887F803609F44AC0F0F55D
:101E8000883209F4A7C018F5803109F49BC0B8F472
:101E9000882309F4F9C0883009F494C0FF91EF91C8
:101EA000BF91AF919F918F917F916F915F914F9172
:101EB0003F912F910F900FBE0F901F901895883172
:101EC00009F488C0803251F78093610214C08034D5
:101ED00009F49DC040F48033B9F38833F9F6809358
:101EE000610285ECB0C0803509F485C0883509F4FD
:101EF00096C0883499F60E94CC0DD0CF883909F469
:101F00008CC038F5883729F050F4883611F08037C6
:101F100029F683E0809363021092EF0157C088385E
:101F200009F47BC0803919F0803809F0B7CF80916F
:101F3000EF01803208F071C0E091EF0181E08E0F77
:101F40008093EF018091BB00F0E0E153FE4F80836E
:101F50003DC0803B39F0E0F4803A09F479C0883A1A
:101F600009F09CCF84E0809363021092CE0110921E
:101F7000CD01E091FC01F091FD0109958091CD0129
:101F800081110FC081E08093CD011092AD0109C095
:101F9000803C09F4A6CF883C09F4A3CF883B09F024
:101FA0007DCFE091CE0181E08E0F8093CE01F0E0F5
:101FB000E355FE4F80818093BB009091CE018091CC
:101FC000CD0129C080913E028093BB0085EC8093B7
:101FD000BC0064CF9091600280915F02981758F521
:101FE000E091600281E08E0F80936002F0E0E15C9E
:101FF000FD4F8081E9CFE091600281E08E0F8093F8
:1020000060028091BB00F0E0E15CFD4F8083909125
:10201000600280915F029817C8F285E8D8CFE091FE
:10202000600281E08E0F809360028091BB00F0E03F
:10203000E15CFD4F80838091620281115CCF81E081
:1020400080933D0284EA8093BC001092630226CF05
:1020500085EC8093BC00109263028091EF01803286
:1020600030F4E091EF01F0E0E153FE4F1082609117
:10207000EF0170E0E091FA01F091FB018FEC91E04B
:1020800009951092EF010ACF1092610234CFEDE86A
:10209000F2E01382128288EE93E0A0E0B0E0848345
:1020A0009583A683B7832FE131E03183208325EC2C
:1020B00030E03587248724EC30E03787268720EC12
:1020C00030E0318B208B21EC30E0338B228B22EC03
:1020D00030E0358B248B26EC30E0378B268B118E4D
:1020E000128E138E148EEAE2F3E01382128284833E
:1020F0009583A683B78381E391E091838083E6E3B0
:10210000F3E083E491E0918380838AE0868789E02D
:1021100087870895CF93DF9300D000D0CDB7DEB787
:10212000789484B5826084BD84B5816084BD85B5B2
:10213000826085BD85B5816085BD80916E008160BE
:1021400080936E0010928100809181008260809364
:102150008100809181008160809381008091800066
:102160008160809380008091B10084608093B10091
:102170008091B00081608093B00080917A0084608B
:1021800080937A0080917A00826080937A008091B7
:102190007A00816080937A0080917A0080688093D1
:1021A0007A001092C100E0919D02F0919E0282E0BF
:1021B0008083E0919902F0919A021082E0919B0253
:1021C000F0919C028FEC80831092A502E091A10215
:1021D000F091A20286E08083E0919F02F091A0023C
:1021E000808180618083E0919F02F091A0028081D4
:1021F00088608083E0919F02F091A00280818068D6
:102200008083E0919F02F091A00280818F7D808386
:1022100088E791E00E94BB0B1FB7F8948091F90109
:10222000811127C0EDE3F3E08491EFE1F3E09491B5
:10223000E82FF0E0EE0FFF1FE058FF4FA591B4919B
:10224000EC91E92321F461E08AE00E942E0361E031
:102250008AE00E945C038CB580618CBD8CB5806483
:102260008CBD61E08DE00E945C0361E08BE00E9428
:102270005C038091F9018F5F8093F9011FBF109279
:10228000FF011092FE0110926A0210928C020E94CD
:10229000E10882ED91E09093FD018093FC0183EDD4
:1022A00091E09093FB018093FA0181E0809300021A
:1022B00001E0109100021F3790F50093690210931E
:1022C0008B0210926A0210928C020E9420098111E6
:1022D00016C16CE471E08DE892E00E94AC0B809135
:1022E0000002803130F46BE671E08DE892E00E94EC
:1022F000AC0B4091000250E070E060E020E18DE81E
:1023000092E00E94CE0B6DE671E08DE892E00E94B3
:10231000AC0B69E471E08DE892E00E94AC0B8CE0BC
:1023200090E00E94FF16FC0180910002138212824D
:1023300023E131E031832083848384E1808784E05A
:102340008187128688E08387F0930202E09301027E
:1023500061E086E00E945C0361E084E00E945C032F
:1023600061E087E00E945C0361E083E00E945C031F
:1023700061E085E00E945C0361E0809144030E947B
:102380005C0361E0809144030E942E038091450329
:102390008F3F09F4C7C060E00E945C0320914503B1
:1023A00030E0F901EC56FF4F8491F901EB5EFC4FF0
:1023B0000491F901ED5CFC4F14911111A4C061E08E
:1023C000809145030E945C0360E0809145030E9478
:1023D0002E0383E090E00197F1F761E080914503DF
:1023E0000E942E0362E370E080E090E00E9493047C
:1023F00040E064E286E393E00E94360540E066E256
:1024000086E393E00E94360546E268E486E393E0C3
:102410000E94360540E864E586E393E00E943605B5
:1024200049EA66E586E393E00E94360543E068E505
:1024300086E393E00E94360548EE6AE586E393E082
:102440000E94360540E46AE286E393E00E94360586
:102450004DE362E286E393E00E94360568E286E39C
:1024600093E00E941805982F9370933039F0482F0D
:10247000436068E286E393E00E9436056CE486E3FD
:1024800093E00E9418058077803791F040E76CE474
:1024900086E393E00E94C7066CE486E393E00E9423
:1024A0001805482F40676CE486E393E00E943605E8
:1024B0006EE686E393E00E941805182F6FE271E044
:1024C0008DE892E00E94D401412F50E070E060E07E
:1024D00020E18DE892E00E94CE0B8CE191E0103972
:1024E00009F43FC0B0F588EF90E0123109F439C02B
:1024F00084E291E01838A9F18BEE90E032C01F5FC2
:1025000010930002D6CE81110E940503E12FF0E066
:10251000EE0FFF1FE657FF4FA591B491EC910E23EC
:1025200009F44DCF4FE062E086E393E00E94360568
:1025300013E062E370E080E090E00E94930462E0C8
:1025400086E393E00E94180584FF52CF115089F76B
:102550004FCF84E191E0113921F08CE091E0123904
:1025600059F60E94BB0B11501E3F20F088EA90E004
:102570000E94BB0B0091010210910202C8010E944F
:102580002C0B88E0F801838760E0C8010E948D0A67
:1025900040E060E0C8010E94FB0A6BE671E0C80100
:1025A0000E94D401009101021091020241E060E01A
:1025B000C8010E94FB0A6EE571E0C8010E94D401C7
:1025C000009101021091020242E060E0C8010E9405
:1025D000FB0A61E571E0C8010E94D401009101028B
:1025E0001091020243E060E0C8010E94FB0A64E42B
:1025F00071E0C8010E94D40138E0D32E40E1842E5E
:1026000047E2942E58EE652E53E0752E64E6B62E02
:1026100020E0422E20E0522E8AE0382E90E5292E2E
:102620000E94C50400910402109105022091060247
:1026300030910702601B710B820B930B683E734055
:102640008105910528F4012B022B032B09F08DC184
:102650000E94C504609304027093050280930602F1
:10266000909307028091030281110DC00E94C5045E
:10267000609328027093290280932A0290932B0280
:1026800081E0809303020E942009882309F455C049
:1026900061E771E08DE892E00E94AC0B69E471E0C3
:1026A0008DE892E00E94AC0B0091010210910202B1
:1026B000C8010E942C0BF801D38660E0C8010E947B
:1026C0008D0A40E060E0C8010E94FB0A60ED71E005
:1026D000C8010E94D4010E946E0D00910102109168
:1026E000020241E060E0C8010E94FB0A63EC71E075
:1026F000C8010E94D4010E94100D009101021091A6
:10270000020242E060E0C8010E94FB0A66EB71E051
:10271000C8010E94D4010E94B20C009101021091E4
:10272000020243E060E0C8010E94FB0A69EA71E02E
:10273000C8010E94D4010E94540C80911E02909105
:102740001F02409794F01092230260E086E00E94FE
:102750002E0360E084E00E942E0360E087E00E9488
:102760002E0360E083E00E942E03809123028823E1
:1027700051F10E946E0D80911E0290911F028B33C9
:10278000910509F0FCC210921F0210921E02809166
:102790001C0290911D02019690931D0280931C02D1
:1027A00080911C0290911D02CC9769F410921D0239
:1027B00010921C0280911A0290911B020196909334
:1027C0001B0280931A02809118029091190240977F
:1027D00094F01092220260E086E00E942E0360E0F6
:1027E00084E00E942E0360E087E00E942E0360E0F8
:1027F00083E00E942E0380912202882351F10E94DF
:10280000100D80911802909119028B33910509F0F7
:10281000BCC2109219021092180280911602909177
:102820001702019690931702809316028091160268
:1028300090911702CC9769F4109217021092160229
:102840008091140290911502019690931502809345
:1028500014028091120290911302409794F010920A
:10286000210260E086E00E942E0360E084E00E9486
:102870002E0360E087E00E942E0360E083E00E9468
:102880002E0380912102882351F10E94B20C809185
:102890001202909113028B33910509F07CC21092C1
:1028A000130210921202809110029091110201966F
:1028B0009093110280931002809110029091110266
:1028C000CC9769F4109211021092100280910E02BE
:1028D00090910F02019690930F0280930E028091C7
:1028E0000C0290910D02409794F01092200260E04B
:1028F00086E00E942E0360E084E00E942E0360E0E8
:1029000087E00E942E0360E083E00E942E03809106
:102910002002882351F10E94540C80910C02909166
:102920000D028B33910509F03CC210920D021092FA
:102930000C0280910A0290910B02019690930B0277
:1029400080930A0280910A0290910B02CC9769F45D
:1029500010920B0210920A028091080290910902D3
:10296000019690930902809308020E94C504009189
:1029700028021091290220912A0230912B02601B1B
:10298000710B820B930B6C3271408105910508F439
:10299000EAC10E94C50460932802709329028093C3
:1029A0002A0290932B0286E393E00E94DB068823A1
:1029B00009F4D9C186E393E00E94D104882309F485
:1029C000D2C16DED71E08DE892E00E94D40180915A
:1029D0003D03889DA001899D500D112420913C0349
:1029E000269DC001279D900D1124480F591F8091ED
:1029F0003B038B9D400D511D112480913A03839D13
:102A0000400D511D112480913903480F511D052E91
:102A1000000C660B770B40932402509325026093C1
:102A20002602709327022AE08DE892E00E94CE0BE6
:102A300069E471E08DE892E00E94AC0B29821A8271
:102A40009E012D5F3F4F42E0BE016F5F7F4F86E3E7
:102A500093E00E945305811110C0A12CC12CF12CD0
:102A6000E12C10E000E030E020E044E0BE016F5FC8
:102A70007F4F86E393E00E94AA0548E060E186E389
:102A800093E00E94C7066091240270912502809114
:102A900026029091270225E030E041E053E00E94B9
:102AA000A40A892B19F180912302811102C00E948E
:102AB0008D0385EE92E00E94BB0B61E086E00E94F0
:102AC0002E0360E084E00E942E0360E087E00E9415
:102AD0002E0360E083E00E942E0381E080932302B6
:102AE0001092220210922102109220026091240280
:102AF00070912502809126029091270225E030E016
:102B000041ED52E00E94A40A892B19F18091220222
:102B1000811102C00E948D0385EB92E00E94BB0BE5
:102B200060E086E00E942E0361E084E00E942E03B4
:102B300060E087E00E942E0360E083E00E942E03A5
:102B40001092230281E080932202109221021092BF
:102B500020026091240270912502809126029091BA
:102B6000270225E030E041EA52E00E94A40A892BC6
:102B700019F180912102811102C00E948D0385E824
:102B800092E00E94BB0B60E086E00E942E0360E0B2
:102B900084E00E942E0361E087E00E942E0360E043
:102BA00083E00E942E03109223021092220281E001
:102BB00080932102109220026091240270912502DC
:102BC000809126029091270225E030E041E752E013
:102BD0000E94A40A892B19F180912002811102C060
:102BE0000E948D0385E592E00E94BB0B60E086E0C9
:102BF0000E942E0360E084E00E942E0360E087E0E4
:102C00000E942E0361E083E00E942E0310922302B3
:102C1000109222021092210281E0809320026091A2
:102C2000240270912502809126029091270224E0CF
:102C300030E045E452E00E94A40A892B69F18091BA
:102C4000230281110BC080912202811107C0809163
:102C50002102811103C08091200281110E948D0305
:102C60008AE292E00E94BB0B60E086E00E942E03A5
:102C700060E084E00E942E0360E087E00E942E0363
:102C800060E083E00E942E03109223021092220241
:102C9000109221021092200260912402709125026C
:102CA000809126029091270224E030E04AE152E030
:102CB0000E94A40A892B09F456C00E948D0380E06B
:102CC00092E00E94BB0B60E086E00E942E0360E071
:102CD00084E00E942E0360E087E00E942E0360E003
:102CE00083E00E942E0310921F0210921E02109287
:102CF0001D0210921C0210921B0210921A021092D6
:102D000019021092180210921702109216021092D5
:102D100015021092140210921302109212021092D5
:102D200011021092100210920F0210920E021092D5
:102D30000D0210920C0210920B0210920A021092D5
:102D40000902109208020E946E0D0E94100D0E944E
:102D5000B20C0E94540C1092230210922202109284
:102D60002102109220024114510409F459CC0E940E
:102D70006202882309F450CC0E94000049CC0196DD
:102D800090931F0280931E020BCD0196909319021F
:102D9000809318024BCD01969093130280931202F8
:102DA0008BCD019690930D0280930C02CBCDA1E2C6
:102DB0001A2EAA1BBB1BFD010DC0AA1FBB1FEE1FB5
:102DC000FF1FA217B307E407F50720F0A21BB30B00
:102DD000E40BF50B661F771F881F991F1A9469F77C
:102DE00060957095809590959B01AC01BD01CF01D8
:102DF0000895EE0FFF1F0590F491E02D09940F93B5
:102E00001F93CF93DF938230910510F482E090E01E
:102E1000E0914803F091490330E020E0B0E0A0E009
:102E2000309799F42115310509F44AC0281B390B54
:102E300024303105D8F58A819B816115710589F1AE
:102E4000FB0193838283FE0111C040815181028185
:102E5000138148175907E0F04817590799F410975C
:102E600061F012960C93129713961C933296CF0131
:102E7000DF91CF911F910F91089500934803109314
:102E80004903F4CF2115310551F04217530738F0AB
:102E9000A901DB019A01BD01DF01F801C1CFEF01FA
:102EA000F9CF9093490380934803CDCFFE01E20F01
:102EB000F31F819391932250310939832883D7CF0F
:102EC0002091460330914703232B41F420910301C5
:102ED0003091040130934703209346032091010170
:102EE000309102012115310541F42DB73EB74091D3
:102EF000050150910601241B350BE0914603F0912A
:102F00004703E217F307A0F42E1B3F0B28173907DE
:102F100078F0AC014E5F5F4F2417350748F04E0F35
:102F20005F1F5093470340934603819391939FCF34
:102F3000F0E0E0E09CCFCF93DF930097E9F0FC0155
:102F4000329713821282A0914803B0914903ED0198
:102F500030E020E01097A1F420813181820F931F8F
:102F600020914603309147032817390709F061C0C3
:102F7000F0934703E0934603DF91CF910895EA0170
:102F8000CE17DF07E8F54A815B819E0141155105A7
:102F9000B1F7E901FB83EA8349915991C40FD51F29
:102FA000EC17FD0761F4808191810296840F951FD3
:102FB000E90199838883828193819B838A83F0E0EE
:102FC000E0E012968D919C9113970097B9F52D91A1
:102FD0003C911197CD010296820F931F20914603D9
:102FE000309147032817390739F6309751F5109279
:102FF000490310924803B0934703A0934603BCCF04
:10300000D383C28340815181840F951FC817D9078C
:1030100061F44E5F5F4F88819981480F591F51833A
:1030200040838A819B81938382832115310509F036
:10303000B0CFF0934903E09348039ECFFD01DC013C
:0C304000C0CF13821282D7CFF894FFCFCC
:10304C00FF00004A03800000004000140054000000
:10305C00000000F50AF801A10AA00A00000000987F
:10306C0002F8012502E50256023402480200000073
:10307C00005E0A310AA10A070A2A0A170A080A007E
:10308C000000003907DB06D1040D0A004932432049
:10309C0064657669636520666F756E642061742063
:1030AC0061646472657373203078003000202021D5
:1030BC0000446973706C6179206E6F7420636F6D5E
:0C30CC006D756E69636174696E670000C9
:00000001FF
